:020000040800F2
:10000000680F0020D5010008690F00088D05000861
:10001000650F0008D3040008CD130008000000009D
:100020000000000000000000000000006D0F00084C
:10003000D7040008000000006B0F000871100008D2
:10004000EF010008EF010008EF010008EF010008D0
:10005000EF010008EF010008F1040008EF010008BB
:100060006D050008EF010008EF010008EF0100082E
:10007000EF010008EF010008EF010008EF010008A0
:10008000EF010008EF010008EF010008EF01000890
:10009000EF010008EF010008EF010008EF01000880
:1000A000EF010008EF010008EF010008EF01000870
:1000B000EF0100082911000879110008EF0100087C
:1000C000EF010008EF010008EF010008EF01000850
:1000D000EF010008EF010008EF010008EF01000840
:1000E00005050008EF010008EF010008EF01000816
:1000F000EF010008EF010008EF010008EF01000820
:10010000EF010008EF010008EF010008EF0100080F
:10011000EF010008EF010008EF010008EF010008FF
:10012000EF010008EF010008EF010008EF010008EF
:1001300000F002F800F03FF80AA090E8000C8244BA
:100140008344AAF10107DA4501D100F034F8AFF297
:10015000090EBAE80F0013F0010F18BFFB1A43F0A5
:10016000010318477853000098530000103A24BF49
:1001700078C878C1FAD8520724BF30C830C144BF0C
:1001800004680C607047000000230024002500264E
:10019000103A28BF78C1FBD8520728BF30C148BFEA
:1001A0000B607047642900F07D80002070471FB508
:1001B0001FBD10B510BD00F056F91146FFF7F7FF4F
:1001C00001F0D4FD00F074F903B4FFF7F2FF03BCB3
:1001D00000F078F90948804709480047FEE7FEE744
:1001E000FEE7FEE7FEE7FEE7FEE7FEE7FEE7FEE7E7
:1001F00004480549054A064B70470000C91000082D
:100200003101000868090020680F0020680B0020F9
:10021000680B00200FB41CB5074B06AA7B44694647
:100220000090059800F007F90020694600F016F9E3
:100230001CBC5DF814FB00003D0200002DE9F041FC
:100240000E460446002020622046E168884730B30D
:10025000252805D0D4E901219047206A401CF2E707
:10026000E168204600278847050018D0A5F1410025
:10027000192802D820354FF4006732462946204617
:100280002760FFF78FFF40B1012804D0F61D26F04C
:1002900007060836D8E7361DD6E72846DAE7206A8B
:1002A000BDE8F0812DE9F04106460024106875296B
:1002B000314616A510D0AFF30080002802DA404284
:1002C00013A507E031688A0701D512A502E04907A6
:1002D00004D511A5012401E0AFF3008000210A221A
:1002E00006F1240709E0B0FBF2FCB0FBF2F302FBDD
:1002F0001C00303078541846491C0028F3D123469E
:100300002A463046BDE8F04100F036B80000000053
:100310002D0000002B0000002000000010B5431C41
:1003200002E010F8011B71B18107FAD14FF00132E0
:1003300002C88C1A8C4314EAC211F9D0C01A0A06FA
:1003400003D0C01E10BDC01A10BD0A0401D0801E0B
:1003500010BD0902FCD0401E10BD421E12F8013F24
:10036000002BFBD111F8013B002B02F8013BF9D126
:1003700070477047704770472DE9F0470D46994622
:100380009246044600F124080168880604D5E06915
:1003900021F01001216000E00120A84201DD471B8F
:1003A00000E00027A1697A1902EB0900081AA06190
:1003B0002078C00602D42046AFF30080002608E073
:1003C000D4E901211AF806009047206A401C761CE7
:1003D00020624E45F4DB2078C0060AD52046AFF3F4
:1003E000008006E0D4E9012130209047206A401CBB
:1003F0002062381EA7F10107F4DC07E0D4E90121EF
:1004000018F805009047206A401C2062281EA5F1BC
:100410000105F3DC2046AFF300802078000602D50A
:100420000220BDE8F0870120FBE7000001694A1CBB
:1004300002610878704700B58FB0CDE90131002125
:10044000059105497944CDE9031011466846FFF747
:10045000F5FE0FB000BD0000E5FFFFFF0A6802F8DF
:10046000010B0A607047754600F028F8AE4605009B
:100470006946534620F00700854618B020B5FFF7BF
:10048000B7FEBDE820404FF000064FF000074FF0E8
:1004900000084FF0000B21F00701AC46ACE8C009A2
:1004A000ACE8C009ACE8C009ACE8C0098D467047AB
:1004B0000446AFF300802046FFF786FE00487047F1
:1004C0000409002001491820ABBEFEE72600020007
:1004D000704700BFFEE77047002100E0491C8142E1
:1004E000FCD37047002100E0491C8142FCD37047D7
:1004F0000120024908700249086070470A01002083
:100500001404014010B515488468154800680B288C
:1005100007D10A20FFF7E0FF4FF40060114908609F
:1005200010BD04F4806050B10D480068C0F10A01AC
:10053000012088400C49096808430B4908600848B5
:100540000068401C064908603220FFF7C5FF4FF4E1
:1005500000600449086000BFE2E7000000100140AD
:1005600010010020140401400C0100200020044967
:10057000087001200349087004200349086070478F
:10058000090100200A0100201404014000BFFEE719
:100590002048806940F010001E4988611E4840686C
:1005A00020F47F401C4948600846406840F40840F9
:1005B00048600846C06840F40060C860154880691B
:1005C00040F00100134988611448006920F470412B
:1005D00012480161006940F400511048016110485F
:1005E000006840F400600E4908600D480C30006857
:1005F00040F400600A490C31086065210948017027
:100600000948006840F480704FF0E021C1F804010F
:10061000704700000010024000100140000001403F
:100620000004014028E400E004E100E01048806993
:1006300040F008000E4988610846806940F040009B
:1006400088610C48006820F470000A490860084678
:10065000006840F4401008600748006820F470000B
:10066000054908600846006840F44010086070477B
:1006700000100240000C014000180140014601F04A
:1006800007021202054B18684FF6FF031840044B8F
:1006900018431043014B1860704700000CED00E058
:1006A0000000FA0500204FF0E0210861034848618E
:1006B0000846006940F0030008617047FF340C00F1
:1006C00010B503460C462A2000F014FA181200F068
:1006D0000BFAD8B200F008FA591C081200F004FA1C
:1006E000591CC8B200F000FA2B2000F003FA2012C7
:1006F00000F0FAF9E0B200F0F7F9611C081200F01E
:10070000F3F9611CC8B200F0EFF92C2000F0F2F907
:10071000104600F0E9F910BDF0B507460C46059DFE
:1007200000262A2000F0E6F9201200F0DDF9E0B200
:1007300000F0DAF91119491EC1F30F2000F0D4F9C5
:100740001119491EC8B200F0CFF92B2000F0D2F9E0
:10075000181200F0C9F9D8B200F0C6F9E918491E1C
:10076000C1F30F2000F0C0F9E918491EC8B200F02B
:10077000BBF92C2000F0BEF900BF03E0384600F0C2
:10078000B3F9761C02FB05F0B042F7D8F0BD0000CB
:1007900000B55948406940F480705749486108469F
:1007A000806940F0080088610846806940F02000B8
:1007B00088610846806940F0400088610846806989
:1007C00040F4807088614D48006820F00F004B496C
:1007D00008600846006840F0030008604848006868
:1007E00048490840464908600846006846490843A9
:1007F00043490860081F006800F0FF20091F0860D7
:100800000846006840F0BB100860404800680020BF
:100810003E4908600846006840F0BB300860081F89
:10082000006820F07040091F08600846006840F02A
:10083000304008603648406820F4702034494860F1
:100840000846406840F4302048600846006820F0C0
:100850000F0008600846006840F00B0008600020A8
:100860004FF020418861C8612A4908604FF020405C
:10087000806940F480504FF02041886108468069CB
:1008800040F4804088610846806940F0100088612B
:100890000846C069C8610846C06940F00100C861E7
:1008A0000846C06940F47060C8611A480068C1F821
:1008B0001C0118480068C1F81C010846D0F81C014A
:1008C00040F44070C1F81C010846806940F0010006
:1008D000886100F03EF80948006820F00F000749E1
:1008E00008600846006840F00300086001200349E2
:1008F0001031086000BD000000100240000C0140F3
:100900000414014000F0FF00BB0B00BB04180140C1
:10091000002001401C0100A02DE9F04106460F46D1
:100920001546984600240DE02A5D06EBC40188B206
:100930004346394600F02EF842F21070FFF7D2FD20
:10094000601CC4B22846FFF7E9FCA042ECD8BDE821
:10095000F08100B5012000F0CDF8112000F0CAF8B8
:100960003A2000F0C7F8552000F0BEF8292000F02A
:10097000C1F8362000F0BEF8AA2000F0B5F80B2030
:1009800000F0B8F8202000F0AFF8202000F0ACF81C
:1009900000BD00002DE9FF4F82B006468B4614468D
:1009A000102508200190B246CDF800B0202C01DBC4
:1009B0007F2C02DD06B0BDE8F08FA4F12000C4B2A8
:1009C000002736E04FF000092CE04FF0000822E04D
:1009D0001C4800EB0410012101EB4801C91B405CDD
:1009E00040FA09F000F0010020B15046059A009944
:1009F000FFF766FE0AF101001FFA80FA0198304401
:100A0000504504DCB2460098401C80B2009008F1CA
:100A1000010000F0FF0801988045D9DB09F10100D1
:100A200000F0FF0905EBD571B9EB610FCDDB781C48
:100A3000C7B2E91705EB5171B7EBE10FC2DB00BF9D
:100A4000B8E70000FC4400082DE9F84F82460C4648
:100A500015464FF0140814200090D34604EB08000C
:100A6000401E1FFA80F9642D01DDBDE8F88F0026D5
:100A70002BE0082725E005EBC50000EB0510184921
:100A800001EB4000805D791E084100F0010038B1A3
:100A9000144830F8250082B249465846FFF710FE48
:100AA000A9F101001FFA80F9A14508DA04EB08005A
:100AB000401E1FFA80F90BF101001FFA80FB781E1F
:100AC000C7B2002FD7DC701CC6B2009908FB01F03A
:100AD000C11700EB5171B6EBE10FCADB00BFC4E7F1
:100AE0004C4B0008945000080149088070470000F2
:100AF0000008006C0149088070470000FE07006C88
:100B0000124AD26942F00202104BDA61104A108098
:100B1000121F11800E4A203A128842F001020C4B3B
:100B2000203B1A800A4A2C3A128842F00102084BF4
:100B30002C3B1A804523074A1370074A126842F07B
:100B400000524FF0E023C3F800217047001002402C
:100B50002C0400401DE400E000E100E0244880692E
:100B600040F00800224988612248006820F0F00027
:100B7000204908600846006840F010000860022024
:100B80001C49143108601B48001D006820F47020C7
:100B90001849091D08600846006840F48030086064
:100BA00088141449103108601148806940F08000B1
:100BB0000F498861104800686FF30B000E49086008
:100BC0000846006840F0080008600846006840F0E9
:100BD000100008600846006840F40060086088154E
:100BE00005490C310860400008604000086070470B
:100BF00000100240000C0140041C01402DE9F05F90
:100C000005460E46300103F019FB8146284905FBD5
:100C100001F003F013FB8246494603F02DFA074624
:100C2000384603F0EBFA84B2204603F007FB834614
:100C3000394603F0E3FB82464FF0834103F012FB99
:100C4000814603F0DBFA80464FF6FF7000EA041499
:100C500004EB080084B21748806940F0040015498D
:100C600088610846806940F48040886112480068C5
:100C700020F47F60104908600846006840F40B606B
:100C800008600C48C06840F480400A49C8600846C3
:100C9000C06820F48040C86008480480001D0088B7
:100CA00042F2080108430549091D0880BDE8F09F8C
:100CB00040420F0000100240040801400838014083
:100CC0002DE9F05F05460E46300103F0B7FA814684
:100CD000284905FB01F003F0B1FA8246494603F0CA
:100CE000CBF90746384603F089FA84B2204603F070
:100CF000A5FA8346394603F081FB82464FF08341D3
:100D000003F0B0FA814603F079FA80464FF6FF709F
:100D100000EA041404EB080084B21748806940F02C
:100D20000400154988610846C06940F40030C86174
:100D30001248006820F47F401049086008460068A7
:100D400040F40B4008600C48006940F400300A4948
:100D500008610846006920F40030086108480480F2
:100D6000001D008842F2080108430549091D08805A
:100D7000BDE8F09F40420F00001002400008014013
:100D80000844004007210020234A5268234B1A40A0
:100D9000214B5A601A461268214B1A401E4B1A60AA
:100DA0001A46126842F480321A6000BF1A4A12686A
:100DB000520C002AFAD04FF48062174B5A601A4640
:100DC000526842EA81425A601A46526842F48032BE
:100DD0005A60144A126842F03202124B1A600E4AEC
:100DE000126842F080720C4B1A6000BF0A4A126807
:100DF000520E002AFAD0084A526842F00202064B0C
:100E00005A6005E0044A5268C2F3870000F003000C
:100E10000228F7D170470000001002400000FFF8E0
:100E2000FFFFF6FE002002402148806940F04000AC
:100E30001F4988611F48006820F470601D490860E0
:100E40000846006840F4006008601A480C300068EA
:100E500040F0040017490C3108601548806940F0E3
:100E60000100134988611448806820F470601249B9
:100E700088600846806840F4806088600F48006899
:100E800040F004000D4908600C480C30006840F048
:100E900004000A490C3108606521094801700948BD
:100EA000006840F480704FF0E021C1F80001704705
:100EB0000010024000180140000001400004014001
:100EC00008E400E000E100E02048806940F0040010
:100ED0001E4988611E48006820F00F001C49086008
:100EE0000846006840F00800086019480C300068A7
:100EF00020F0010016490C3108601448806940F068
:100F00000100124988611348806820F00F001149E0
:100F100088600846806888600F48006840F00100DB
:100F20000D4908600C480C30006840F001000A4987
:100F30000C3108603521094801700948006840F00B
:100F400040004FF0E021C1F800017047001002405E
:100F500000080140000001400004014006E400E0F8
:100F600000E100E000BFFEE77047704770470000F7
:100F70002020014908607047100C014020200149E1
:100F8000086070471018014010B500F001F810BD5E
:100F90000CB50020019000903348006840F4803088
:100FA0003149086000BF3048006800F4003000900C
:100FB0000198401C0190009818B90198B0F5A06FF5
:100FC000F1D12948006800F4003010B101200090F0
:100FD00001E0002000900098012843D123480068D8
:100FE00040F01000214908600846006820F0030026
:100FF00008600846006840F0020008601A4840682F
:10100000194948600846406848600846406840F40E
:10101000806048600846406820F47C1048600846BC
:10102000406840F4E81048600846006840F080706E
:10103000086000BF0C48006800F000700028F9D07C
:101040000948406820F003000749486008464068A6
:1010500040F00200486000BF0348406800F00C0008
:101060000828F9D10CBD0000001002400020024009
:101070000F480078401C0E4908700E48007820B9CF
:1010800000200D4908600D490860094800780A28C9
:101090000CD100200649087009480088401C084906
:1010A000088008480078401C064908707047000016
:1010B000C0000020080100200C01002010010020C9
:1010C000DE000020E200002010B51348006840F068
:1010D00001001149086008464068104908400E495F
:1010E0004860084600680E4908400B4908600846F9
:1010F000006820F4802008600846406820F4FE0064
:1011000048604FF41F008860FFF73EFF4FF000601B
:101110000449086010BD0000001002400000FFF804
:10112000FFFFF6FE08ED00E010B50F48008800F064
:10113000010088B10D48007870B10D480078401C5E
:10114000032190FBF1F201FB1200094908700948E4
:10115000007808B900F03CF90348008820F001004D
:101160000149088010BD0000100400400901002062
:10117000E1000020DC0000200848008800F00100A9
:1011800028B10748006880F020000549086003483E
:10119000008820F0010001490880704710080040D5
:1011A0000C180140012803D10103044A116004E036
:1011B0004FF48051014A121D11607047100C01401C
:1011C000012803D14102044A116004E04FF4007188
:1011D000014A121D11607047101C014010B50446F1
:1011E00000230020FFF7DEFF0120FFF7E9FF00F0FA
:1011F000D7F86A48006800F4806008B942F21073BA
:10120000E21704EB9272901000EBD0725210A0EB38
:101210004202012A03D10120FFF7D2FF02E00020A1
:10122000FFF7CEFF00F0BCF804EBD472501000EBD7
:10123000D0725210A0EB4202012A03D10120FFF725
:10124000BFFF02E00020FFF7BBFF00F0A9F8204637
:1012500004EBD0714910A4EB4101012903D1012015
:10126000FFF7AEFF02E00020FFF7AAFF00F098F8BA
:101270000120FFF7A5FF00F093F80120FFF7A0FF82
:1012800000F08EF80020FFF79BFF00F089F80020A7
:10129000FFF796FF00F084F84048006800F4807083
:1012A00010B103F5006083B200F07AF83B480068A3
:1012B00000F4807010B103F5806083B200F070F824
:1012C0003648006800F4807010B103F5007083B2F6
:1012D00000F066F83148006800F4807010B103F542
:1012E000807083B200F05CF82C48006800F48070D5
:1012F00010B103F1800083B200F052F82748006873
:1013000000F4807010B103F1400083B200F048F89F
:101310002248006800F4807010B103F1200083B20D
:1013200000F03EF81D48006800F4807010B103F131
:10133000100083B200F034F81848006800F48070A0
:1013400010B103F1080083B200F02AF813480068D6
:1013500000F4807008B1181D83B200F021F80F4826
:10136000006800F4807008B1981C83B200F018F88F
:101370000A48006800F4807008B1581C83B200F07D
:101380000FF800F00DF800F00BF800F009F800F08D
:1013900007F80120FFF706FF184610BD081C0140A2
:1013A000022002490860091D08607047100C0140C6
:1013B0008021054A108000BF034A121F12880A408C
:1013C000002AF9D0704700000438014000BFFEE752
:1013D0002DE9F843002504E10024FDE00026F1E0BA
:1013E000824800EBC51000EBC400001D805D66283C
:1013F0006ED10B2D01D1012004E0C5F10B0000EBF3
:101400008000800087B2012F01D1132000E014205A
:101410008046764800EBC51050F83400022842D1CF
:1014200004EB840081003B4614220020CDF80080AC
:10143000FFF772F9DEB96E496E4B1B7811F8232065
:1014400004EB840188003946FFF7FEFA674901EB97
:10145000C51101EBC40149794139674B13F82120CB
:1014600004EB840188003946FFF7EEFA30E05F496B
:1014700001EBC51101EBC401097941395E4B13F849
:10148000212004EB840188003946FFF7DDFA584932
:10149000584B1B7811F8232004EB8401880039464F
:1014A000FFF7D2FA14E004EB840081003B461422DB
:1014B0000020CDF80080FFF72FF94D494D4B1B78E8
:1014C00011F8232004EB840188003946FFF7BCFAA9
:1014D000464800EBC51000EBC400001D805D62288B
:1014E0006ED10B2D01D1012004E0C5F10B0000EB02
:1014F0008000800087B2012F01D1132000E014206A
:1015000080463A4800EBC51050F83400022842D11A
:1015100004EB840081003B4614220020CDF80080BB
:10152000FFF7FAF8DEB93549324B1B7811F8232062
:1015300004EB840188003946FFF786FA2B4901EB5A
:10154000C51101EBC401497941392B4B13F8212016
:1015500004EB840188003946FFF776FA30E023492E
:1015600001EBC51101EBC40109794139224B13F894
:10157000212004EB840188003946FFF765FA1F49F2
:101580001C4B1B7811F8232004EB8401880039469A
:10159000FFF75AFA14E004EB840081003B46142262
:1015A0000020CDF80080FFF7B7F81449114B1B78E5
:1015B00011F8232004EB840188003946FFF744FA30
:1015C000701CC6B2094800EBC51050F83400B04298
:1015D0003FF706AF601CC4B2102CFFF6FFAE681CCC
:1015E000C5B20C2DFFF6F8AEBDE8F8831C01002053
:1015F000C4000020E100002000510008D0000020BD
:101600002DE9F84F4FF0000AD346012059490870E0
:10161000002490E0002589E000267DE0564800EB9C
:10162000C41000EBC500001D805D4138534951F8DE
:101630002080514800EBC41000EBC500001D805D08
:1016400061280FDB4C4800EBC41000EBC500001D07
:10165000805D61384A4951F8200000F0807008B17F
:101660004FF0010BB8F1000F30DB464800EB0410DF
:10167000405D58B30B2C01D1012004E0C4F10B00F4
:1016800000EB8000800087B2012F01D1132000E021
:101690001420814666B905EB85004FF6FF7202EA19
:1016A00080013B4614220020CDF80090FFF734F86B
:1016B00008F0FF0205EB85014FF6FF7303EA810096
:1016C0003946FFF7C1F94FF0010A23E02D4800EB3E
:1016D0000410405DF0B10B2C01D1012004E0C4F1F5
:1016E0000B0000EB8000800087B2012F01D1132096
:1016F00000E01420814605EB85004FF6FF7202EAF8
:1017000080013B4614220020CDF80090FFF704F83A
:101710004FF0010A701C86B2174800EBC41050F855
:101720003500B0423FF77AAF681C85B2102DFFF646
:1017300073AF601C84B20C2CFFF66CAFBAF1000FD3
:1017400012D1BBF1000F0FD11420DC23C8223221AB
:10175000009046F64D30FEF7DFFF4FF6FF730AA20A
:10176000DE213720FFF7D8F8002002490870BDE8D5
:10177000F88F0000DC0000201C0100200051000850
:101780009C080020DC0700205072657373204B45D5
:101790005920555020746F207265747279210000B1
:1017A0002DE9F0439BB04FF0000900240CE0002528
:1017B00006E000208F4901EB04114855681C85B2F2
:1017C000102DF6DB601C84B20C2CF0DB8A4800780C
:1017D00010B91BB0BDE8F08300240DE0874850F835
:1017E000240000F0807028B1484609F1010901A9E0
:1017F00041F82040601C84B21A2CEFDB002426E064
:10180000002520E000261AE07D4800EBC41000EB24
:10181000C500001D7A4901EBC41151F83510491E6D
:10182000405C613801A951F82610884205D1002397
:1018300004222946204600F0F1FE701C86B24E4577
:10184000E2DB681C85B2102DDCDB601C84B20C2C42
:10185000D6DB00F09DFD00244DE0002545E0AC42C4
:1018600041D06848005D6138644951F820006549FD
:10187000495D613901228A401040A0B3002630E062
:1018800000272AE04FF000081EE05D4800EBC6107C
:1018900000EBC700001D10F808005A49095D884296
:1018A0000ED15848415D564800EBC61000EBC7000A
:1018B000001D00F8081001204E4901EB0611C85523
:1018C00008F101001FFA80F84D4800EBC61050F8EF
:1018D00037004045D9DC781C87B2102FD2DB701C52
:1018E00086B20C2ECCDB681C85B247480068854266
:1018F000B5DB601C84B2444800688442ADDBFFF76E
:101900007FFE00245AE0002554E03D4800EBC4105F
:1019100050F8350002281ED1394800EBC41000EB06
:10192000C50040796138354951F8200000F08070D9
:1019300088B1334800EBC41000EBC5000079613872
:1019400051F8200000F4800028B105202A490870D1
:1019500001202E4908702A4800EBC41050F83500C9
:10196000022825D1264800EBC41000EBC5004079C1
:101970006138224951F8200000F08070C0B1204841
:1019800000EBC41000EBC5000079613811F82000AD
:1019900000F0080060B11A4800EBC41050F83500A0
:1019A000401E174901EBC41141F83500FFF728FE2E
:1019B000681C85B2102DA8DB601C84B20C2CA2DB45
:1019C000002413E00D4850F8240000F4800058B1C2
:1019D0000A4850F8240000F0807028B1052006491C
:1019E0000870012009490870601C84B21A2CE9DBD8
:1019F00000BFEEE6DC070020090100209C08002063
:101A00001C010020E3000020EC0000200A0100205F
:101A10002DE9F0439BB04FF0000900240CE00025B5
:101A200006E000208F4901EB04114855681C85B27F
:101A3000102DF6DB601C84B20C2CF0DB8A48007899
:101A400010B91BB0BDE8F08300240DE0874850F8C2
:101A5000240000F0807028B1484609F1010901A96D
:101A600041F82040601C84B21A2CEFDB002526E0F0
:101A7000002420E000261AE07D4800EBC41000EBB3
:101A8000C500001D7A4901EBC41151F83510491EFB
:101A9000405C613801A951F82610884205D1002325
:101AA00001222946204600F0B9FD701C86B24E4541
:101AB000E2DB601C84B20C2CDCDB681C85B2102DD0
:101AC000D6DB00F065FC00244DE0002545E0AC428B
:101AD00041D06848005D6138644951F8200065498B
:101AE000495D613901228A401040A0B3002630E0F0
:101AF00000272AE04FF000081EE05D4800EBC6100A
:101B000000EBC700001D10F808005A49095D884223
:101B10000ED15848415D564800EBC61000EBC70097
:101B2000001D00F8081001204E4901EB0611C855B0
:101B300008F101001FFA80F84D4800EBC61050F87C
:101B400037004045D9DC781C87B2102FD2DB701CDF
:101B500086B20C2ECCDB681C85B2474800688542F3
:101B6000B5DB601C84B2444800688442ADDBFFF7FB
:101B700047FD00245AE0002554E03D4800EBC41026
:101B800050F8350002281ED1394800EBC41000EB94
:101B9000C50040796138354951F8200000F0807067
:101BA00088B1334800EBC41000EBC5000079613800
:101BB00051F8200000F4800028B105202A4908705F
:101BC00001202E4908702A4800EBC41050F8350057
:101BD000022825D1264800EBC41000EBC50040794F
:101BE0006138224951F8200000F08070C0B12048CF
:101BF00000EBC41000EBC5000079613811F820003B
:101C000000F0080060B11A4800EBC41050F835002D
:101C1000401E174901EBC41141F83500FFF7F0FCF5
:101C2000681C85B2102DA8DB601C84B20C2CA2DBD2
:101C3000002413E00D4850F8240000F4800058B14F
:101C40000A4850F8240000F0807028B105200649A9
:101C50000870012009490870601C84B21A2CE9DB65
:101C600000BFEEE6DC070020090100209C080020F0
:101C70001C010020E3000020EC0000200A010020ED
:101C80002DE9F8430646012031490870F020002371
:101C90004FF4A072194600901846FEF73DFD042E41
:101CA00001DDBDE8F883002443E000253DE006EBBC
:101CB0004600284901EB001050F82400405D4138EF
:101CC000254951F82070002F14DB0B2C01D1012085
:101CD00004E0C4F10B0000EB800080001FFA80F8E4
:101CE000FAB205EB85014FF6FF7303EA8100414626
:101CF000FEF7AAFE0120194901EBC41141F8350095
:101D000006EB4600134901EB001050F82400405D3B
:101D1000124901EBC41101EBC50108715F201049A4
:101D200001EB04114855681C85B2102DBFDB601C07
:101D300084B20C2CB9DB00200A4908600A490880EB
:101D400000F026FB00200249087000BFA9E7000050
:101D5000DC00002000000020005100081C010020D1
:101D60001C07002018010020DE00002008B5FFF746
:101D700009F8FEF797FCFEF759FC4FF4165148207E
:101D8000FEF73CFF4FF416512420FEF799FFFEF7B3
:101D9000E5FEFEF7FDFC0520FEF770FCFFF744F8BA
:101DA000FFF792F8FEF7F4FB41F61F4140F2CF70C7
:101DB000FEF7A6FEFE48FEF78FFBFFF7D9F8FFF708
:101DC000DDF8F02000234FF4A07219460090184669
:101DD000FEF7A2FC42F21070FEF77EFB4FF6FF7397
:101DE000F4A2C8214620FEF797FD4FF47843F4A2F1
:101DF000C8219E20FEF790FD4FF6FF73F3A2A021AD
:101E00004120FEF789FD4FF6FF73F6A28C21412099
:101E1000FEF782FD40F2FF73F8A250214120FEF749
:101E20007BFD0020FC49087016E0FB490C7804EBB0
:101E3000D4714910A4EB4101CAB2F749097801EB0A
:101E40008101890001F128001421FEF7FDFDF2480F
:101E50000078401CF0490870EF4800780C28E4DB5B
:101E6000EE48FEF739FB00BF0520FFF7B7F9EC4954
:101E700008800120FFF7B2F9EA4908804FF47A7030
:101E8000FEF72AFBE648008842F2107190FBF1F061
:101E900028B9E448008890FBF1F00028E4D0E2483B
:101EA000FEF71AFB5BE2E14800680B2837D3E048F5
:101EB000006820F40060DE4908600120DD490870F8
:101EC0000820D549087019E0D3480078C0F10A010C
:101ED00001208840D8490968084050B1CE480078B0
:101EE000401E012101FA00F0D44909780843D34982
:101EF0000870C9480078401EC7490870C648007875
:101F00000128E1DA0020CB490870C8490860CA49B5
:101F10000860C748006840F40060C5490860C748C9
:101F200000786B2825D0732804D0742840D07528F9
:101F30007CD15CE0BE48006820F40060BC490860C9
:101F4000BF480078012805DBBD480078042801DC83
:101F500001F0F8FEBB480068401CBA49086094488C
:101F6000FEF7BAFAB248006840F40060B049086071
:101F70005CE0AF48006820F40060AD490860B048FC
:101F80000078012805DBAE480078042801DCFFF763
:101F90003FFDAC480068401CAA4908608448FEF731
:101FA0009BFAA348006840F40060A14908603DE046
:101FB0009F48006820F400609D490860A0480078B0
:101FC000012805DB9E480078042801DC01F082FD31
:101FD0009C480068401C9B4908607548FEF77CFAE5
:101FE0009348006840F40060914908601EE0904802
:101FF000006820F400608E4908609148007801284C
:1020000005DB8F480078042801DCFFF7C9FB8D4809
:102010000068401C8B4908606548FEF75DFA8448FB
:10202000006840F400608249086000BF00BF0020E3
:102030008249087082480078002873D1824800786D
:10204000A8B3F02000234FF4A07219460090184660
:10205000FEF762FB4FF6FF737CA2B4214120FEF72E
:102060005BFC4AF6FF737FA278213220FEF754FC16
:102070004FF6FF337CA278216E20FEF74DFC4FF621
:10208000CF737AA27821AA20FEF746FC4FF6FD73A3
:1020900077A27821E620FEF73FFC4FF4784375A243
:1020A0001E213220FEF738FC002067490870052009
:1020B000FFF794F85A4908800846008842F6CC1188
:1020C00088425EDB5648008842F69421884258DCFC
:1020D00042F21070FEF700FA0520FFF77FF8504932
:1020E00008800846008842F6CC11884249DB4C48FB
:1020F000008842F69421884243DC0120FFF76EF805
:10210000484908800846008842F6285188420ADB80
:102110004448008842F6F051884204DC01204849D6
:1021200008702EE033E03F48008842F6983188423C
:1021300009DB3C48008842F66041884203DC02200B
:102140003F4908701DE03748008842F60821884260
:1021500009DB3448008842F6D021884203DC0320A2
:10216000374908700DE02F48008842F67801884210
:1021700007DB2C480088B0F5255F02DC04203049DD
:1021800008702F48007810B101202F4908702C48A2
:102190000078012808D12C48007828B10020FFF7EA
:1021A0006FFD0020284908702548007802286BE060
:1021B00040420F0057656C636F6D6520746F20009F
:1021C0004261626120697320596F75004C75692006
:1021D0004B77616E204B696E2031313535313130AE
:1021E00034363900576F6E672057616E204B692077
:1021F0003131353531323438343300005072657343
:102200007320616E79776865726520746F206265EE
:1022100067696E2100000000E0000020A086010038
:102220000401002006010020A02526001001002046
:1022300000040140080100200C01002014010020CE
:1022400009010020180100200A010020506C65617E
:1022500073652063686F6F736520746865206C65B3
:1022600076656C0031000000320000003300000091
:10227000340000004D756C7469706C617965722171
:10228000202020203500000008D13548007828B1F2
:102290000120FFF7F5FC0020314908703148007833
:1022A000032808D12E48007828B10220FFF7E8FC67
:1022B00000202B4908702B480078042808D12848B2
:1022C000007828B10320FFF7DBFC002024490870C8
:1022D00024480078052842D121480078A8B350202E
:1022E000034664221146009043F28A20FEF714FA56
:1022F0004FF6FF731CA28C217320FEF70DFB1D48C7
:102300001DA102681D48FDF785FF4FF6FF731B4AAC
:10231000921F78216E20FEF7FFFA1948028816A155
:102320001848FDF777FF18A11648401FFEF715F86B
:102330004FF6FF73134A521F64216E20FEF7ECFA2A
:1023400000200749087011490870104800780328D8
:1023500005DB002003490870012001490870A2E54F
:102360000A01002009010020596F752077696E214C
:10237000000000001801002025640000F600002085
:10238000DE000020FF00002073000000E2000020BB
:1023900030B5002005E000229E4B43F82020421C6F
:1023A00090B21A28F7DB00202FE1002128E19A4A99
:1023B00002EBC01202EBC102121D974B03EBC013DC
:1023C00053F831305B1ED25C412A7DDB924A02EB2E
:1023D000C01202EBC102121D8F4B03EBC01353F866
:1023E00031305B1ED25C5A2A6EDC8B4A02EBC01283
:1023F00002EBC102121D884B03EBC01353F83130BE
:102400005B1ED25C492A5FD04A1C102A7DDA824AC0
:1024100002EBC0134A1C03EBC202121D7E4B03EBFE
:10242000C0144B1C54F833305B1ED25C492A6CD16B
:102430008A1C102A69DA784A02EBC0138A1C03EB63
:10244000C202121D744B03EBC0148B1C54F83330C2
:102450005B1ED25C412A58DB6F4A02EBC0138A1C18
:1024600003EBC202121D6C4B03EBC0148B1C54F81F
:1024700033305B1ED25C5A2A47DC674A02EBC0133A
:102480008A1C03EBC202121D634B03EBC0148B1CAE
:1024900054F833305B1ED25C492A36D05E4A02EBD8
:1024A000C01202EBC102121D5B4B03EBC01353F8C9
:1024B00031305B1ED25C413A564B53F82220564BCA
:1024C00003EBC0148B1C00E098E004EBC3031B1D5E
:1024D000514C04EBC0158C1C55F83440641E1B5D38
:1024E000413B01249C4022434B4B03EBC01303EBC5
:1024F000C1031B1D484C04EBC01454F83140641E4A
:102500001B5D413B434C44F82320421C0C2A75DAE6
:10251000414B03EBC21202EBC102121D1C46431CCD
:1025200004EBC31353F831305B1ED25C492A65D1EA
:10253000821C0C2A62DA234603EBC21202EBC102B0
:10254000121D831C04EBC31353F831305B1ED25CA5
:10255000412A53DB2346821C03EBC21202EBC10269
:10256000121D831C04EBC31353F831305B1ED25C85
:102570005A2A43DC2346821C03EBC21202EBC1023F
:10258000121D831C04EBC31353F831305B1ED25C65
:10259000492A33D0224602EBC01202EBC102121DBF
:1025A000234603EBC01353F831305B1ED25C413A33
:1025B000184B53F82220831C04EBC31303EBC10315
:1025C0001B1D04EBC0158C1C55F83440641E1B5DAC
:1025D000413B01249C4042EA04030F4A02EBC01233
:1025E00002EBC102121D0C4C04EBC01454F8314034
:1025F000641E125D413A074C44F822304A1C91B2E5
:102600001029FFF6D4AE421C90B20C28FFF6CDAED6
:1026100030BD00009C0800201C0100202DE9F04185
:1026200004460D4617461E46012F7CD10DB9BDE864
:10263000F081FE4800EBC411681E01EBC000007978
:102640005F2839D1F94800EBC41000EBC500001D2C
:10265000F64901EBC41151F83510491E415CF348AD
:1026600000EBC412681E02EBC0000171EF4800EBE2
:10267000C41050F83500012807D15F20EB4901EB69
:10268000C41101EBC50108710AE0E84800EBC41071
:1026900050F83500401EE54901EBC41141F8350002
:1026A0000121E34800EB0412681E11540120E049A7
:1026B00001EB04114855BAE7002E58D1DB4800EB76
:1026C000C411681E01EBC000001DD84901EBC41203
:1026D000691E52F83110491E405C412810DBD34876
:1026E00000EBC411681E01EBC000001DCF4901EBD7
:1026F000C412691E52F83110491E405C5A2828DD68
:10270000CA4800EBC411681E01EBC000001DC74998
:1027100001EBC412691E52F83110491E405C612859
:1027200025DBC24800E01AE200EBC411681E01EB91
:10273000C000001DBD4901EBC412691E52F83110E2
:10274000491E405C6138BB4931F8200000F400406C
:1027500068B1681E81B2002301222046FFF75EFFA8
:1027600001231A4629462046FFF758FF5FE7012E4E
:1027700049D1AE4800EBC411681E01EBC000001D3A
:10278000AA4901EBC412691E52F83110491E405C7F
:10279000412810DBA54800EBC411681E01EBC00006
:1027A000001DA24901EBC412691E52F83110491EE6
:1027B000405C5A2826DD9D4800EBC411681E01EBE1
:1027C000C000001D994901EBC412691E52F8311076
:1027D000491E405C612816DB944800EBC411681E5A
:1027E00001EBC000001D914901EBC412691E52F8B3
:1027F0003110491E405C61388E4931F8200000F4E8
:10280000004000B113E7894800EBC411681E01EBDA
:10281000C000007961280EDB844800EBC411681EFB
:1028200001EBC00000796138824951F8200000F4C2
:10283000802000B1FBE67D4800EBC411681E51F812
:10284000300001285AD1794800EBC411681E01EB11
:10285000C0000079612851DB744800EBC411681E88
:1028600001EBC00000796138724911F8200000F0D6
:102870000800A8B36D4800EBC41000EBC500001DB4
:102880006A4901EBC41151F83510491E405C6128BA
:1028900034DB664800EBC41000EBC500001D634943
:1028A00001EBC41151F83510491E405C6138614993
:1028B00051F8200000F0807090B15C4800EBC4102B
:1028C00050F8350002280CD1584800EBC41050F8DD
:1028D0003500401E554901EBC41141F8350007E0B1
:1028E0000CE05F20514901EBC41101EBC5010871F7
:1028F00001204F4901EB0411485598E64B4800EB85
:10290000C411681E51F83000012844D1474800EB3B
:10291000C411681E01EBC000007961283BDB43480D
:1029200000EBC411681E01EBC00000796138414919
:1029300051F8200000F4002068B33C4800EBC410BC
:1029400050F8350002280BD1384800EBC41050F87D
:102950003500401E354901EBC41141F8350006E051
:102960005F20324901EBC41101EBC50108715F2101
:102970002E4800EBC412681E02EBC000017101205A
:102980002B4901EB041148550121294800EB0412A1
:10299000681E11544BE6254800EBC411681E51F81F
:1029A0003000012848D1214800EBC411681E01EB1A
:1029B000C000007961287FDB1C4800EBC411681E51
:1029C00001EBC000007961381A4951F8200000F489
:1029D000800088B3154800EBC41000EBC500001D53
:1029E000124901EBC41151F83510491E405C6128B1
:1029F00062DB0E4800EBC41000EBC500001D0B4964
:102A000001EBC41151F83510491E405C6138094989
:102A100051F8200000F0807070B1044800EBC41140
:102A2000681E51F83000401C004906E01C010020DF
:102A3000DC0700209C0800203EE001EBC412691E68
:102A400042F83100FB4800EBC41000EBC500001D4C
:102A5000F84901EBC41151F83510491E415CF548A5
:102A600000EBC412681E02EBC0004171F14800EB9C
:102A7000C41050F8350002280BD1EE4800EBC4100A
:102A800050F83500401EEB4901EBC41141F8350008
:102A900006E05F20E74901EBC41101EBC5010871B5
:102AA0000120E54901EB041148550121E24800EB02
:102AB0000412681E1154BAE50620FEF779FCDD48C1
:102AC00000EBC411681E51F83000022800D1AEE5B9
:102AD000D84800EBC411681E51F83000401CD5499D
:102AE00001EBC412691E42F83100D24800EBC41059
:102AF00000EBC500001DCF4901EBC41151F83510A2
:102B0000491E415CCB4800EBC412681E02EBC000BA
:102B10004171C84800EBC41050F8350002280BD1B1
:102B2000C44800EBC41050F83500401EC14901EB09
:102B3000C41141F8350006E05F20BE4901EBC41125
:102B400001EBC50108710120BB4901EB0411485597
:102B50000121B94800EB0412681E115467E5022FE9
:102B60007ED10F2D00D162E5B24800EBC411681C84
:102B700001EBC00000795F2839D1AE4800EBC410EA
:102B800000EBC500001DAB4901EBC41151F8351035
:102B9000491E415CA74800EBC412681C02EBC00050
:102BA0000171A44800EBC41050F83500012807D18A
:102BB0005F20A04901EBC41101EBC50108710AE0D7
:102BC0009C4800EBC41050F83500401E994901EBB9
:102BD000C41141F835000121974800EB0412681C2C
:102BE00011540120944901EB041148551FE5C6BB5F
:102BF000904800EBC411681C01EBC000001D8D491A
:102C000001EBC412691C52F83110491E405C412886
:102C100010DB884800EBC411681C01EBC000001DEC
:102C2000844901EBC412691C52F83110491E405C02
:102C30005A2829DD7F4800EBC411681C01EBC00055
:102C4000001D7C4901EBC412691C52F83110491E69
:102C5000405C612826DB774800EBC411681C01E06A
:102C600016E21FE001EBC000001D724901EBC41227
:102C7000691C52F83110491E405C61386F4931F8C7
:102C8000200000F4004068B1681C81B200230222D9
:102C90002046FFF7C3FC0123022229462046FFF706
:102CA000BDFCC4E4012E49D1624800EBC411681C8C
:102CB00001EBC000001D5F4901EBC412691C52F812
:102CC0003110491E405C412810DB5A4800EBC4110A
:102CD000681C01EBC000001D564901EBC412691CC1
:102CE00052F83110491E405C5A2826DD514800EB4D
:102CF000C411681C01EBC000001D4E4901EBC41259
:102D0000691C52F83110491E405C612816DB4948A5
:102D100000EBC411681C01EBC000001D454901EB2C
:102D2000C412691C52F83110491E405C6138434995
:102D300031F8200000F4004000B178E43D4800EB99
:102D4000C411681C01EBC000007961280EDB394812
:102D500000EBC411681C01EBC000007961383749F1
:102D600051F8200000F4802000B160E4314800EB0D
:102D7000C411681C51F83000012861D12D4800EBC6
:102D8000C411681C01EBC0000079612858DB294898
:102D900000EBC411681C01EBC000007961382749C1
:102DA00011F8200000F00800A8B3224800EBC4107E
:102DB00000EBC500001D1F4901EBC41151F835108F
:102DC000491E405C61283BDB1A4800EBC41000EB55
:102DD000C500001D174901EBC41151F83510491EFB
:102DE000405C6138154951F8200000F0807090B1C6
:102DF000104800EBC41050F8350002280CD10D48E3
:102E000000EBC41050F83500401E0A4901EBC41114
:102E100041F8350007E013E05F20064901EBC411DB
:102E200001EBC50108710120034901EB041148556C
:102E300041E400001C010020DC0700209C08002069
:102E4000FE4800EBC411681C51F83000012844D141
:102E5000FA4800EBC411681C01EBC000007961283E
:102E60003BDBF64800EBC411681C01EBC0000079A5
:102E70006138F34951F8200000F4002068B3EF48AE
:102E800000EBC41050F8350002280BD1EB4800EBE2
:102E9000C41050F83500401EE84901EBC41141F858
:102EA000350006E05F20E54901EBC41101EBC501E7
:102EB00008715F21E14800EBC412681C02EBC000FE
:102EC00001710120DF4901EB041148550121DD4862
:102ED00000EB0412681C115448E4D84800EBC411FC
:102EE000681C51F83000012854D1D44800EBC411BB
:102EF000681C01EBC0000079612879DBCF4800EB4A
:102F0000C411681C01EBC00000796138CC4951F84C
:102F1000200000F48000E8B3C84800EBC41000EBC8
:102F2000C500001DC54901EBC41151F83510491EFB
:102F3000405C61285CDBC14800EBC41000EBC500BD
:102F4000001DBE4901EBC41151F83510491E405C0B
:102F50006138BB4951F8200000F08070D0B1B7480B
:102F600000EBC411681C51F83000401CB34901EB60
:102F7000C412691C42F83100B04800EBC41000EBE9
:102F8000C500001DAD4901EBC41151F83510491EB3
:102F9000415C00E02CE0A94800EBC412681C02EB85
:102FA000C0004171A54800EBC41050F8350002285C
:102FB0000BD1A24800EBC41050F83500401E9F49C9
:102FC00001EBC41141F8350006E05F209B4901EB9D
:102FD000C41101EBC501087101209A4901EB0411EC
:102FE00048550121974800EB0412681C115409E46C
:102FF000924800EBC411681C51F83000022800D13F
:1030000018E48E4800EBC411681C51F83000401CD5
:103010008A4901EBC412691C42F83100874800EB71
:10302000C41000EBC500001D844901EBC41151F828
:103030003510491E415C814800EBC412681C02EB4C
:10304000C00041717D4800EBC41050F835000228E3
:103050000BD17A4800EBC41050F83500401E774978
:1030600001EBC41141F8350006E05F20734901EB24
:10307000C41101EBC50108710120724901EB041173
:10308000485501216F4800EB0412681C115489E275
:10309000032F7CD10B2C00D12FE46849601C01EB7D
:1030A000C01000EBC50000795F2838D1084600EB5E
:1030B000C41000EBC500001D01EBC41151F8351020
:1030C000491E415C5D4A601C02EBC01000EBC5006C
:1030D0000171104600EBC41050F83500012807D1EB
:1030E0005F20114601EBC41101EBC50108710AE034
:1030F000524800EBC41050F83500401E4F4901EB18
:10310000C41141F8350001214E4A601C02EB001049
:1031100041550120114601EB041148553AE4BEBB6C
:103120004649601C01EBC01000EBC500001D0A46BB
:10313000611C02EBC11151F83510491E405C412859
:103140000FDB1146601C01EBC01000EBC500001D39
:10315000611C02EBC11151F83510491E405C5A2820
:1031600028DD3649601C01EBC01000EBC500001DD6
:103170000A46611C02EBC11151F83510491E405C32
:10318000612825DB1146601C01EBC01001E00AE25A
:103190001EE000EBC500001D611C02EBC11151F8DF
:1031A0003510491E405C6138254931F8200000F493
:1031B000004068B1611C88B2002303222946FFF752
:1031C0002DFA0123032229462046FFF727FA72E44D
:1031D000012E4ED11949601C01EBC01000EBC50057
:1031E000001D0A46611C02EBC11151F83510491E41
:1031F000405C41280FDB1146601C01EBC01000EB66
:10320000C500001D611C02EBC11151F83510491EAB
:10321000405C5A282CDD0949601C01EBC01000EB12
:10322000C500001D0A46611C02EBC11151F83510A2
:10323000491E405C61281CDB114605E01C01002092
:103240009C080020DC070020601C01EBC01000EB94
:10325000C500001D611C02EBC11151F83510491E5B
:10326000405C6138FE4931F8200000F4004000B1B4
:1032700021E4FC49601C01EBC01000EBC5000079A3
:1032800061280DDB601C01EBC01000EBC50000796C
:103290006138F34951F8200000F4802000B10AE4BD
:1032A000F049601C01EBC01050F83500012858D1DE
:1032B000601C01EBC01000EBC5000079612850DBF9
:1032C000601C01EBC01000EBC50000796138E449D7
:1032D00011F8200000F00800A8B3E24800EBC41089
:1032E00000EBC500001DDF4901EBC41151F835109A
:1032F000491E405C612834DBDA4800EBC41000EB67
:10330000C500001DD74901EBC41151F83510491E05
:10331000405C6138D24951F8200000F0807090B1D3
:10332000D04800EBC41050F8350002280CD1CD482D
:1033300000EBC41050F83500401ECA4901EBC4111F
:1033400041F8350007E00CE05F20C64901EBC411ED
:1033500001EBC50108710120C34901EB0411485577
:1033600044E4C049601C01EBC01050F8350001284E
:1033700042D1601C01EBC01000EBC5000079612850
:103380003ADB601C01EBC01000EBC500007961382E
:10339000B34951F8200000F4002068B3B14800EBB5
:1033A000C41050F8350002280BD1AE4800EBC41011
:1033B00050F83500401EAB4901EBC41141F835000F
:1033C00006E05F20A74901EBC41101EBC5010871BC
:1033D0005F21A44A601C02EBC01000EBC500017124
:1033E0000121A14A601C02EB001041550120114649
:1033F00001EB0411485554E49A49601C01EBC010DC
:1034000050F8350001287FD1601C01EBC01000EBA3
:10341000C5000079612877DB601C01EBC01000EB70
:10342000C500007961388E4951F8200000F4800011
:10343000F0B38C4800EBC41000EBC500001D8949B7
:1034400001EBC41151F83510491E405C61285BDB6B
:10345000844800EBC41000EBC500001D814901EB5E
:10346000C41151F83510491E405C61387C4951F84F
:10347000200000F08070D8B17A49601C01EBC010C8
:1034800050F83500401C0A46611C02EBC11141F89E
:103490003500104600EBC41000EBC500001D1146BE
:1034A00001EBC41151F83510491E415C601C00E06D
:1034B0002AE002EBC01000EBC5004171104600EBA2
:1034C000C41050F8350002280BD1104600EBC41090
:1034D00050F83500401E114601EBC41141F835008B
:1034E00006E05F205F4901EBC41101EBC5010871E3
:1034F00001215D4A601C02EB00104155012011467C
:1035000001EB0411485518E45649601C01EBC0104A
:1035100050F83500022800D10FE45249601C01EB3D
:10352000C01050F83500401C0A46611C02EBC11166
:1035300041F83500104600EBC41000EBC500001D3B
:10354000114601EBC41151F83510491E415C601C55
:1035500002EBC01000EBC5004171104600EBC41037
:1035600050F8350002280BD1104600EBC41050F87B
:103570003500401E114601EBC41141F8350006E04C
:103580005F20384901EBC41101EBC501087101212D
:10359000354A601C02EB001041550120114601EB39
:1035A000041148558FE2042FFCD104B940E4601E99
:1035B0002C4901EBC01000EBC50000795F2838D121
:1035C000084600EBC41000EBC500001D01EBC41160
:1035D00051F83510491E415C601E224A02EBC010B2
:1035E00000EBC5000171104600EBC41050F8350027
:1035F000012807D15F20114601EBC41101EBC50181
:1036000008710AE0174800EBC41050F83500401E5E
:10361000144901EBC41141F835000121601E124A22
:1036200002EB001041550120114601EB04114855F1
:1036300052E4EEBB601E0B4901EBC01000EBC5006D
:10364000001D611E074A02EBC11151F83510491ED9
:10365000405C412816DB601E114601EBC01005E0FE
:103660009C0800201C010020DC07002000EBC500A6
:10367000001D611E02EBC11151F83510491E405C5E
:103680005A2827DD601EFE4901EBC01000EBC50083
:10369000001D611EFA4A02EBC11151F83510491E96
:1036A000405C612824DB601E114601EBC01000E085
:1036B0001EE000EBC500001D611E02EBC11151F8B8
:1036C0003510491E405C6138EE4931F8200000F4A5
:1036D000004068B1611E88B2002304222946FEF72B
:1036E0009DFF0123042229462046FEF797FF7EE432
:1036F000012E47D1601EE24901EBC01000EBC5006E
:10370000001D611EDE4A02EBC11151F83510491E41
:10371000405C41280FDB601E114601EBC01000EB3E
:10372000C500001D611E02EBC11151F83510491E84
:10373000405C5A2825DD601ED14901EBC01000EB2A
:10374000C500001D611ECE4A02EBC11151F83510B3
:10375000491E405C612815DB601E114601EBC0105C
:1037600000EBC500001D611E02EBC11151F83510C0
:10377000491E405C6138C34931F8200000F4004024
:1037800000B134E4601EBE4901EBC01000EBC5007F
:10379000007961280DDB601E01EBC01000EBC50055
:1037A00000796138B74951F8200000F4802000B159
:1037B0001DE4601EB24901EBC01050F8350001282D
:1037C00058D1601E01EBC01000EBC50000796128E4
:1037D00050DB601E01EBC01000EBC50000796138C2
:1037E000A84911F8200000F00800A8B3A44800EB95
:1037F000C41000EBC500001DA14901EBC41151F834
:103800003510491E405C612834DB9D4800EBC41034
:1038100000EBC500001D9A4901EBC41151F83510A9
:10382000491E405C6138974951F8200000F08070D3
:1038300090B1934800EBC41050F8350002280CD129
:103840008F4800EBC41050F83500401E8C4901EB46
:10385000C41141F8350007E00CE05F20884901EB16
:10386000C41101EBC50108710120874901EB041166
:10387000485511E4601E824901EBC01050F8350034
:10388000012842D1601E01EBC01000EBC500007999
:1038900061283ADB601E01EBC01000EBC500007927
:1038A0006138784951F8200000F4002068B374486A
:1038B00000EBC41050F8350002280BD1704800EB23
:1038C000C41050F83500401E6D4901EBC41141F899
:1038D000350006E05F206A4901EBC41101EBC50128
:1038E00008715F21601E664A02EBC01000EBC50044
:1038F00001710121601E644A02EB00104155012054
:10390000114601EB0411485508E4601E5C4901EBC7
:10391000C01050F8350001287FD1601E01EBC010A7
:1039200000EBC5000079612877DB601E01EBC01059
:1039300000EBC50000796138524951F8200000F4CD
:103940008000E8B34E4800EBC41000EBC500001D3A
:103950004B4901EBC41151F83510491E405C6128F8
:103960005BDB474800EBC41000EBC500001D444979
:1039700001EBC41151F83510491E405C61384149D2
:1039800051F8200000F08070D0B1601E3C4901EB7E
:10399000C01050F83500401C611E394A02EBC111BD
:1039A00041F83500104600EBC41000EBC500001DC7
:1039B000114601EBC41151F83510491E415C00E07D
:1039C0002BE0601E02EBC01000EBC50041711046F9
:1039D00000EBC41050F8350002280BD1104600EB64
:1039E000C41050F83500401E114601EBC41141F8D7
:1039F000350006E05F20224901EBC41101EBC5014F
:103A000008710121601E204A02EB0010415501207F
:103A1000114601EB041148552AE4601E184901EBD8
:103A2000C01050F83500022800D121E4601E14496E
:103A300001EBC01050F83500401C611E104A02EB2B
:103A4000C11141F83500104600EBC41000EBC50071
:103A5000001D114601EBC41151F83510491E415C9F
:103A6000601E02EBC01000EBC5004171104600EB78
:103A7000C41050F83500022813D1104606E00000AB
:103A80001C0100209C080020DC07002000EBC41073
:103A900050F83500401E114601EBC41141F83500C5
:103AA00006E05F20094901EBC41101EBC501087173
:103AB0000121601E064A02EB00104155012011460B
:103AC00001EB0411485500BF4AE400001C0100202E
:103AD000DC0700202DE9F0439BB04FF000090024E3
:103AE0000CE0002506E000208F4901EB0411485549
:103AF000681C85B2102DF6DB601C84B20C2CF0DB48
:103B00008A48007810B91BB0BDE8F08300240DE0AE
:103B1000874850F8240000F0807028B1484609F129
:103B2000010901A941F82040601C84B21A2CEFDB86
:103B30000F2526E0002420E000261AE07D4800EB57
:103B4000C41000EBC500001D7A4901EBC41151F807
:103B50003510491E405C613801A951F82610884291
:103B600005D10023022229462046FEF757FD701C8E
:103B700086B24E45E2DB601C84B20C2CDCDB681E96
:103B800085B2102DD6DDFEF703FC00244DE00025A4
:103B900045E0AC4241D06848005D6138644951F865
:103BA00020006549495D613901228A401040A0B377
:103BB000002630E000272AE04FF000081EE05D48B4
:103BC00000EBC61000EBC700001D10F808005A49B2
:103BD000095D88420ED15848415D564800EBC61039
:103BE00000EBC700001D00F8081001204E4901EB52
:103BF0000611C85508F101001FFA80F84D4800EB86
:103C0000C61050F837004045D9DC781C87B2102F19
:103C1000D2DB701C86B20C2ECCDB681C85B2474808
:103C200000688542B5DB601C84B244480068844269
:103C3000ADDBFDF7E5FC00245AE0002554E03D48EB
:103C400000EBC41050F8350002281ED1394800EBB3
:103C5000C41000EBC50040796138354951F82000A7
:103C600000F0807088B1334800EBC41000EBC50051
:103C70000079613851F8200000F4800028B1052057
:103C80002A49087001202E4908702A4800EBC41008
:103C900050F83500022825D1264800EBC41000EB6F
:103CA000C50040796138224951F8200000F0807049
:103CB000C0B1204800EBC41000EBC50000796138AA
:103CC00011F8200000F0080060B11A4800EBC410A1
:103CD00050F83500401E174901EBC41141F835007A
:103CE000FDF78EFC681C85B2102DA8DB601C84B229
:103CF0000C2CA2DB002413E00D4850F8240000F443
:103D0000800058B10A4850F8240000F0807028B1B3
:103D1000052006490870012009490870601C84B21A
:103D20001A2CE9DB00BFEEE6DC07002009010020C9
:103D30009C0800201C010020E3000020EC00002073
:103D40000A0100202DE9F0439BB04FF00009002448
:103D50000CE0002506E000208F4901EB04114855D6
:103D6000681C85B2102DF6DB601C84B20C2CF0DBD5
:103D70008A48007810B91BB0BDE8F08300240DE03C
:103D8000874850F8240000F0807028B1484609F1B7
:103D9000010901A941F82040601C84B21A2CEFDB14
:103DA0000B2426E0002520E000261AE07D4800EBE9
:103DB000C41000EBC500001D7A4901EBC41151F895
:103DC0003510491E405C613801A951F8261088421F
:103DD00005D10023032229462046FEF71FFC701C54
:103DE00086B24E45E2DB681C85B2102DDCDB601E1E
:103DF00084B20C2CD6DDFEF7CBFA00244DE0002572
:103E000045E0AC4241D06848005D6138644951F8F2
:103E100020006549495D613901228A401040A0B304
:103E2000002630E000272AE04FF000081EE05D4841
:103E300000EBC61000EBC700001D10F808005A493F
:103E4000095D88420ED15848415D564800EBC610C6
:103E500000EBC700001D00F8081001204E4901EBDF
:103E60000611C85508F101001FFA80F84D4800EB13
:103E7000C61050F837004045D9DC781C87B2102FA7
:103E8000D2DB701C86B20C2ECCDB681C85B2474896
:103E900000688542B5DB601C84B2444800688442F7
:103EA000ADDBFDF7ADFB00245AE0002554E03D48B2
:103EB00000EBC41050F8350002281ED1394800EB41
:103EC000C41000EBC50040796138354951F8200035
:103ED00000F0807088B1334800EBC41000EBC500DF
:103EE0000079613851F8200000F4800028B10520E5
:103EF0002A49087001202E4908702A4800EBC41096
:103F000050F83500022825D1264800EBC41000EBFC
:103F1000C50040796138224951F8200000F08070D6
:103F2000C0B1204800EBC41000EBC5000079613837
:103F300011F8200000F0080060B11A4800EBC4102E
:103F400050F83500401E174901EBC41141F8350007
:103F5000FDF756FB681C85B2102DA8DB601C84B2EF
:103F60000C2CA2DB002413E00D4850F8240000F4D0
:103F7000800058B10A4850F8240000F0807028B141
:103F8000052006490870012009490870601C84B2A8
:103F90001A2CE9DB00BFEEE6DC0700200901002057
:103FA0009C0800201C010020E3000020EC00002001
:103FB0000A01002090EA010F48BF81F0004100F1A2
:103FC0002E82421A3CBF801A89184FEAD0524FF015
:103FD0007F4C1CEA410FA2EBD15318BF9CEA026F41
:103FE00000F03B804FF0004C4CEA00204CEA0121ED
:103FF00021FA03FC10EB0C0C1ED202F1FF325FEA37
:104000001C2040EBC25038BF70471CF07F0F4FEAB6
:10401000400C18BFBCF17F4F38BF7047C3F120037D
:10402000994008BF20F00100BCF17F4F38BF7047B6
:10403000A0F1C04000F0DDB94FEA3C00000A40EBBF
:10404000C25028BF1CF0FF0F4FEA400CE6D018BF4B
:10405000BCF17F4F38BF7047EAE79CEA026F05D09A
:1040600010EA5C0F08BF00F00040704710B500F088
:104070007AF900BF64FBBE3E4FF47F0C1CEAD012FD
:104080001EBF1CEAD11392EA0C0F93EA0C0F00F04A
:10409000858090EA010F48BF42F4807240F4000C22
:1040A00041F400002CF07F4120F07F4000B58142B8
:1040B000A2EB03020FF2081CACEB504EC0F1000063
:1040C0009EF800E04FEA4E0E00FB0EFC38BF4900A0
:1040D0004FEA2C1C02F5FA020CFB0EF34FEACE1E3F
:1040E0004FEA112C4FEAC1210EEB635E42EB2242F4
:1040F0000EFB0CFC4FEA1C5300FB03114FEA112C82
:104100004FEA01310EFB0CFC4FEADC4C00FB0C11BA
:10411000C14228BF09184CEB03335DF804EB10EBE8
:10412000410143EBC250B2F57C0F38BF704729D52F
:1041300012F0F00F1CBF00F1C04000F000407047CB
:10414000008182838485868788898B8C8D8E8F9170
:104150009293959697999A9C9D9FA0A2A3A5A7A894
:10416000AAACAEB0B2B3B5B7B9BCBEC0C2C5C7C9C0
:10417000CCCED1D4D7D9DCDFE2E6E9ECF0F3F7FA24
:10418000FE0000004FEA400C0CF1807CBCF17E4F39
:1041900028BF7047B0F1C04000F02BB990EA010F82
:1041A0000CEAD11348BF42F48072624538BF6345C0
:1041B00007D213F47F0F16D080EA010000F0004010
:1041C000704710B500F0CFF8097EFC3E00F005B84E
:1041D00080EA010000F00040704780EA010000F032
:1041E000004000F006B912F47F0F04BF0248704788
:1041F00080EA010000F0FDB80000C07FC10DD1F1E0
:104200009E0206DB4FEA002343F0004323FA02F04C
:104210007047004207D54FEA4001B1F1FE4F02D28C
:104220004FF00000704710B500F09DF849922480CF
:10423000002070476FEA200070470000B0FA80F35A
:1042400010FA03F2C3F19D030AD0D90501EB122045
:10425000530638BF704700F1010008BF20F001008D
:10426000704700004FF47F0C1CEAD0121EBF1CEAFE
:10427000D11392EA0C0F93EA0C0F00F0478090EAFA
:10428000010F48BF42F480724FF0004C4CEA00200E
:104290004CEA012102EB0302A0FB0113A2F500028C
:1042A000002918BF43F001035B0028BF4FEA330326
:1042B00042EB22425FEA132C4CEBC2502EBFBCEB08
:1042C000436FB2F57C0F70474FEA036CBCF1004FAF
:1042D00008BF20F00100B2F57C0F38BF70470BD546
:1042E00082F0FF0212F5803FC8BF704700F1C04066
:1042F000D8BF00F00040704700F5000C5FEA4C0C9E
:1043000048BF7047B0F1C04000F073B890EA010FA9
:104310000CEAD11348BF42F48072624538BF63454E
:1043200004D280EA010000F00040704710B500F0B0
:104330001AF800BF8900013E00F007B800F009B884
:104340005FEA410C5FEA1C6C08D080EA010000F0D3
:1043500050B85FEA400C5FEA1C6CF6D14FF00040A9
:10436000A0F5800070470EF1020E2EF0030E5EF8ED
:10437000044B244204D44FEA4102B2F17F4F11D8DA
:104380004FEA4003B3F17F4F0CD80ED14FEAD07CF7
:10439000B2F17F4F0CEB4C0C0CF1020C08BF4CEB54
:1043A000D17C04E04FF0080C01E04FEAD17C0CEB2B
:1043B0004C0324FA03F404F00704B4F1040C06D20D
:1043C0000EEB840CBDE810404CF0010C6047DFE8B8
:1043D0000CF0070802024FF00040A0F5800010BD6D
:1043E0000846420018BFD2F1807288BF00F000403A
:1043F00010BDFF2141EAD050C005704780F0004059
:1044000090EA010F7FF5DDAD81F0004100F007B8C3
:1044100090EA010F48BF81F000413FF5D2AD421A4A
:1044200004D882F00042A0EB020011444FEAD052BF
:104430004FF07F4C1CEA410FA2EBD15318BF9CEA0E
:10444000026F4AD04FF0004C4CEA00204CEA0121A8
:1044500021FA03FCB0EB0C0C0FD412F0FE0F36D097
:104460005FEA4C001DD5001240EBC25038BF7047C8
:104470001CF03F0F18BF70470BE0A2F101025FEA8A
:104480001C2040EBC25038BF70471CF07F0F18BF94
:104490007047C3F12003994014BF401E20F0010073
:1044A000704780084FEA122308BF7047B0FA80FCBB
:1044B000A2EB0C02CCF1280C60FA0CF093EA122F5C
:1044C00004BF00EBC25070474FEAC3707047130A35
:1044D0005FEADC1008BF7047F6E79CEA026F04D081
:1044E00010EA5C0F08BF0020704710B5FFF73BFFD4
:1044F00040DFF63E81F00040704700000000000001
:1045000000000000000000000000000000000000AB
:1045100000001FCC000C000000000000000008009C
:10452000300060000800300060000000022003FC42
:104530001E20022003FC1E200220000000000E1896
:1045400011043FFF10840C78000000000F0010845D
:104550000F3800C0077818840078000000780F84B6
:1045600010C411240E9800E40084000808006800BC
:1045700070000000000000000000000000000000CB
:10458000000007E01818200440020000000040026C
:104590002004181807E0000000000000024002405C
:1045A00001800FF001800240024000000080008086
:1045B00000800FF800800080008000000001000DE6
:1045C000000E00000000000000000000000000805D
:1045D0000080008000800080008000800000000CCF
:1045E000000C0000000000000000000000000006B9
:1045F000001800600180060018002000000007F08D
:10460000080810041004080807F00000000008045F
:1046100008041FFC000400040000000000000E0C51
:1046200010141024104411840E0C000000000C180B
:1046300010041104110412880C700000000000E046
:104640000320042408241FFC0024000000001F98FD
:10465000108411041104108810700000000007F08D
:1046600008881104110418880070000000001C0064
:10467000100010FC13001C001000000000000E3899
:1046800011441084108411440E380000000007000B
:10469000088C10441044088807F000000000000057
:1046A0000000030C030C00000000000000000000EC
:1046B0000001010600000000000000000000008072
:1046C000014002200410080810040000022002200B
:1046D000022002200220022002200000000010041C
:1046E00008080410022001400080000000000E00B5
:1046F0001200100C106C10800F00000003E00C186A
:1047000013E4142417C4082807D000000004003C58
:1047100003C41C40074000E4001C000410041FFCFC
:104720001104110411040E880070000003E00C183D
:1047300010041004100410081C10000010041FFCCA
:10474000100410041004080807F0000010041FFCF7
:104750001104110417C410040818000010041FFCF1
:104760001104110017C010000800000003E00C182D
:104770001004100410441C780040000010041FFCBA
:1047800010840080008010841FFC100400001004BE
:1047900010041FFC100410040000000000030001BE
:1047A000100110011FFE10001000000010041FFC7B
:1047B000110403801464181C1004000010041FFC72
:1047C0001004000400040004000C000010041FFC8E
:1047D0001F0000FC1F001FFC1004000010041FFC41
:1047E0000C04030000E010181FFC100007F008087C
:1047F000100410041004080807F0000010041FFC47
:1048000010841080108010800F00000007F008183E
:1048100010241024101C080A07F2000010041FFCCA
:104820001104110011C011300E0C000400000E1C08
:1048300011041084108410441C380000180010006B
:1048400010041FFC100410001800000010001FF8D6
:1048500010040004000410041FF8100010001E00D3
:1048600011E0001C007013801C0010001FC0103CE1
:1048700000E01F0000E0103C1FC000001004180CF6
:10488000163401C001C01634180C100410001C00AE
:10489000130400FC13041C00100000000804101C8A
:1048A0001064108413041C041018000000000000A1
:1048B00000007FFE40024002400200000000300085
:1048C0000C0003800060001C000300000000400298
:1048D000400240027FFE00000000000000000000D7
:1048E00020004000400040002000000000010001C6
:1048F0000001000100010001000100010000400072
:1049000040002000000000000000000000000098AF
:10491000012401440144014400FC000410001FFC78
:10492000008801040104008800700000000000708D
:1049300000880104010401040088000000000070E8
:1049400000880104010411081FFC0004000000F8A5
:10495000014401440144014400C800000000010476
:1049600001040FFC1104110411001800000000D60E
:1049700001290129012901C90106000010041FFCB9
:10498000008401000100010400FC00040000010497
:10499000190419FC000400040000000000000003DA
:1049A00000010101190119FE0000000010041FFCA4
:1049B0000024004001B4010C0104000000001004B8
:1049C00010041FFC0004000400000000010401FCAE
:1049D0000104010001FC0104010000FC010401FCD0
:1049E000008401000100010400FC0004000000F844
:1049F000010401040104010400F80000010101FFA9
:104A000000850104010400880070000000000070AF
:104A1000008801040104010501FF000101040104F3
:104A200001FC00840104010001800000000000CCB2
:104A30000124012401240124019800000000010048
:104A4000010007F80104010400000000010001F862
:104A5000000400040004010801FC000401000180BE
:104A60000170000C001001600180010001F0010CD8
:104A7000003001C00030010C01F001000000010411
:104A8000018C00740170018C01040000010101819E
:104A90000171000E00180160018001000000018416
:104AA000010C013401440184010C000000000000ED
:104AB0000000000001003EFC400240020000000037
:104AC00000000000FFFF00000000000000004002A6
:104AD00040023EFC010000000000000000006000F9
:104AE0008000800040004000200020000000040002
:104AF0002402240225F42554FD58255027F0255082
:104B0000FD50255825F42404040200000004040488
:104B100004080C30146027C0C400040007F0040827
:104B2000240814080C080608003800001040108003
:104B3000910073FF1500188200043FF82200220044
:104B4000220023FF42004600020000000000000097
:104B50000001F0003F9C03FFC03FF803FC01FFFC95
:104B60001FFFC0FFC003FC003FF03F9FC3FFDC0FEF
:104B7000FC0033C003FFC01FF800F000000000007D
:104B800000000000000000001FF803FFFE3FFFE7E9
:104B9000FFE679FE679FE07FFFE73FFE73FC63FF60
:104BA000863FF80000000000000000000000000048
:104BB0000000000006000060003E001FE07FEE7F66
:104BC000F0E7FC0E67C047F8007FC007FC007FC01D
:104BD00003FE003FE001FC003FC003F8007E00023E
:104BE0000000701B2FE1801F9FE1E3FEBE3001FB40
:104BF000002FB2AFF3FEF03E601B6607B063F30018
:104C0000FE3FEFDBFEFC3783FB7C0FBFE01BEE209B
:104C10001421001003DA01EEF81DDF80FFFE7FECA7
:104C2000EE0FF3FFDDE7FFDFFF7CF9F87C7CDEFFB2
:104C30003DFBFBF75FC7CF39FEF7FFCE6EF787FF6F
:104C40007E3CEFC079C80000103C0E7FC3EFFC78BB
:104C5000FC3F8EC3F8FC3F8CC0FC4001E0000F3FDE
:104C600087C7FDFC73FDE01F3F01F3701F3F01FF8D
:104C7000C0093C00000000003C3F87C07EFFE1EF20
:104C8000FE3FFFC7FFFC1FFFE1FFF83FF83FFFFFBC
:104C9000FFFE01FFE01FFFA3FFE01FFF1FFFF8FF64
:104CA000FFC3F7F03F7CFFF3FFFC01F8007FF03F0C
:104CB000FF83FFFE7FFFE3FFFE3FFFE7FFFE7FFF77
:104CC000FFFFFFFFFFFFFFFE7FFFE7FFFE3FFFE36A
:104CD000FFFE3FFFE3FFFE1FFFC07B803FFF8FEF24
:104CE000C6CF7BB87B7BB7B79BBB7DBC73DBFF8339
:104CF000FFFFFFFFFFEFFFFEFE01DFECFDFECFC079
:104D00002CFDFEDFDFF1F3FFFF7FFFF3FFFC000070
:104D10000FFDFFFFDFFFFFFFCCFF3DDDFBFFDDF7FA
:104D2000781E0300C0000003C2E3FCFFFF1FCFE3B7
:104D3000F8FE3F83F1FC0F83F0380E000000000006
:104D400039FF8FE7FEFFBFEFF83FFFBFFFF3FFF82C
:104D5000FFFFF87FFF1BFFF7DFFF39FFF03FFF9FEB
:104D6000FFE0FFFFE3FFFF3FFFF3F7FE7F7E0FF360
:104D7000FFFC000000000000000000600606006369
:104D8000E007FE007C60060000018003DC007EE09E
:104D900006F60063E0073E003180000000000000DE
:104DA000000000003FFF8FFFFEFFE00C723FC339A1
:104DB000F9BB87BBBE7B93E39C601DFFFFFFFFFF3A
:104DC000FFFFBFA019F38F8078FBF7073F6337FE23
:104DD000797FFFF3FFFC3FFF8FF7F8F0FFC83F3DFF
:104DE000F3CDDB3CC1B3DE3C7FFFFFFFFFFFFF8065
:104DF000E01FE7CFFF7CFFF7DFFF7DFF87DF81C08C
:104E000017FFFF7FFFF3FFFC1F03F7F8FEFFDFCF65
:104E10001FF0C7FF8CFCFECFC3EC78E7031F7003C5
:104E2000FFFFFBEFFF9EDF187FF0E7FF9F7FFDFF97
:104E300031DFF10DFF000CC0000000C6003FF0079D
:104E4000FF81FFFC3FFFC7FFFE7FFFEFFFFEFFFF7D
:104E5000E7FFFF7FFFFFFFFFFFFFFFFFFE7FFFE397
:104E6000FFFE3FFFC1FFFC07FF800200300007F894
:104E7000787F8FC6F9FE6F1C67F1C6739C7039C6C8
:104E800001806000001E1F03F9FF7F87E71878711B
:104E90008FC7B9CE7F9CF3F18E0000600000000048
:104EA000003DAC01DFE00DFE03C067F8067F006344
:104EB000FC067FC027ED8066DC060CE060CFE00CCE
:104EC0007E7FCE07FDC000D8000D0000C0000000AE
:104ED00000000070000F0001F8003F83E3FFBE7F79
:104EE000FF63F9F07384063FBC71FFE719F67F8E0C
:104EF00003FC787FFFC3FFEE1F9860F800020000FC
:104F0000000000000000081C83E3E87C3EDF83EF24
:104F1000F836DFC37C7E03C0E200002000E381FEA0
:104F20003FDFC3FFB0301F8301EE200C60000200A2
:104F30000000000001C0001E0F01E1E03F7E03FF02
:104F4000C03FFC07FF81FFF87FFF07FFF0FFFF076F
:104F5000FFF01FFF807FFC03FFE03FFE03F3F03E06
:104F60000F03806000003FFF8FF103C0349DF94DB7
:104F7000CF97DE037DFFFFFFFFFFFF1F9C01C3C133
:104F8000917DDB17DF987DFFE1FE3FFE037FC9F7D0
:104F9000F5BF015BF7F3FE7C000000000C0000E0B1
:104FA000003E003FE03FFE7FF0EFFC0E7FE003FCA1
:104FB000003F8007F8007F8007FC003FC003FE0031
:104FC0003FE001FE001F00000000000000000400A0
:104FD00000E0000E001FE01FFE7FFCEFF80E7FC018
:104FE00063FC003FE003FE001FC001FC003F8007A0
:104FF000F8007FC007FC007C0000000000000000FB
:105000000001F0003FDC03FFC07FF803FC01FFFC60
:105010001FFFC0FFE803FC003FF03F9FC3FFFC0FF2
:10502000FE0037F803FFC01FFC01F800000000007D
:1050300000000000E0003F8007FFC07FFC07FDC0CC
:105040003FFC1FFFC1FFE00FFC003FFC039FC1FFBF
:10505000FC1F7C0037F803FFC01FDC0000000000CD
:10506000000000000001F0003F9C03FFC07FF0073C
:10507000FFC03FFC3FFFC3FFE00FFE003FF01FDF1C
:10508000E1FFFE0FFEC03BE003FFC01FFC007C0001
:1050900000000000FFFF000000FC000031F70000EE
:1050A000FA64000088AD000031F7000031F700001D
:1050B000FA640000E44A0000CDD90000CDD9000018
:1050C000FFFF0000FA6400004893000088AD000074
:1050D0004893000048930000FA640000FA6400005E
:1050E00031F70000CAEC00004481000031F70000F5
:1050F00031F70000FFFF0000FFFF0000FFFF00008E
:10510000FFFFFFFF09000000FFFFFFFF1500000089
:10511000FFFFFFFF050000000E000000FFFFFFFF84
:105120000B00000011000000FFFFFFFFFFFFFFFF6B
:10513000FFFFFFFFFFFFFFFFFFFFFFFF0D0000006E
:105140001300000010000000080000000C00000028
:10515000FFFFFFFF0300000006000000FFFFFFFF4E
:105160000A000000FFFFFFFFFFFFFFFFFFFFFFFF41
:10517000FFFFFFFFFFFFFFFFFFFFFFFFFFFFFFFF3F
:10518000FFFFFFFF00000000FFFFFFFFFFFFFFFF2B
:10519000FFFFFFFF0200000004000000FFFFFFFF11
:1051A000FFFFFFFF12000000FFFFFFFFFFFFFFFFF9
:1051B000FFFFFFFFFFFFFFFFFFFFFFFFFFFFFFFFFF
:1051C000140000000F000000FFFFFFFFFFFFFFFFC4
:1051D000FFFFFFFF07000000FFFFFFFFFFFFFFFFD4
:1051E000FFFFFFFFFFFFFFFFFFFFFFFFFFFFFFFFCF
:1051F000FFFFFFFFFFFFFFFF5F5F5F5F5F5F5F5FBF
:105200005F5F5F5F5F514944000000005F5F5F5F69
:105210005F5F5F5F5F5F4A49505F5F5F0000000054
:105220005F5F5F5F5F5F5F4649575F5F5F5F5F5FC5
:10523000000000005F5F5F5F5F5F5F4249595F5F33
:105240005F5F5F5F000000004649575F5F5F5F5F21
:105250005F5F5F5F5F5F5F5F000000005F5F5F5FDA
:105260005F5F5F5F5F5F5F5F5F5F5F5F00000000CA
:105270005F5F6A5F5F5F5F5F5F5F5F5F5F5F5F5F33
:10528000000000005F5F5F5F625F5F5F5F5F5F5FA7
:105290005F5F5F5F000000005F5F5F676767676772
:1052A00067675F5F5F5F5F5F000000005F5F5F5F7A
:1052B0005F5F6A5F5F5F5F6A5F5F5F5F0000000064
:1052C0005F5F5F5F5F5F5F6A5F5F5F6A5F5F5F5FD8
:1052D000000000005F5F5F5F5F5F5F5F5F5F5F5F5A
:1052E000665F5F5F000000005F5F4249595F5F5F7C
:1052F0005F5F5F5F6A5F5F5F000000006767675F17
:105300005F5F49675F5F5F5F5F675F5F000000002F
:105310004949675F5F5F5F675F5F5F5F5F675F5FB1
:10532000000000005F5F5F5F5F5F54675F5F5F72F9
:105330005F675F5F000000005953675F5F5F5667FC
:105340005F625F725F675F5F000000004247675FF8
:105350005F5F5F676767676767675F5F00000000A1
:1053600047675F5F5F675F5F5F715F5F5F715F5F31
:105370000000000053675F5F5F675F5F5F715F5FA3
:105380005F715F5F0000000049675F625F6A5F5F97
:105390005F715F665F715F5F000000005F67676756
:1053A00067675F5F5F71717171715F5F000000001F
:1053B0005F5F5F677676765F5F5F5249505F675FDA
:1053C000000000005F5F5F676676765F5F5F46495B
:1053D000575F675F000000005F5F5F675F5F5F5F51
:1053E0005F5F5F5F5F5F675F000000005F5F5F6739
:1053F0007676765F5F5F5F5F5F5F675F00000000EC
:105400005F5F5F6767676767676767676767675F4C
:10541000000000005F5F5F67676767677676767694
:105420007667675F000000005F5F4249595F5F5F1A
:10543000675F5F6749496767000000005F5F5F5F04
:105440005F5F5F5F675F5F674457676700000000EB
:105450005F5F5F625F5F5F5F715F5F4A465F676765
:10546000000000005F5F5F5F6A6A665F675F5149C7
:10547000505F6767000000005F5F5F5F675F5F5FAF
:10548000675F5F5F5F5F67670000000047495367C2
:10549000675F5F5F675F5F5F5F5F67670000000078
:1054A0005F5F5F5F67676767675F5F6767676767BC
:1054B000000000005F5F5F5F5F5F5F5F6767676758
:1054C0006767676700000000676767676767676708
:1054D000676767676767676700000000FC5400083C
:1054E000000000201C0100006C0100081856000894
:1054F0001C0100204C0E0000880100085C520008CE
:10550000205200085C5200085C5200083452000827
:105510005C520008D45200085C5200088452000813
:105520005C520008985200085C5200084C53000876
:105530001053000838530008FC5200082453000898
:1055400014540008D8530008B0530008EC53000866
:10555000C4530008005400085C5200084852000878
:105560000C520008C05200089C5300086053000809
:1055700088530008745300089C53000870520008B8
:10558000AC520008E8520008F8510008C85400085E
:10559000C8540008B45400085054000828540008A7
:1055A0003C540008A05400087854000864540008D3
:1055B0008C540008C8540008C854000800000000BB
:1055C0000200000016000000170000001800000094
:1055D000190000001A000000000000000000006236
:1055E000666776726A710000070000005374657088
:1055F000733A0000000054696D653A000000000035
:105600000000000000000100000000000000000099
:08561000000000000000000092
:04000005080001D519
:00000001FF
