:020000040800F2
:10000000A00F002015020008F50E0008C505000825
:10001000F10E0008130500086D1400080000000030
:10002000000000000000000000000000F90E0008C1
:100030001705000800000000F70E000895100008E2
:100040002F0200082F0200082F0200082F020008CC
:100050002F0200082F020008310500082F020008B7
:10006000AD0500082F0200082F0200082F0200082B
:100070002F0200082F0200082F0200082F0200089C
:100080002F0200082F0200082F0200082F0200088C
:100090002F0200082F0200082F0200082F0200087C
:1000A0002F0200082F0200082F0200082F0200086C
:1000B0002F0200084D110008C11100082F0200088E
:1000C0002F0200082F0200082F0200082F0200084C
:1000D0002F020008F91300082F0200082F02000861
:1000E000450500082F0200082F0200082F02000813
:1000F0002F0200082F0200082F0200082F0200081C
:100100002F0200082F0200082F0200082F0200080B
:100110002F0200082F0200082F0200082F020008FB
:100120002F0200082F0200082F0200082F020008EB
:1001300000F002F800F05FF80AA090E8000C82449A
:100140008344AAF10107DA4501D100F054F8AFF277
:10015000090EBAE80F0013F0010F18BFFB1A43F0A5
:100160000103184708600000286000000A444FF0AF
:10017000000C10F8013B13F0070408BF10F8014B06
:100180001D1108BF10F8015B641E05D010F8016B4B
:10019000641E01F8016BF9D113F0080F1EBF10F8AF
:1001A000014BAD1C0C1B09D16D1E58BF01F801CBD2
:1001B000FAD505E014F8016B01F8016B6D1EF9D555
:1001C0009142D6D37047000000230024002500266A
:1001D000103A28BF78C1FBD8520728BF30C148BFAA
:1001E0000B607047642900F07D80002070471FB5C8
:1001F0001FBD10B510BD00F056F91146FFF7F7FF0F
:1002000001F0C2FF00F074F903B4FFF7F2FF03BC82
:1002100000F078F90948804709480047FEE7FEE703
:10022000FEE7FEE7FEE7FEE7FEE7FEE7FEE7FEE7A6
:1002300004480549054A064B70470000ED100008C8
:1002400031010008A0090020A00F0020A00B002011
:10025000A00B00200FB41CB5074B06AA7B446946CF
:100260000090059800F007F90020694600F016F9A3
:100270001CBC5DF814FB00003D0200002DE9F041BC
:100280000E460446002020622046E168884730B3CD
:10029000252805D0D4E901219047206A401CF2E7C7
:1002A000E168204600278847050018D0A5F14100E5
:1002B000192802D820354FF40067324629462046D7
:1002C0002760FFF78FFF40B1012804D0F61D26F00C
:1002D00007060836D8E7361DD6E72846DAE7206A4B
:1002E000BDE8F0812DE9F04106460024106875292B
:1002F000314616A510D0AFF30080002802DA404244
:1003000013A507E031688A0701D512A502E0490765
:1003100004D511A5012401E0AFF3008000210A22D9
:1003200006F1240709E0B0FBF2FCB0FBF2F302FB9C
:100330001C00303078541846491C0028F3D123465D
:100340002A463046BDE8F04100F036B80000000013
:100350002D0000002B0000002000000010B5431C01
:1003600002E010F8011B71B18107FAD14FF00132A0
:1003700002C88C1A8C4314EAC211F9D0C01A0A06BA
:1003800003D0C01E10BDC01A10BD0A0401D0801ECB
:1003900010BD0902FCD0401E10BD421E12F8013FE4
:1003A000002BFBD111F8013B002B02F8013BF9D1E6
:1003B00070477047704770472DE9F0470D469946E2
:1003C0009246044600F124080168880604D5E069D5
:1003D00021F01001216000E00120A84201DD471B4F
:1003E00000E00027A1697A1902EB0900081AA06150
:1003F0002078C00602D42046AFF30080002608E033
:10040000D4E901211AF806009047206A401C761CA6
:1004100020624E45F4DB2078C0060AD52046AFF3B3
:10042000008006E0D4E9012130209047206A401C7A
:100430002062381EA7F10107F4DC07E0D4E90121AE
:1004400018F805009047206A401C2062281EA5F17C
:100450000105F3DC2046AFF300802078000602D5CA
:100460000220BDE8F0870120FBE7000001694A1C7B
:1004700002610878704700B58FB0CDE901310021E5
:10048000059105497944CDE9031011466846FFF707
:10049000F5FE0FB000BD0000E5FFFFFF0A6802F89F
:1004A000010B0A607047754600F028F8AE4605005B
:1004B0006946534620F00700854618B020B5FFF77F
:1004C000B7FEBDE820404FF000064FF000074FF0A8
:1004D00000084FF0000B21F00701AC46ACE8C00962
:1004E000ACE8C009ACE8C009ACE8C0098D4670476B
:1004F0000446AFF300802046FFF786FE00487047B1
:100500003C09002001491820ABBEFEE7260002008E
:10051000704700BFFEE77047002100E0491C8142A0
:10052000FCD37047002100E0491C8142FCD3704796
:100530000120024908700249086070473A01002012
:100540001404014010B515488468154800680B284C
:1005500007D10A20FFF7E0FF4FF40060114908605F
:1005600010BD04F4806050B10D480068C0F10A016C
:10057000012088400C49096808430B490860084875
:100580000068401C064908603220FFF7C5FF4FF4A1
:1005900000600449086000BFE2E70000001001406D
:1005A00040010020140401403C01002007200349C1
:1005B00008700420024908607047000039010020DB
:1005C0001404014000BFFEE72048806940F010009D
:1005D0001E4988611E48406820F47F401C494860DD
:1005E0000846406840F4084048600846C06840F447
:1005F0000060C8601548806940F0010013498861B7
:100600001448006920F4704112480161006940F407
:100610000051104801611048006840F400600E4924
:1006200008600D480C30006840F400600A490C3145
:1006300008606521094801700948006840F480702D
:100640004FF0E021C1F804017047000000100240A3
:1006500000100140000001400004014028E400E0D7
:1006600004E100E01048806940F008000E4988610C
:100670000846806940F0400088610C48006820F41A
:1006800070000A4908600846006840F4401008609D
:100690000748006820F470000549086008460068B3
:1006A00040F440100860704700100240000C014008
:1006B00000180140014601F007021202054B1868BC
:1006C0004FF6FF031840044B18431043014B1860CA
:1006D000704700000CED00E00000FA0500204FF02C
:1006E000E0210861034848610846006940F00300C2
:1006F00008617047FF340C0010B503460C462A20F1
:1007000000F014FA181200F00BFAD8B200F008FA50
:10071000591C081200F004FA591CC8B200F000FA83
:100720002B2000F003FA201200F0FAF9E0B200F0FA
:10073000F7F9611C081200F0F3F9611CC8B200F06F
:10074000EFF92C2000F0F2F9104600F0E9F910BDA5
:10075000F0B507460C46059D00262A2000F0E6F974
:10076000201200F0DDF9E0B200F0DAF91119491EAB
:10077000C1F30F2000F0D4F91119491EC8B200F0DE
:10078000CFF92B2000F0D2F9181200F0C9F9D8B235
:1007900000F0C6F9E918491EC1F30F2000F0C0F9B6
:1007A000E918491EC8B200F0BBF92C2000F0BEF9D0
:1007B00000BF03E0384600F0B3F9761C02FB05F0F9
:1007C000B042F7D8F0BD000000B55948406940F488
:1007D0008070574948610846806940F00800886188
:1007E0000846806940F0200088610846806940F032
:1007F000400088610846806940F4807088614D48F7
:10080000006820F00F004B4908600846006840F07F
:1008100003000860484800684849084046490860A5
:10082000084600684649084343490860081F0068B5
:1008300000F0FF20091F08600846006840F0BB1068
:1008400008604048006800203E490860084600688B
:1008500040F0BB300860081F006820F07040091F9E
:1008600008600846006840F030400860364840683C
:1008700020F47020344948600846406840F4302035
:1008800048600846006820F00F00086008460068CD
:1008900040F00B00086000204FF020418861C861E3
:1008A0002A4908604FF02040806940F480504FF0A2
:1008B000204188610846806940F48040886108468C
:1008C000806940F0100088610846C069C861084628
:1008D000C06940F00100C8610846C06940F470601A
:1008E000C8611A480068C1F81C0118480068C1F8BE
:1008F0001C010846D0F81C0140F44070C1F81C01EE
:100900000846806940F00100886100F03EF809481F
:10091000006820F00F00074908600846006840F0B2
:1009200003000860012003491031086000BD000089
:1009300000100240000C01400414014000F0FF00D0
:10094000BB0B00BB04180140002001401C0100A0AB
:100950002DE9F04106460F461546984600240DE065
:100960002A5D06EBC40188B24346394600F02EF8F2
:1009700042F21070FFF7D6FD601CC4B22846FFF7A4
:10098000EDFCA042ECD8BDE8F08100B5012000F0FC
:10099000CDF8112000F0CAF83A2000F0C7F8552031
:1009A00000F0BEF8292000F0C1F8362000F0BEF8B3
:1009B000AA2000F0B5F80B2000F0B8F8202000F0D5
:1009C000AFF8202000F0ACF800BD00002DE9FF4F8B
:1009D00082B006468B461446102508200190B24688
:1009E000CDF800B0202C01DB7F2C02DD06B0BDE885
:1009F000F08FA4F12000C4B2002736E04FF00009C8
:100A00002CE04FF0000822E01C4800EB041001210C
:100A100001EB4801C91B405C40FA09F000F00100FD
:100A200020B15046059A0099FFF766FE0AF10100D1
:100A30001FFA80FA01983044504504DCB246009811
:100A4000401C80B2009008F1010000F0FF080198FE
:100A50008045D9DB09F1010000F0FF0905EBD571F4
:100A6000B9EB610FCDDB781CC7B2E91705EB51710B
:100A7000B7EBE10FC2DB00BFB8E70000A44F0008EE
:100A80002DE9F84F82460C4615464FF01408142005
:100A90000090D34604EB0800401E1FFA80F9642D35
:100AA00001DDBDE8F88F00262BE0082725E005EBE7
:100AB000C50000EB0510184901EB4000805D791E70
:100AC000084100F0010038B1144830F8250082B226
:100AD00049465846FFF710FEA9F101001FFA80F9B8
:100AE000A14508DA04EB0800401E1FFA80F90BF15B
:100AF00001001FFA80FB781EC7B2002FD7DC701CE4
:100B0000C6B2009908FB01F0C11700EB5171B6EBBA
:100B1000E10FCADB00BFC4E7F4550008345C0008ED
:100B200001490880704700000008006C01490880F6
:100B300070470000FE07006C124AD26942F00202C0
:100B4000104BDA61104A1080121F11800E4A203AB1
:100B5000128842F001020C4B203B1A800A4A2C3AC0
:100B6000128842F00102084B2C3B1A804523074AA9
:100B70001370074A126842F000524FF0E023C3F8A6
:100B800000217047001002402C0400401DE400E0EA
:100B900000E100E02448806940F0080022498861B3
:100BA0002248006820F0F0002049086008460068EC
:100BB00040F01000086002201C49143108601B48F6
:100BC000001D006820F470201849091D08600846BF
:100BD000006840F4803008608814144910310860BF
:100BE0001148806940F080000F4988611048006812
:100BF0006FF30B000E4908600846006840F00800DB
:100C000008600846006840F0100008600846006868
:100C100040F400600860881505490C310860400008
:100C2000086040000860704700100240000C01405E
:100C3000041C01402DE9F05F05460E46300104F02A
:100C400051F881462D4905FB01F004F04BF882462E
:100C5000494603F065FF0746384604F023F884B29E
:100C6000204604F03FF88346394604F01BF98246DB
:100C70004FF0834104F04AF8814604F013F88046AF
:100C80004FF6FF7000EA041404EB080084B21C481D
:100C9000806940F004001A4988610846806940F480
:100CA000804088611748006820F47F60154908601B
:100CB0000846006840F40B6008601148C06840F4C2
:100CC00080400F49C8600846C06820F48040C86072
:100CD0000D4804800D48006840F020004FF0E021EE
:100CE000C1F804010848001D008842F22C010843A5
:100CF0000549091D0880BDE8F09F000040420F0033
:100D000000100240040801400838014004E100E0FE
:100D100007210020234A5268234B1A40214B5A6076
:100D20001A461268214B1A401E4B1A601A46126866
:100D300042F480321A6000BF1A4A1268520C002A2C
:100D4000FAD04FF48062174B5A601A46526842EA52
:100D500081425A601A46526842F480325A60144AFC
:100D6000126842F03202124B1A600E4A126842F0C8
:100D700080720C4B1A6000BF0A4A1268520E002A99
:100D8000FAD0084A526842F00202064B5A6005E067
:100D9000044A5268C2F3870000F003000228F7D12A
:100DA00070470000001002400000FFF8FFFFF6FE51
:100DB000002002402148806940F040001F498861BE
:100DC0001F48006820F470601D49086008460068EC
:100DD00040F4006008601A480C30006840F00400DD
:100DE00017490C3108601548806940F0010013492B
:100DF00088611448806820F4706012498860084651
:100E0000806840F4806088600F48006840F004000B
:100E10000D4908600C480C30006840F004000A4995
:100E20000C3108606521094801700948006840F4E8
:100E300080704FF0E021C1F80001704700100240BF
:100E400000180140000001400004014008E400E0F7
:100E500000E100E02048806940F004001E498861FC
:100E60001E48006820F00F001C4908600846006812
:100E700040F00800086019480C30006820F00100BC
:100E800016490C3108601448806940F0010012498D
:100E900088611348806820F00F0011498860084677
:100EA000806888600F48006840F001000D490860C4
:100EB0000C480C30006840F001000A490C31086011
:100EC0003521094801700948006840F040004FF0A2
:100ED000E021C1F800017047001002400008014005
:100EE000000001400004014006E400E000E100E0F1
:100EF00000BFFEE7704770477047000010B501243F
:100F000020480078012800D102241F480078F128E9
:100F100006D0F22810D0F3281AD0F42830D123E0DC
:100F2000204600F0A3FC19480068401C17490860DF
:100F30001748FFF7F1FA23E0204600F0A3FE13481C
:100F40000068401C114908601148FFF7E5FA17E0F6
:100F5000204603F06BF90D480068401C0B490860FF
:100F60000B48FFF7D9FA0BE0204603F06BFB07486C
:100F70000068401C054908600548FFF7CDFA00BF2E
:100F800000BF10BD49010020450100204C01002098
:100F9000A08601002020014908607047100C014024
:100FA00020200149086070471018014010B500F07A
:100FB00001F810BD0CB50020019000903348006886
:100FC00040F480303149086000BF3048006800F4C8
:100FD000003000900198401C0190009818B90198C9
:100FE000B0F5A06FF1D12948006800F4003010B1CD
:100FF0000120009001E0002000900098012843D1DA
:101000002348006840F01000214908600846006845
:1010100020F0030008600846006840F00200086005
:101020001A484068194948600846406848600846C0
:10103000406840F4806048600846406820F47C10B6
:1010400048600846406840F4E81048600846006878
:1010500040F08070086000BF0C48006800F000702D
:101060000028F9D00948406820F00300074948608B
:101070000846406840F00200486000BF03484068EE
:1010800000F00C000828F9D10CBD0000001002404F
:10109000002002400F480078401C0E4908700E489E
:1010A000007820B900200D4908600D490860094802
:1010B00000780A280CD100200649087009480088E9
:1010C000401C0849088008480078401C0649087000
:1010D00070470000F0000020380100203C01002093
:1010E000400100200E0100201201002010B513481D
:1010F000006840F001001149086008464068104946
:1011000008400E494860084600680E4908400B49EF
:1011100008600846006820F480200860084640689F
:1011200020F4FE0048604FF41F008860FFF73EFF88
:101130004FF000600449086010BD0000001002403C
:101140000000FFF8FFFFF6FE08ED00E010B51648BE
:10115000008800F00100F8B114480078E0B11348AD
:101160000078062818D011480078072814D01048B5
:10117000007888B10F48007870B90F480078401C9B
:10118000032190FBF1F201FB12000B4908700B48A0
:10119000007808B900F06CF90348008820F00100DD
:1011A0000149088010BD00001004004039010020F2
:1011B0004801002046010020110100200C01002000
:1011C0000848008800F0010028B10748006880F056
:1011D0002000054908600348008820F0010001490B
:1011E00008807047100800400C180140012803D106
:1011F0000103044A116004E04FF48051014A121DBA
:1012000011607047100C0140012803D14102044ACB
:10121000116004E04FF40071014A121D1160704723
:10122000101C014010B5044600230020FFF7DEFF2C
:101230000120FFF7E9FF00F0D7F86A48006800F4E2
:10124000806008B942F21073E21704EB92729010BA
:1012500000EBD0725210A0EB4202012A03D1012010
:10126000FFF7D2FF02E00020FFF7CEFF00F0BCF84E
:1012700004EBD472501000EBD0725210A0EB42027B
:10128000012A03D10120FFF7BFFF02E00020FFF792
:10129000BBFF00F0A9F8204604EBD0714910A4EB85
:1012A0004101012903D10120FFF7AEFF02E0002038
:1012B000FFF7AAFF00F098F80120FFF7A5FF00F064
:1012C00093F80120FFF7A0FF00F08EF80020FFF751
:1012D0009BFF00F089F80020FFF796FF00F084F8EC
:1012E0004048006800F4807010B103F5006083B2DC
:1012F00000F07AF83B48006800F4807010B103F504
:10130000806083B200F070F83648006800F48070A6
:1013100010B103F5007083B200F066F83148006840
:1013200000F4807010B103F5807083B200F05CF8B7
:101330002C48006800F4807010B103F1800083B283
:1013400000F052F82748006800F4807010B103F1F3
:10135000400083B200F048F82248006800F4807032
:1013600010B103F1200083B200F03EF81D48006880
:1013700000F4807010B103F1100083B200F034F873
:101380001848006800F4807010B103F1080083B2BF
:1013900000F02AF81348006800F4807008B1181DA6
:1013A00083B200F021F80F48006800F4807008B1A3
:1013B000981C83B200F018F80A48006800F48070A6
:1013C00008B1581C83B200F00FF800F00DF800F0DF
:1013D0000BF800F009F800F007F80120FFF706FF0E
:1013E000184610BD081C0140022002490860091D72
:1013F00008607047100C014010B51048008800F0DC
:101400002000C8B10D48001D00880D49087001205A
:101410000C4908700C480078052801D1FFF76EFDD3
:101420000020084908700120084908700348008816
:1014300020F020000149088010BD00000038014064
:10144000450100204601002039010020470100200D
:101450008021054A108000BF034A121F12880A40EB
:10146000002AF9D0704700000438014000BFFEE7B1
:101470002DE9F843002504E10024FDE00026F1E019
:10148000824800EBC51000EBC400001D805D66289B
:101490006ED10B2D01D1012004E0C5F10B0000EB52
:1014A0008000800087B2012F01D1132000E01420BA
:1014B0008046764800EBC51050F83400022842D12F
:1014C00004EB840081003B4614220020CDF800800C
:1014D000FFF73EF9DEB96E496E4B1B7811F82320F9
:1014E00004EB840188003946FFF7CAFA674901EB2B
:1014F000C51101EBC40149794139674B13F821202B
:1015000004EB840188003946FFF7BAFA30E05F49FE
:1015100001EBC51101EBC401097941395E4B13F8A8
:10152000212004EB840188003946FFF7A9FA5849C5
:10153000584B1B7811F8232004EB840188003946AE
:10154000FFF79EFA14E004EB840081003B4614226E
:101550000020CDF80080FFF7FBF84D494D4B1B787C
:1015600011F8232004EB840188003946FFF788FA3C
:10157000464800EBC51000EBC400001D805D6228EA
:101580006ED10B2D01D1012004E0C5F10B0000EB61
:101590008000800087B2012F01D1132000E01420C9
:1015A00080463A4800EBC51050F83400022842D17A
:1015B00004EB840081003B4614220020CDF800801B
:1015C000FFF7C6F8DEB93549324B1B7811F82320F6
:1015D00004EB840188003946FFF752FA2B4901EBEE
:1015E000C51101EBC401497941392B4B13F8212076
:1015F00004EB840188003946FFF742FA30E02349C2
:1016000001EBC51101EBC40109794139224B13F8F3
:10161000212004EB840188003946FFF731FA1F4985
:101620001C4B1B7811F8232004EB840188003946F9
:10163000FFF726FA14E004EB840081003B461422F5
:101640000020CDF80080FFF783F81449114B1B7878
:1016500011F8232004EB840188003946FFF710FAC3
:10166000701CC6B2094800EBC51050F83400B042F7
:101670003FF706AF601CC4B2102CFFF6FFAE681C2B
:10168000C5B20C2DFFF6F8AEBDE8F883540100207A
:10169000F400002011010020B45C000800010020CB
:1016A0002DE9F84F4FF0000AD34601206449087035
:1016B0000024A7E00025A0E0002694E0614800EBAC
:1016C000C41000EBC500001D805D41385E4951F833
:1016D00020805C4800EBC41000EBC500001D805D5D
:1016E00061280DDB574800EBC41000EBC500001D5E
:1016F000805D6138554951F8200000F08070B0B924
:10170000504800EBC41000EBC500001D805D61284F
:101710000FDB4C4800EBC41000EBC500001D805DE2
:1017200061384A4951F8200000F4801008B14FF0A8
:10173000010BB8F1000F30DB454800EB0410405DB1
:1017400058B30B2C01D1012004E0C4F10B0000EBD5
:101750008000800087B2012F01D1132000E0142007
:10176000814666B905EB85004FF6FF7202EA8001FB
:101770003B4614220020CDF80090FEF7E9FF08F068
:10178000FF0205EB85014FF6FF7303EA810039463E
:10179000FFF776F94FF0010A23E02D4800EB041023
:1017A000405DF0B10B2C01D1012004E0C4F10B002D
:1017B00000EB8000800087B2012F01D1132000E0F0
:1017C0001420814605EB85004FF6FF7202EA800186
:1017D0003B4614220020CDF80090FEF7B9FF4FF0F1
:1017E000010A701C86B2174800EBC41050F835008F
:1017F000B0423FF763AF681C85B2102DFFF65CAFB7
:10180000601C84B20C2CFFF655AFBAF1000F12D158
:10181000BBF1000F0FD11420DC23C822322100902D
:1018200046F64D30FEF794FF4FF6FF7309A2DE2116
:101830003720FFF78DF8002001490870BDE8F88FC8
:101840000C01002054010020B45C0008D4080020E2
:10185000140800205072657373204B455920555071
:1018600020746F2072657472792100002DE9F04FA9
:101870009BB080464FF0000B4FF0180AB8F1020FF2
:1018800001D14FF0140A00240CE0002506E00020EE
:10189000F54901EB04114855681C85B2102DF6DBA3
:1018A000601C84B20C2CF0DBF048007810B91BB03F
:1018B000BDE8F08F00241FE0ED4850F8240000F050
:1018C000807040B1B8F1010F05D158460BF1010B02
:1018D00001A941F82040E64850F8240000F48010A7
:1018E00040B1B8F1020F05D158460BF1010B01A927
:1018F00041F82040601C84B21A2CDDDB0B242FE061
:10190000002529E0002623E0002717E0D94800EB56
:10191000C41000EBC500001DC05D613801A951F87D
:101920002610884208D10023032229462046CDF8FC
:10193000008001F001FA08E0781C87B2CD4800EB86
:10194000C41050F83500B842E0DC00BF701C86B20D
:101950005E45D9DB681C85B2102DD3DB601E84B2D6
:101960000C2CCDDD01F0A2F800244DE0002545E06F
:10197000AC4241D0C048005D6138BD4951F82000FB
:10198000BD49495D613901228A401040A0B300265B
:1019900030E000272AE04FF000091EE0B54800EBD8
:1019A000C61000EBC700001D10F80900B249095D20
:1019B00088420ED1B048415DAE4800EBC61000EB46
:1019C000C700001D00F809100120A74901EB06110E
:1019D000C85509F101001FFA80F9A64800EBC610AE
:1019E00050F837004845D9DC781C87B2102FD2DB7D
:1019F000701C86B20C2ECCDB681C85B29F48006838
:101A00008542B5DB601C84B29C4800688442ADDB33
:101A1000FFF746FE4FF0140A002480E000257AE02C
:101A2000944800EBC41050F83500022831D1914899
:101A300000EBC41000EBC5004079612829DB8D481C
:101A400000EBC41000EBC5000079612821DB894858
:101A500000EBC41000EBC50040796138844951F8AF
:101A60002000012101FA0AF1084090B1814800EB01
:101A7000C41000EBC500007961387D4951F82000A1
:101A800000F4800028B106207849087001207C49C4
:101A90000870784800EBC41050F83500022838D19F
:101AA000744800EBC41000EBC5004079612830DBBE
:101AB000704800EBC41000EBC5000079612828DBFA
:101AC0006C4800EBC41000EBC500407961386849F0
:101AD00051F82000012101FA0AF10840C8B1654817
:101AE00000EBC41000EBC50000796138604911F8C3
:101AF000200000F0080060B15E4800EBC41050F810
:101B00003500401E5B4901EBC41141F83500FFF779
:101B1000C7FD681C85B2102D82DB601C84B20C2CC2
:101B2000FFF67CAF4FF0180A002480E000257AE031
:101B3000504800EBC41050F83500022831D14D4810
:101B400000EBC41000EBC5004079612829DB49484F
:101B500000EBC41000EBC5000079612821DB45488B
:101B600000EBC41000EBC50040796138404951F8E2
:101B70002000012101FA0AF1084090B13D4800EB34
:101B8000C41000EBC50000796138394951F82000D4
:101B900000F4800028B1062034490870012038493B
:101BA0000870344800EBC41050F83500022838D1D2
:101BB000304800EBC41000EBC5004079612830DBF1
:101BC0002C4800EBC41000EBC5000079612828DB2D
:101BD000284800EBC41000EBC50040796138244967
:101BE00051F82000012101FA0AF10840C8B121484A
:101BF00000EBC41000EBC500007961381C4911F8F6
:101C0000200000F0080060B11A4800EBC41050F842
:101C10003500401E174901EBC41141F83500FFF7AC
:101C20003FFD681C85B2102D82DB601C84B20C2C39
:101C3000FFF67CAF002413E00D4850F8240000F4B8
:101C4000800058B10A4850F8240000F0807028B194
:101C5000062006490870012009490870601C84B2FA
:101C60001A2CE9DB00BF22E614080020390100200D
:101C7000D408002054010020130100201C01002082
:101C80003A0100202DE9F04F9BB080464FF0180A32
:101C90004FF0000BB8F1020F01D14FF0140A0024ED
:101CA0000CE0002506E00020F54901EB0411485541
:101CB000681C85B2102DF6DB601C84B20C2CF0DBA6
:101CC000F048007810B91BB0BDE8F08F00241FE089
:101CD000ED4850F8240000F0807040B1B8F1010FD9
:101CE00005D158460BF1010B01A941F82040E64807
:101CF00050F8240000F4801040B1B8F1020F05D173
:101D000058460BF1010B01A941F82040601C84B238
:101D10001A2CDDDB00252FE0002429E0002623E03B
:101D2000002717E0D94800EBC41000EBC500001DE8
:101D3000C05D613801A951F82610884208D10023FE
:101D4000012229462046CDF8008000F0F5FF08E08A
:101D5000781C87B2CD4800EBC41050F83500B8426B
:101D6000E0DC00BF701C86B25E45D9DB601C84B22B
:101D70000C2CD3DB681C85B2102DCDDB00F096FE59
:101D800000244DE0002545E0AC4241D0C048005D54
:101D90006138BD4951F82000BD49495D61390122D2
:101DA0008A401040A0B3002630E000272AE04FF020
:101DB00000091EE0B54800EBC61000EBC700001D8F
:101DC00010F80900B249095D88420ED1B048415D62
:101DD000AE4800EBC61000EBC700001D00F809106C
:101DE0000120A74901EB0611C85509F101001FFAAE
:101DF00080F9A64800EBC61050F837004845D9DCFA
:101E0000781C87B2102FD2DB701C86B20C2ECCDB74
:101E1000681C85B29F4800688542B5DB601C84B2AF
:101E20009C4800688442ADDBFFF73AFC4FF0140A8F
:101E3000002480E000257AE0944800EBC41050F8BC
:101E40003500022831D1914800EBC41000EBC500E9
:101E50004079612829DB8D4800EBC41000EBC500F8
:101E60000079612821DB894800EBC41000EBC50034
:101E700040796138844951F82000012101FA0AF1C2
:101E8000084090B1814800EBC41000EBC500007918
:101E900061387D4951F8200000F4800028B1062007
:101EA0007849087001207C490870784800EBC4101C
:101EB00050F83500022838D1744800EBC41000EB0C
:101EC000C5004079612830DB704800EBC41000EB9E
:101ED000C5000079612828DB6C4800EBC41000EBDA
:101EE000C50040796138684951F82000012101FAA4
:101EF0000AF10840C8B1654800EBC41000EBC5000A
:101F000000796138604911F8200000F0080060B1E4
:101F10005E4800EBC41050F83500401E5B4901EBF1
:101F2000C41141F83500FFF7BBFB681C85B2102DCA
:101F300082DB601C84B20C2CFFF67CAF4FF0180AD9
:101F4000002480E000257AE0504800EBC41050F8EF
:101F50003500022831D14D4800EBC41000EBC5001C
:101F60004079612829DB494800EBC41000EBC5002B
:101F70000079612821DB454800EBC41000EBC50067
:101F800040796138404951F82000012101FA0AF1F5
:101F9000084090B13D4800EBC41000EBC50000794B
:101FA0006138394951F8200000F4800028B106203A
:101FB00034490870012038490870344800EBC410D7
:101FC00050F83500022838D1304800EBC41000EB3F
:101FD000C5004079612830DB2C4800EBC41000EBD1
:101FE000C5000079612828DB284800EBC41000EB0D
:101FF000C50040796138244951F82000012101FAD7
:102000000AF10840C8B1214800EBC41000EBC5003C
:10201000007961381C4911F8200000F0080060B117
:102020001A4800EBC41050F83500401E174901EB68
:10203000C41141F83500FFF733FB681C85B2102D41
:1020400082DB601C84B20C2CFFF67CAF002413E012
:102050000D4850F8240000F4800058B10A4850F8A8
:10206000240000F0807028B1062006490870012085
:1020700009490870601C84B21A2CE9DB00BF22E613
:102080001408002039010020D40800205401002049
:10209000130100201C0100203A0100202DE9F84323
:1020A0000646012031490870F02000234FF4A07249
:1020B000194600901846FEF74BFB042E01DDBDE8E3
:1020C000F883002443E000253DE006EB4600284964
:1020D00001EB001050F82400405D4138254951F8CB
:1020E0002070002F14DB0B2C01D1012004E0C4F17F
:1020F0000B0000EB800080001FFA80F8FAB205EBBD
:1021000085014FF6FF7303EA81004146FEF7B8FCF4
:102110000120194901EBC41141F8350006EB4600D6
:10212000134901EB001050F82400405D124901EB07
:10213000C41101EBC50108715F20104901EB0411C6
:102140004855681C85B2102DBFDB601C84B20C2C76
:10215000B9DB00200A4908600A49088000F0A6FCA3
:1021600000200249087000BFA9E700000C01002010
:1021700000000020B45C0008540100205407002037
:102180004C0100200E01002008B5FEF7C1FD05201E
:10219000FEF790FAFEF7A2FAFEF764FA4FF4165132
:1021A0004820FEF747FDFEF7F5FCFEF70DFBFEF7B6
:1021B00001FEFEF74FFEFEF707FA41F61F4140F21F
:1021C000CF70FEF7B9FCFA48FEF7A6F9FEF7E2FE7B
:1021D000FEF7E6FEF02000234FF4A07219460090AF
:1021E0001846FEF7B5FA42F21070FEF795F94FF671
:1021F000FF73F0A2C8214620FEF7AAFB4FF47843F4
:10220000EFA2C8219E20FEF7A3FB4FF6FF73EFA2BB
:10221000A0214120FEF79CFB4FF6FF73F1A28C2119
:102220004120FEF795FB40F2FF73F4A250214120BC
:10223000FEF78EFB0020F849087016E0F6490C788E
:1022400004EBD4714910A4EB4101CAB2F2490978F8
:1022500001EB8101890001F128001421FEF710FC37
:10226000ED480078401CEC490870EB4800780C28D9
:10227000E4DBEA48FEF750F900BF0520FEF7D2FF85
:10228000E74908800120FEF7CDFFE64908804FF4BA
:102290007A70FEF741F9E248008842F2107190FB33
:1022A000F1F028B9DF48008890FBF1F00028E4D075
:1022B000DD48FEF731F9BDE3DC4800680B2837D371
:1022C000DB48006820F40060D94908600120D94942
:1022D00008700820D049087019E0CF480078C0F194
:1022E0000A0101208840D4490968084050B1CA4811
:1022F0000078401E012101FA00F0D0490978084316
:10230000CE490870C4480078401EC3490870C248CE
:1023100000780128E1DA0020C6490870C349086046
:10232000C5490860C248006840F40060C0490860C0
:10233000C24800786B282CD0732804D074284ED063
:10234000752825D171E0BA48006820F40060B849CA
:102350000860BB480078052802D1BA48007800E040
:102360000120B9490860F120FFF772F8B6490878F2
:10237000FFF77CFAB5480068401CB44908608C48F7
:10238000FEF7CAF8AA48006840F40060A84908604F
:1023900071E0A748006820F40060A5490860A848DB
:1023A0000078052802D1A748007800E00120A6495E
:1023B0000860F220FFF74CF8A3490878FFF762FCA9
:1023C000A2480068401CA14908607948FEF7A4F8BB
:1023D0009748006840F40060954908604BE09448D5
:1023E000006820F40060924908609548007805284C
:1023F00002D19448007800E0012093490860F3205E
:10240000FFF726F89049087801F010FF8F48006820
:10241000401C8E4908606648FEF77EF884480068D4
:1024200040F400608249086025E08148006820F49B
:1024300000607F49086082480078052802D1814801
:10244000007800E0012080490860F420FFF700F8E0
:102450007D49087802F0F6F87C480068401C7B490A
:1024600008605348FEF758F87148006840F400606F
:102470006F49086000BF00BF0020704908707048B5
:102480000078002873D172480078A8B3F0200023A8
:102490004FF4A072194600901846FEF759F94FF60E
:1024A000FF736CA2B4214120FEF752FA4AF6FF7383
:1024B0006EA278213220FEF74BFA4FF6FF336CA262
:1024C00078216E20FEF744FA4FF6CF7369A2782187
:1024D000AA20FEF73DFA4FF6FD7367A27821E620A9
:1024E000FEF736FA4FF6340364A228215020FEF797
:1024F0002FFA0020564908700520FEF793FE484940
:1025000008800846008842F6CC1188422EDB4448F9
:10251000008842F69421884228DC42F21070FDF7D0
:10252000FBFF0520FEF77EFE3D4908800846008837
:1025300042F6CC11884219DB3948008842F69421D2
:10254000884213DC0120FEF76DFE364908800846FC
:10255000008842F6285188420ADB3248008842F659
:10256000F051884204DC0120354908709DE0D7E035
:102570002C48008842F69831884209DB29480088B7
:1025800042F66041884203DC02202D4908708CE04D
:102590002448008842F60821884278DB21480088D8
:1025A00042F6D021884272DC0320254908707CE085
:1025B00040420F0057656C636F6D6520746F20009B
:1025C0004261626120697320596F75004C75692002
:1025D0004B77616E204B696E2031313535313130AA
:1025E00034363900576F6E672057616E204B692073
:1025F000313135353132343834330000507265733F
:102600007320616E79776865726520746F206265EA
:1026100067696E210000000010010020A086010003
:102620003401002036010020A025260040010020B2
:1026300000040140380100203C010020440100203A
:102640003901002049010020500100204C010020E8
:102650003A010020506C656173652063686F6F7389
:102660006520746865206C6576656C00310000003B
:102670003200000033000000340000004D756C741F
:1026800069706C617965723A20203500FFE7EA488D
:10269000008842F67801884207DBE7480088B0F5F9
:1026A000255F02DC0420E5490870E548008842F611
:1026B000244188422EDBE248008842F6EC41884201
:1026C00028DC42F21070FDF727FF0520FEF7AAFD77
:1026D000DB4908800846008842F62441884219DB1D
:1026E000D748008842F6EC41884213DC0120FEF70F
:1026F00099FDD14908800846008842F6A001884229
:1027000008DBCD48008842F63021884202DC0520F3
:10271000CA490870C948007810B10120C949087039
:10272000C648007801280AD1C7490870C548007812
:1027300028B10020FFF7B2FC0020C2490870BF4852
:10274000007802280BD10120BF490870BD480078ED
:1027500028B10120FFF7A2FC0020BA490870B74851
:10276000007803280BD10120B7490870B5480078DC
:1027700028B10220FFF792FC0020B2490870AF4850
:10278000007804280BD10120AF490870AD480078CB
:1027900028B10320FFF782FC0020AA490870A7484F
:1027A000007805286ED1A7480078F8B10020A74925
:1027B0000870F02000234FF4A072194600901846CC
:1027C000FDF7C6FF4FF6FF73A1A278213220FEF776
:1027D000BFF80020A54908709A490870A4490870FC
:1027E000A448006820F40060A24908609F4800786F
:1027F000A8B39648007890BB9E48006840F40060FB
:102800009C4908600420FFF749FC9B480078012898
:102810000AD18D4908704FF6F073AFF2B012DE2185
:102820000020FEF795F814E09348007802280AD1BA
:10283000854908704FF6F073AFF2CC12DE2100200C
:10284000FEF786F805E000207C49087001207D49EC
:10285000087001207D4908700020844908707B4879
:10286000007878B9824800781E280BDD814800681E
:1028700040F400607F490860002070490870012022
:10288000704908706D480078062853D16D4800786B
:10289000E8B37848006820F400607649086050206A
:1028A000034664221146009043F28A20FDF750FF50
:1028B0004FF6FF7371A28C217320FEF749F872481E
:1028C00072A102687248FDF7C5FC4FF6FF73704AAB
:1028D000921F78216E20FEF73BF86E4802886BA1AC
:1028E0006D48FDF7B7FC6DA16B48401FFDF755FD26
:1028F0004FF6FF73684A521F64216E20FEF728F8D6
:102900000020504908705A490870EE2000E001E0AC
:10291000FEF79EFD5648007803280BDB0020474950
:1029200008700120474908705248006840F4006070
:10293000504908604148007807287BD1F0200023E7
:102940004FF4A072194600901846FDF701FF42F2BD
:102950001070FDF7E1FD4FF6FF73AFF2A832C8210A
:102960004620FDF7F5FF4FF47843AFF2AC32C821B3
:102970009E20FDF7EDFF4FF6FF73AFF2B032A021BE
:102980004120FDF7E5FF4FF6FF73AFF2A8328C212F
:102990004120FDF7DDFF40F2FF73AFF2A03250217E
:1029A0004120FDF7D5FF00203D49087016E03C4965
:1029B0000C7804EBD4714910A4EB4101CAB2384938
:1029C000097801EB8101890001F128001421FEF74B
:1029D00057F833480078401C314908703048007877
:1029E0000C28E4DB2F48FDF797FD00BF0520FEF71C
:1029F00019FC134908800120FEF714FC0E490880D9
:102A00004FF47A70FDF788FD0D48008842F210718E
:102A100090FBF1F028B90848008890FBF1F00028FD
:102A2000E4D02148FDF778FD00200449087001201A
:102A30000449087040E400003601002039010020FC
:102A4000340100203A010020490100204801002003
:102A500057616974696E6720666F7220436F6E6E8E
:102A6000656374696F6E2E2E2E00000047010020F2
:102A7000120100200004014045010020596F75201B
:102A800077696E21000000004C01002025640000E1
:102A9000260100200E0100202F01002073000000FD
:102AA00010010020A0860100A025260030B50020DE
:102AB00005E000229E4B43F82020421C90B21A28C9
:102AC000F7DB00202FE1002128E19A4A02EBC01237
:102AD00002EBC102121D974B03EBC01353F83130C8
:102AE0005B1ED25C412A7DDB924A02EBC01202EBF4
:102AF000C102121D8F4B03EBC01353F831305B1E24
:102B0000D25C5A2A6EDC8B4A02EBC01202EBC10285
:102B1000121D884B03EBC01353F831305B1ED25C9F
:102B2000492A5FD04A1C102A7DDA824A02EBC01380
:102B30004A1C03EBC202121D7E4B03EBC0144B1C5C
:102B400054F833305B1ED25C492A6CD18A1C102A9F
:102B500069DA784A02EBC0138A1C03EBC202121D29
:102B6000744B03EBC0148B1C54F833305B1ED25CE7
:102B7000412A58DB6F4A02EBC0138A1C03EBC202E6
:102B8000121D6C4B03EBC0148B1C54F833305B1ECE
:102B9000D25C5A2A47DC674A02EBC0138A1C03EB5B
:102BA000C202121D634B03EBC0148B1C54F833306C
:102BB0005B1ED25C492A36D05E4A02EBC01202EBA1
:102BC000C102121D5B4B03EBC01353F831305B1E87
:102BD000D25C413A564B53F82220564B03EBC014BB
:102BE0008B1C00E098E004EBC3031B1D514C04EB6D
:102BF000C0158C1C55F83440641E1B5D413B0124FC
:102C00009C4022434B4B03EBC01303EBC1031B1D42
:102C1000484C04EBC01454F83140641E1B5D413B2A
:102C2000434C44F82320421C0C2A75DA414B03EB39
:102C3000C21202EBC102121D1C46431C04EBC3135B
:102C400053F831305B1ED25C492A65D1821C0C2AB4
:102C500062DA234603EBC21202EBC102121D831C8F
:102C600004EBC31353F831305B1ED25C412A53DBB3
:102C70002346821C03EBC21202EBC102121D831C0D
:102C800004EBC31353F831305B1ED25C5A2A43DC89
:102C90002346821C03EBC21202EBC102121D831CED
:102CA00004EBC31353F831305B1ED25C492A33D096
:102CB000224602EBC01202EBC102121D234603EBB7
:102CC000C01353F831305B1ED25C413A184B53F8B5
:102CD0002220831C04EBC31303EBC1031B1D04EB75
:102CE000C0158C1C55F83440641E1B5D413B01240B
:102CF0009C4042EA04030F4A02EBC01202EBC102FD
:102D0000121D0C4C04EBC01454F83140641E125DCB
:102D1000413A074C44F822304A1C91B21029FFF680
:102D2000D4AE421C90B20C28FFF6CDAE30BD0000F0
:102D3000D4080020540100202DE9F84304460D4634
:102D400091461E46089F4FF01808012F00D101E060
:102D50004FF01408B9F1010F7ED10DB9BDE8F88329
:102D6000FE4800EBC411681E01EBC00000795F282B
:102D700039D1FA4800EBC41000EBC500001DF7493B
:102D800001EBC41151F83510491E415CF34800EBCA
:102D9000C412681E02EBC0000171F04800EBC410C1
:102DA00050F83500012807D15F20EC4901EBC41130
:102DB00001EBC50108710AE0E84800EBC41050F8C7
:102DC0003500401EE54901EBC41141F835000121F1
:102DD000E34800EB0412681E11540120E04901EBA6
:102DE00004114855BAE7002E5AD1DC4800EBC41153
:102DF000681E01EBC000001DD84901EBC412691E1A
:102E000052F83110491E405C412810DBD34800EBDA
:102E1000C411681E01EBC000001DD04901EBC412B3
:102E2000691E52F83110491E405C5A2828DDCB48F3
:102E300000EBC411681E01EBC000001DC74901EB87
:102E4000C412691E52F83110491E405C612827DB0C
:102E5000C24800EBC41100E01BE2681E01EBC00099
:102E6000001DBE4901EBC412691E52F83110491E03
:102E7000405C6138BB4931F8200000F4004078B173
:102E8000681E81B20023012220460097FFF754FFFD
:102E900001231A46294620460097FFF74DFF5DE7BC
:102EA000012E49D1AD4800EBC411681E01EBC000F2
:102EB000001DAA4901EBC412691E52F83110491EC7
:102EC000405C412810DBA54800EBC411681E01EBF3
:102ED000C000001DA14901EBC412691E52F8311057
:102EE000491E405C5A2826DD9C4800EBC411681E30
:102EF00001EBC000001D994901EBC412691E52F894
:102F00003110491E405C612816DB944800EBC41167
:102F1000681E01EBC000001D904901EBC412691E40
:102F200052F83110491E405C61388E4931F820005A
:102F300000F4004000B111E7884800EBC411681E9E
:102F400001EBC000007961280EDB844800EBC4115E
:102F5000681E01EBC00000796138824951F82000F9
:102F600000F4802000B1F9E67C4800EBC411681E33
:102F700051F8300001285CD1784800EBC411681E7C
:102F800001EBC0000079612853DB744800EBC411E9
:102F9000681E01EBC00000796138724911F8200009
:102FA00000F00800B8B36D4800EBC41000EBC5009A
:102FB000001D6A4901EBC41151F83510491E405CEF
:102FC000612836DB654800EBC41000EBC500001D2E
:102FD000624901EBC41151F83510491E405C61385B
:102FE000604951F82000012101FA08F1084090B130
:102FF0005A4800EBC41050F8350002280CD157484D
:1030000000EBC41050F83500401E544901EBC411C8
:1030100041F8350007E00CE05F20504901EBC41196
:1030200001EBC501087101204D4901EB0411485520
:1030300094E64A4800EBC411681E51F8300001289C
:1030400044D1464800EBC411681E01EBC000007972
:1030500061283BDB414800EBC411681E01EBC00056
:10306000007961383F4951F8200000F4002068B32E
:103070003A4800EBC41050F8350002280BD137480D
:1030800000EBC41050F83500401E344901EBC41168
:1030900041F8350006E05F20304901EBC41101EB37
:1030A000C50108715F212D4800EBC412681E02EBB8
:1030B000C000017101202A4901EB0411485501218A
:1030C000274800EB0412681E115447E6234800EB22
:1030D000C411681E51F83000012845D11F4800EB8B
:1030E000C411681E01EBC000007961283CDB1B485D
:1030F00000EBC411681E01EBC0000079613819496A
:1031000051F8200000F4800070B3144800EBC410A4
:1031100000EBC500001D114901EBC41151F8351039
:10312000491E405C612864DB0C4800EBC41000EBD6
:10313000C500001D094901EBC41151F83510491EA5
:10314000405C6138074951F82010012000FA08F06E
:10315000014049B1014800EBC41106E054010020D0
:1031600014080020D408002043E0681E51F8300005
:10317000401CF84901EBC412691E42F83100F548C1
:1031800000EBC41000EBC500001DF24901EBC411B7
:1031900051F83510491E415CEE4800EBC412681E20
:1031A00002EBC0004171EB4800EBC41050F8350051
:1031B00002280BD1E74800EBC41050F83500401E40
:1031C000E44901EBC41141F8350006E05F20E14914
:1031D00001EBC41101EBC50108710120DE4901EBCF
:1031E000041148550121DC4800EB0412681E1154FB
:1031F000B4E5D84800EBC411681E51F8300002282D
:1032000000D1ABE5D34800EBC411681E51F8300083
:10321000401CD04901EBC412691E42F83100CD4870
:1032200000EBC41000EBC500001DCA4901EBC4113E
:1032300051F83510491E415CC64800EBC412681EA7
:1032400002EBC0004171C34800EBC41050F83500D8
:1032500002280BD1BF4800EBC41050F83500401EC7
:10326000BC4901EBC41141F8350006E05F20B949C3
:1032700001EBC41101EBC50108710120B64901EB56
:10328000041148550121B44800EB0412681E115482
:1032900064E5B9F1020F7DD10F2D00D15EE5AD4897
:1032A00000EBC411681C01EBC00000795F2839D124
:1032B000A84800EBC41000EBC500001DA54901EBB8
:1032C000C41151F83510491E415CA24800EBC412EC
:1032D000681C02EBC00001719E4800EBC41050F85E
:1032E0003500012807D15F209A4901EBC41101EB99
:1032F000C50108710AE0974800EBC41050F835008A
:10330000401E944901EBC41141F835000121924857
:1033100000EB0412681C115401208F4901EB0411C9
:1033200048551BE5BEBB8B4800EBC411681C01EB84
:10333000C000001D874901EBC412691C52F831100E
:10334000491E405C412810DB824800EBC411681C18
:1033500001EBC000001D7F4901EBC412691C52F84B
:103360003110491E405C5A2829DD7A4800EBC4110F
:10337000681C01EBC000001D764901EBC412691CFA
:1033800052F83110491E405C612828DB714800EB7F
:10339000C41101E01CE222E0681C01EBC000001D2A
:1033A0006C4901EBC412691C52F83110491E405C93
:1033B00061386A4931F8200000F4004078B1681C97
:1033C00081B20023022220460097FFF7B5FC0123BB
:1033D0000222294620460097FFF7AEFCBEE4012EEC
:1033E00049D15C4800EBC411681C01EBC000001D12
:1033F000584901EBC412691C52F83110491E405C57
:10340000412810DB534800EBC411681C01EBC000DD
:10341000001D504901EBC412691C52F83110491EBD
:10342000405C5A2826DD4B4800EBC411681C01EBB8
:10343000C000001D474901EBC412691C52F831104D
:10344000491E405C612816DB424800EBC411681C31
:1034500001EBC000001D3F4901EBC412691C52F88A
:103460003110491E405C61383C4931F8200000F4BD
:10347000004000B172E4374800EBC411681C01EB56
:10348000C000007961280EDB324800EBC411681CD3
:1034900001EBC00000796138304951F8200000F498
:1034A000802000B15AE42B4800EBC411681C51F88D
:1034B0003000012862D1274800EBC411681C01EBE1
:1034C000C0000079612859DB224800EBC411681C58
:1034D00001EBC00000796138204911F8200000F0AC
:1034E0000800E8B31B4800EBC41000EBC500001D4A
:1034F000184901EBC41151F83510491E405C612890
:103500003CDB144800EBC41000EBC500001D114962
:1035100001EBC41151F83510491E405C61380F4968
:1035200051F82010012000FA08F00140C1B109480B
:1035300000EBC41050F83500022812D1054800EB0A
:10354000C41050F83500401E024901EBC41141F887
:1035500035000DE05401002014080020D40800209C
:103560000CE05F20FE4901EBC41101EBC5010871BD
:103570000120FC4901EB0411485533E4F84800EB05
:10358000C411681C51F83000012844D1F44800EB04
:10359000C411681C01EBC000007961283BDBF048D6
:1035A00000EBC411681C01EBC00000796138EE49E2
:1035B00051F8200000F4002068B3E94800EBC41083
:1035C00050F8350002280BD1E54800EBC41050F844
:1035D0003500401EE24901EBC41141F8350006E018
:1035E0005F20DF4901EBC41101EBC50108715F21C8
:1035F000DB4800EBC412681C02EBC0000171012023
:10360000D84901EB041148550121D64800EB0412BA
:10361000681C115443E4D24800EBC411681C51F8F3
:103620003000012854D1CE4800EBC411681C01EBD6
:10363000C000007961287BDBC94800EBC411681C1D
:1036400001EBC00000796138C74951F8200000F44F
:103650008000E8B3C24800EBC41000EBC500001DB9
:10366000BF4901EBC41151F83510491E405C612877
:103670005EDBBB4800EBC41000EBC500001DB84981
:1036800001EBC41151F83510491E405C6138B64950
:1036900051F82000012101FA08F10840C0B1B048FA
:1036A00000EBC411681C51F83000401CAC4901EB20
:1036B000C412691C42F83100A94800EBC41000EBA9
:1036C000C500001DA64901EBC41151F8351000E0FA
:1036D0002EE0491E415CA24800EBC412681C02EBBC
:1036E000C00041719E4800EBC41050F8350002281C
:1036F0000BD19B4800EBC41050F83500401E984990
:1037000001EBC41141F8350006E05F20944901EB5C
:10371000C41101EBC50108710120924901EB0411AC
:10372000485501218F4800EB0412681C11541AE41B
:103730008B4800EBC411681C51F83000022800D1FE
:1037400011E4874800EBC411681C51F83000401C9C
:10375000834901EBC412691C42F83100804800EB38
:10376000C41000EBC500001D7D4901EBC41151F8E8
:103770003510491E415C7A4800EBC412681C02EB0C
:10378000C0004171764800EBC41050F835000228A3
:103790000BD1734800EBC41050F83500401E70493F
:1037A00001EBC41141F8350006E05F206C4901EBE4
:1037B000C41101EBC501087101206A4901EB041134
:1037C00048550121674800EB0412681C115490E22F
:1037D000B9F1030F7ED10B2C00D129E46049601CA4
:1037E00001EBC01000EBC50000795F2838D1084616
:1037F00000EBC41000EBC500001D01EBC41151F833
:103800003510491E415C564A601C02EBC01000EBAB
:10381000C5000171104600EBC41050F835000128B6
:1038200007D15F20114601EBC41101EBC5010871FE
:103830000AE04B4800EBC41050F83500401E4849E0
:1038400001EBC41141F835000121464A601C02EB2E
:10385000001041550120114601EB0411485534E494
:10386000CEBB3F49601C01EBC01000EBC500001D42
:103870000A46611C02EBC11151F83510491E405C2B
:1038800041280FDB1146601C01EBC01000EBC500A6
:10389000001D611C02EBC11151F83510491E405C3E
:1038A0005A2828DD2E49601C01EBC01000EBC50032
:1038B000001D0A46611C02EBC11151F83510491E6A
:1038C000405C612827DB1146601C01EBC01000EB57
:1038D000C50001E00EE21EE0001D611C02EBC111FB
:1038E00051F83510491E405C61381F4931F82000FD
:1038F00000F4004078B1611C88B2002303222946FD
:103900000097FFF719FA0123032229462046009762
:10391000FFF712FA6CE4012E4ED11149601C01EB45
:10392000C01000EBC500001D0A46611C02EBC1116E
:1039300051F83510491E405C41280FDB1146601CD0
:1039400001EBC01000EBC500001D611C02EBC111B2
:1039500051F83510491E405C5A282CDD004905E01D
:103960005401002014080020D4080020601C01EB42
:10397000C01000EBC500001D0A46611C02EBC1111E
:1039800051F83510491E405C612815DB1146601C5A
:1039900001EBC01000EBC500001D611C02EBC11162
:1039A00051F83510491E405C6138FE4931F820005D
:1039B00000F4004000B11BE4FB49601C01EBC010A7
:1039C00000EBC500007961280DDB601C01EBC01025
:1039D00000EBC50000796138F24951F8200000F48D
:1039E000802000B104E4F049601C01EBC01050F8E5
:1039F000350001285AD1601C01EBC01000EBC50056
:103A00000079612852DB601C01EBC01000EBC5009F
:103A100000796138E34911F8200000F00800B8B3DC
:103A2000E14800EBC41000EBC500001DDE4901EBCE
:103A3000C41151F83510491E405C612836DBDA4864
:103A400000EBC41000EBC500001DD74901EBC41109
:103A500051F83510491E405C6138D24951F82010A8
:103A6000012000FA08F0014091B1CF4800EBC410EA
:103A700050F8350002280CD1CB4800EBC41050F8A8
:103A80003500401EC84901EBC41141F8350007E07C
:103A90000CE05F20C44901EBC41101EBC5010871C2
:103AA0000120C24901EB041148553AE4BE49601CAB
:103AB00001EBC01050F83500012842D1601C01EB29
:103AC000C01000EBC500007961283ADB601C01EBF7
:103AD000C01000EBC50000796138B24951F82000F0
:103AE00000F4002068B3B04800EBC41050F8350073
:103AF00002280BD1AC4800EBC41050F83500401E32
:103B0000A94901EBC41141F8350006E05F20A64940
:103B100001EBC41101EBC50108715F21A24A601CD1
:103B200002EBC01000EBC500017101219F4A601C2F
:103B300002EB001041550120114601EB04114855DC
:103B40004CE49949601C01EBC01050F83500012885
:103B500052D1601C01EBC01000EBC5000079612858
:103B600079DB601C01EBC01000EBC5000079613807
:103B70008C4951F8200000F48000E8B38A4800EB3B
:103B8000C41000EBC500001D874901EBC41151F8BA
:103B90003510491E405C61285DDB834800EBC41092
:103BA00000EBC500001D804901EBC41151F8351030
:103BB000491E405C61387B4951F82000012101FA1F
:103BC00008F10840C0B17849601C01EBC01050F802
:103BD0003500401C0A46611C02EBC11141F835005A
:103BE000104600EBC41000EBC500001D114601EBB0
:103BF000C41151F8351000E02DE0491E415C601CF5
:103C000002EBC01000EBC5004171104600EBC41080
:103C100050F8350002280BD1104600EBC41050F8C4
:103C20003500401E114601EBC41141F8350006E095
:103C30005F205D4901EBC41101EBC5010871012151
:103C40005A4A601C02EB001041550120114601EB5D
:103C5000041148550EE45449601C01EBC01050F8A3
:103C60003500022800D105E44F49601C01EBC0106B
:103C700050F83500401C0A46611C02EBC11141F8A6
:103C80003500104600EBC41000EBC500001D1146C6
:103C900001EBC41151F83510491E415C601C02EB68
:103CA000C01000EBC5004171104600EBC41050F885
:103CB000350002280BD1104600EBC41050F8350037
:103CC000401E114601EBC41141F8350006E05F20AB
:103CD000354901EBC41101EBC50108710121334ADB
:103CE000601C02EB001041550120114601EB04114C
:103CF000485595E2B9F1040FFBD104B93DE4601ECB
:103D0000294901EBC01000EBC50000795F2838D1CC
:103D1000084600EBC41000EBC500001D01EBC41108
:103D200051F83510491E415C601E1F4A02EBC0105D
:103D300000EBC5000171104600EBC41050F83500CF
:103D4000012807D15F20114601EBC41101EBC50129
:103D500008710AE0144800EBC41050F83500401E0A
:103D6000114901EBC41141F835000121601E0F4AD1
:103D700002EB001041550120114601EB041148559A
:103D800048E4EEBB601E084901EBC01000EBC50023
:103D9000001D611E044A02EBC11151F83510491E85
:103DA000405C05E0D40800205401002014080020E5
:103DB00041280FDB601E114601EBC01000EBC5006F
:103DC000001D611E02EBC11151F83510491E405C07
:103DD0005A2827DD601EFE4901EBC01000EBC5002C
:103DE000001D611EFA4A02EBC11151F83510491E3F
:103DF000405C612826DB601E114601EBC01000E02C
:103E000020E000EBC500001D611E02EBC11151F85E
:103E10003510491E405C6138EE4931F8200000F44D
:103E2000004078B1611E88B2002304222946009721
:103E3000FEF782FF01230422294620460097FEF761
:103E40007BFF74E4012E47D1601EE14901EBC010F5
:103E500000EBC500001D611EDD4A02EBC11151F8E7
:103E60003510491E405C41280FDB601E114601EBF6
:103E7000C01000EBC500001D611E02EBC11151F81E
:103E80003510491E405C5A2825DD601ED04901EBE3
:103E9000C01000EBC500001D611ECD4A02EBC11130
:103EA00051F83510491E405C612815DB601E114633
:103EB00001EBC01000EBC500001D611E02EBC1113B
:103EC00051F83510491E405C6138C24931F8200074
:103ED00000F4004000B12AE4601EBD4901EBC010AF
:103EE00000EBC500007961280DDB601E01EBC010FE
:103EF00000EBC50000796138B64951F8200000F4A4
:103F0000802000B113E4601EB14901EBC01050F8ED
:103F1000350001285AD1601E01EBC01000EBC5002E
:103F20000079612852DB601E01EBC01000EBC50078
:103F300000796138A74911F8200000F00800B8B3F3
:103F4000A34800EBC41000EBC500001DA04901EB25
:103F5000C41151F83510491E405C612836DB9C487D
:103F600000EBC41000EBC500001D994901EBC41122
:103F700051F83510491E405C6138964951F82000CF
:103F8000012101FA08F1084090B1914800EBC410FA
:103F900050F8350002280CD18D4800EBC41050F8C1
:103FA0003500401E8A4901EBC41141F8350007E095
:103FB0000CE05F20864901EBC41101EBC5010871DB
:103FC0000120854901EB0411485506E4601E804933
:103FD00001EBC01050F83500012842D1601E01EB02
:103FE000C01000EBC500007961283ADB601E01EBD0
:103FF000C01000EBC50000796138764951F8200007
:1040000000F4002068B3724800EBC41050F835008B
:1040100002280BD16E4800EBC41050F83500401E4A
:104020006B4901EBC41141F8350006E05F20684997
:1040300001EBC41101EBC50108715F21601E644AE8
:1040400002EBC01000EBC50001710121601E624A45
:1040500002EB001041550120114601EB04114855B7
:1040600058E4601E5A4901EBC01050F83500012891
:1040700052D1601E01EBC01000EBC5000079612831
:1040800079DB601E01EBC01000EBC50000796138E0
:10409000504951F8200000F48000E8B34C4800EB90
:1040A000C41000EBC500001D494901EBC41151F8D3
:1040B0003510491E405C61285DDB454800EBC410AB
:1040C00000EBC500001D424901EBC41151F8351049
:1040D000491E405C61383F4951F82010012000FA28
:1040E00008F00140C1B1601E394901EBC01050F821
:1040F0003500401C611E364A02EBC11141F8350003
:10410000104600EBC41000EBC500001D114601EB8A
:10411000C41151F8351000E02DE0491E415C601ECD
:1041200002EBC01000EBC5004171104600EBC4105B
:1041300050F8350002280BD1104600EBC41050F89F
:104140003500401E114601EBC41141F8350006E070
:104150005F201F4901EBC41101EBC501087101216A
:10416000601E1D4A02EB001041550120114601EB73
:10417000041148551FE4601E154901EBC01050F8AA
:104180003500022800D116E4601E114901EBC01071
:1041900050F83500401C611E0D4A02EBC11141F878
:1041A0003500104600EBC41000EBC500001D1146A1
:1041B00001EBC41151F83510491E415C601E02EB41
:1041C000C01000EBC5004171104600EBC41005E0C3
:1041D00054010020D40800201408002050F83500B5
:1041E00002280BD1104600EBC41050F83500401ED9
:1041F000114601EBC41141F8350006E05F20094982
:1042000001EBC41101EBC50108710121601E064AD2
:1042100002EB001041550120114601EB04114855F5
:1042200000BF42E454010020140800202DE9F04FA3
:104230009BB080464FF0180A4FF0000BB8F1020F08
:1042400001D14FF0140A00240CE0002506E0002004
:10425000F54901EB04114855681C85B2102DF6DBB9
:10426000601C84B20C2CF0DBF048007810B91BB055
:10427000BDE8F08F00241FE0ED4850F8240000F066
:10428000807040B1B8F1010F05D158460BF1010B18
:1042900001A941F82040E64850F8240000F48010BD
:1042A00040B1B8F1020F05D158460BF1010B01A93D
:1042B00041F82040601C84B21A2CDDDB0F252FE072
:1042C000002429E0002623E0002717E0D94800EB6E
:1042D000C41000EBC500001DC05D613801A951F894
:1042E0002610884208D10023022229462046CDF814
:1042F0000080FEF721FD08E0781C87B2CD4800EB76
:10430000C41050F83500B842E0DC00BF701C86B223
:104310005E45D9DB601C84B20C2CD3DB681E85B2F1
:10432000102DCDDDFEF7C2FB00244DE0002545E059
:10433000AC4241D0C048005D6138BD4951F8200011
:10434000BD49495D613901228A401040A0B3002671
:1043500030E000272AE04FF000091EE0B54800EBEE
:10436000C61000EBC700001D10F80900B249095D36
:1043700088420ED1B048415DAE4800EBC61000EB5C
:10438000C700001D00F809100120A74901EB061124
:10439000C85509F101001FFA80F9A64800EBC610C4
:1043A00050F837004845D9DC781C87B2102FD2DB93
:1043B000701C86B20C2ECCDB681C85B29F4800684E
:1043C0008542B5DB601C84B29C4800688442ADDB4A
:1043D000FDF766F94FF0140A002480E000257AE02A
:1043E000944800EBC41050F83500022831D19148B0
:1043F00000EBC41000EBC5004079612829DB8D4833
:1044000000EBC41000EBC5000079612821DB89486E
:1044100000EBC41000EBC50040796138844951F8C5
:104420002000012101FA0AF1084090B1814800EB17
:10443000C41000EBC500007961387D4951F82000B7
:1044400000F4800028B106207849087001207C49DA
:104450000870784800EBC41050F83500022838D1B5
:10446000744800EBC41000EBC5004079612830DBD4
:10447000704800EBC41000EBC5000079612828DB10
:104480006C4800EBC41000EBC50040796138684906
:1044900051F82000012101FA0AF10840C8B165482D
:1044A00000EBC41000EBC50000796138604911F8D9
:1044B000200000F0080060B15E4800EBC41050F826
:1044C0003500401E5B4901EBC41141F83500FDF792
:1044D000E7F8681C85B2102D82DB601C84B20C2CBE
:1044E000FFF67CAF4FF0180A002480E000257AE048
:1044F000504800EBC41050F83500022831D14D4827
:1045000000EBC41000EBC5004079612829DB494865
:1045100000EBC41000EBC5000079612821DB4548A1
:1045200000EBC41000EBC50040796138404951F8F8
:104530002000012101FA0AF1084090B13D4800EB4A
:10454000C41000EBC50000796138394951F82000EA
:1045500000F4800028B10620344908700120384951
:104560000870344800EBC41050F83500022838D1E8
:10457000304800EBC41000EBC5004079612830DB07
:104580002C4800EBC41000EBC5000079612828DB43
:10459000284800EBC41000EBC5004079613824497D
:1045A00051F82000012101FA0AF10840C8B1214860
:1045B00000EBC41000EBC500007961381C4911F80C
:1045C000200000F0080060B11A4800EBC41050F859
:1045D0003500401E174901EBC41141F83500FDF7C5
:1045E0005FF8681C85B2102D82DB601C84B20C2C35
:1045F000FFF67CAF002413E00D4850F8240000F4CF
:10460000800058B10A4850F8240000F0807028B1AA
:10461000062006490870012009490870601C84B210
:104620001A2CE9DB00BF22E6140800203901002023
:10463000D408002054010020130100201C01002098
:104640003A0100202DE9F04F9BB080464FF0000B5F
:104650004FF0180AB8F1020F01D14FF0140A0024EC
:104660000CE0002506E00020F54901EB0411485557
:10467000681C85B2102DF6DB601C84B20C2CF0DBBC
:10468000F048007810B91BB0BDE8F08F00241FE09F
:10469000ED4850F8240000F0807040B1B8F1010FEF
:1046A00005D158460BF1010B01A941F82040E6481D
:1046B00050F8240000F4801040B1B8F1020F05D189
:1046C00058460BF1010B01A941F82040601C84B24F
:1046D0001A2CDDDB00242FE0002529E0002623E052
:1046E000002717E0D94800EBC41000EBC500001DFF
:1046F000C05D613801A951F82610884208D1002315
:10470000042229462046CDF80080FEF715FB08E07C
:10471000781C87B2CD4800EBC41050F83500B84281
:10472000E0DC00BF701C86B25E45D9DB681C85B238
:10473000102DD3DB601C84B20C2CCDDBFEF7B6F958
:1047400000244DE0002545E0AC4241D0C048005D6A
:104750006138BD4951F82000BD49495D61390122E8
:104760008A401040A0B3002630E000272AE04FF036
:1047700000091EE0B54800EBC61000EBC700001DA5
:1047800010F80900B249095D88420ED1B048415D78
:10479000AE4800EBC61000EBC700001D00F8091082
:1047A0000120A74901EB0611C85509F101001FFAC4
:1047B00080F9A64800EBC61050F837004845D9DC10
:1047C000781C87B2102FD2DB701C86B20C2ECCDB8B
:1047D000681C85B29F4800688542B5DB601C84B2C6
:1047E0009C4800688442ADDBFCF75AFF4FF0140A86
:1047F000002480E000257AE0944800EBC41050F8D3
:104800003500022831D1914800EBC41000EBC500FF
:104810004079612829DB8D4800EBC41000EBC5000E
:104820000079612821DB894800EBC41000EBC5004A
:1048300040796138844951F82000012101FA0AF1D8
:10484000084090B1814800EBC41000EBC50000792E
:1048500061387D4951F8200000F4800028B106201D
:104860007849087001207C490870784800EBC41032
:1048700050F83500022838D1744800EBC41000EB22
:10488000C5004079612830DB704800EBC41000EBB4
:10489000C5000079612828DB6C4800EBC41000EBF0
:1048A000C50040796138684951F82000012101FABA
:1048B0000AF10840C8B1654800EBC41000EBC50020
:1048C00000796138604911F8200000F0080060B1FB
:1048D0005E4800EBC41050F83500401E5B4901EB08
:1048E000C41141F83500FCF7DBFE681C85B2102DC1
:1048F00082DB601C84B20C2CFFF67CAF4FF0180AF0
:10490000002480E000257AE0504800EBC41050F805
:104910003500022831D14D4800EBC41000EBC50032
:104920004079612829DB494800EBC41000EBC50041
:104930000079612821DB454800EBC41000EBC5007D
:1049400040796138404951F82000012101FA0AF10B
:10495000084090B13D4800EBC41000EBC500007961
:104960006138394951F8200000F4800028B1062050
:1049700034490870012038490870344800EBC410ED
:1049800050F83500022838D1304800EBC41000EB55
:10499000C5004079612830DB2C4800EBC41000EBE7
:1049A000C5000079612828DB284800EBC41000EB23
:1049B000C50040796138244951F82000012101FAED
:1049C0000AF10840C8B1214800EBC41000EBC50053
:1049D000007961381C4911F8200000F0080060B12E
:1049E0001A4800EBC41050F83500401E174901EB7F
:1049F000C41141F83500FCF753FE681C85B2102D38
:104A000082DB601C84B20C2CFFF67CAF002413E028
:104A10000D4850F8240000F4800058B10A4850F8BE
:104A2000240000F0807028B106200649087001209B
:104A300009490870601C84B21A2CE9DB00BF22E629
:104A40001408002039010020D4080020540100205F
:104A5000130100201C0100203A01002090EA010F00
:104A600048BF81F0004100F12E82421A3CBF801AFB
:104A700089184FEAD0524FF07F4C1CEA410FA2EB4D
:104A8000D15318BF9CEA026F00F03B804FF0004CFE
:104A90004CEA00204CEA012121FA03FC10EB0C0C3B
:104AA0001ED202F1FF325FEA1C2040EBC25038BF39
:104AB00070471CF07F0F4FEA400C18BFBCF17F4FCE
:104AC00038BF7047C3F12003994008BF20F00100B0
:104AD000BCF17F4F38BF7047A0F1C04000F0DDB996
:104AE0004FEA3C00000A40EBC25028BF1CF0FF0F09
:104AF0004FEA400CE6D018BFBCF17F4F38BF70477B
:104B0000EAE79CEA026F05D010EA5C0F08BF00F0EC
:104B10000040704710B500F07AF900BF64FBBE3E5C
:104B20004FF47F0C1CEAD0121EBF1CEAD11392EA8C
:104B30000C0F93EA0C0F00F0858090EA010F48BF3C
:104B400042F4807240F4000C41F400002CF07F41EC
:104B500020F07F4000B58142A2EB03020FF2081C57
:104B6000ACEB504EC0F100009EF800E04FEA4E0E54
:104B700000FB0EFC38BF49004FEA2C1C02F5FA027C
:104B80000CFB0EF34FEACE1E4FEA112C4FEAC12167
:104B90000EEB635E42EB22420EFB0CFC4FEA1C5311
:104BA00000FB03114FEA112C4FEA01310EFB0CFC04
:104BB0004FEADC4C00FB0C11C14228BF09184CEB3A
:104BC00003335DF804EB10EB410143EBC250B2F547
:104BD0007C0F38BF704729D512F0F00F1CBF00F1D1
:104BE000C04000F000407047008182838485868742
:104BF00088898B8C8D8E8F919293959697999A9C9C
:104C00009D9FA0A2A3A5A7A8AAACAEB0B2B3B5B70A
:104C1000B9BCBEC0C2C5C7C9CCCED1D4D7D9DCDFE0
:104C2000E2E6E9ECF0F3F7FAFE0000004FEA400C90
:104C30000CF1807CBCF17E4F28BF7047B0F1C040C2
:104C400000F02BB990EA010F0CEAD11348BF42F4EF
:104C50008072624538BF634507D213F47F0F16D0C8
:104C600080EA010000F00040704710B500F0CFF876
:104C7000097EFC3E00F005B880EA010000F000402B
:104C8000704780EA010000F0004000F006B912F41D
:104C90007F0F04BF0248704780EA010000F0FDB8B2
:104CA0000000C07FC10DD1F19E0206DB4FEA002358
:104CB00043F0004323FA02F07047004207D54FEA61
:104CC0004001B1F1FE4F02D24FF00000704710B525
:104CD00000F09DF849922480002070476FEA200080
:104CE00070470000B0FA80F310FA03F2C3F19D039D
:104CF0000AD0D90501EB1220530638BF704700F1E6
:104D0000010008BF20F00100704700004FF47F0C45
:104D10001CEAD0121EBF1CEAD11392EA0C0F93EAD0
:104D20000C0F00F0478090EA010F48BF42F48072F8
:104D30004FF0004C4CEA00204CEA012102EB030248
:104D4000A0FB0113A2F50002002918BF43F00103E4
:104D50005B0028BF4FEA330342EB22425FEA132C89
:104D60004CEBC2502EBFBCEB436FB2F57C0F7047CB
:104D70004FEA036CBCF1004F08BF20F00100B2F510
:104D80007C0F38BF70470BD582F0FF0212F5803FD1
:104D9000C8BF704700F1C040D8BF00F00040704766
:104DA00000F5000C5FEA4C0C48BF7047B0F1C04002
:104DB00000F073B890EA010F0CEAD11348BF42F437
:104DC0008072624538BF634504D280EA010000F07A
:104DD0000040704710B500F01AF800BF8900013E8E
:104DE00000F007B800F009B85FEA410C5FEA1C6CFC
:104DF00008D080EA010000F050B85FEA400C5FEA9A
:104E00001C6CF6D14FF00040A0F5800070470EF109
:104E1000020E2EF0030E5EF8044B244204D44FEA37
:104E20004102B2F17F4F11D84FEA4003B3F17F4FF7
:104E30000CD80ED14FEAD07CB2F17F4F0CEB4C0C6A
:104E40000CF1020C08BF4CEBD17C04E04FF0080CD5
:104E500001E04FEAD17C0CEB4C0324FA03F404F09C
:104E60000704B4F1040C06D20EEB840CBDE810402C
:104E70004CF0010C6047DFE80CF0070802024FF02D
:104E80000040A0F5800010BD0846420018BFD2F1D6
:104E9000807288BF00F0004010BDFF2141EAD05071
:104EA000C005704780F0004090EA010F7FF5DDAD4E
:104EB00081F0004100F007B890EA010F48BF81F08F
:104EC00000413FF5D2AD421A04D882F00042A0EB77
:104ED000020011444FEAD0524FF07F4C1CEA410FC0
:104EE000A2EBD15318BF9CEA026F4AD04FF0004C9E
:104EF0004CEA00204CEA012121FA03FCB0EB0C0C37
:104F00000FD412F0FE0F36D05FEA4C001DD5001210
:104F100040EBC25038BF70471CF03F0F18BF7047BE
:104F20000BE0A2F101025FEA1C2040EBC25038BF47
:104F300070471CF07F0F18BF7047C3F120039940E2
:104F400014BF401E20F00100704780084FEA122372
:104F500008BF7047B0FA80FCA2EB0C02CCF1280C21
:104F600060FA0CF093EA122F04BF00EBC2507047B6
:104F70004FEAC3707047130A5FEADC1008BF70473E
:104F8000F6E79CEA026F04D010EA5C0F08BF00202D
:104F9000704710B5FFF73BFF40DFF63E81F0004061
:104FA000704700000000000000000000000000004A
:104FB000000000000000000000001FCC000C0000FA
:104FC0000000000000000800300060000800300011
:104FD00060000000022003FC1E20022003FC1E20B3
:104FE0000220000000000E1811043FFF10840C780E
:104FF000000000000F0010840F3800C007781884EC
:105000000078000000780F8410C411240E9800E48A
:105010000084000808006800700000000000000024
:105020000000000000000000000007E01818200445
:1050300040020000000040022004181807E00000B1
:10504000000000000240024001800FF00180024099
:10505000024000000080008000800FF80080008087
:10506000008000000001000D000E000000000000A4
:1050700000000000000000800080008000800080B0
:10508000008000800000000C000C00000000000008
:10509000000000000000000600180060018006000B
:1050A00018002000000007F0080810041004080889
:1050B00007F000000000080408041FFC00040004BE
:1050C0000000000000000E0C101410241044118485
:1050D0000E0C000000000C181004110411041288BA
:1050E0000C700000000000E00320042408241FFCD2
:1050F0000024000000001F9810841104110410887F
:1051000010700000000007F00888110411041888CE
:105110000070000000001C00100010FC13001C00B8
:105120001000000000000E38114410841084114457
:105130000E38000000000700088C10441044088856
:1051400007F00000000000000000030C030C00004A
:105150000000000000000000000101060000000047
:105160000000000000000080014002200410080838
:10517000100400000220022002200220022002204F
:105180000220000000001004080804100220014062
:105190000080000000000E001200100C106C108047
:1051A0000F00000003E00C1813E4142417C40828AF
:1051B00007D000000004003C03C41C40074000E48A
:1051C000001C000410041FFC1104110411040E88BB
:1051D0000070000003E00C18100410041004100804
:1051E0001C10000010041FFC100410041004080818
:1051F00007F0000010041FFC1104110417C4100470
:105200000818000010041FFC1104110017C0100042
:105210000800000003E00C181004100410441C786F
:105220000040000010041FFC1084008000801084E7
:105230001FFC10040000100410041FFC10041004D4
:105240000000000000030001100110011FFE10000B
:105250001000000010041FFC110403801464181CCB
:105260001004000010041FFC1004000400040004DB
:10527000000C000010041FFC1F0000FC1F001FFC9E
:105280001004000010041FFC0C04030000E01018C0
:105290001FFC100007F00808100410041004080890
:1052A00007F0000010041FFC108410801080108094
:1052B0000F00000007F0081810241024101C080A22
:1052C00007F2000010041FFC1104110011C011307E
:1052D0000E0C000400000E1C1104108410841044F5
:1052E0001C3800001800100010041FFC10041000EF
:1052F0001800000010001FF810040004000410043F
:105300001FF8100010001E0011E0001C0070138038
:105310001C0010001FC0103C00E01F0000E0103C0B
:105320001FC000001004180C163401C001C0163450
:10533000180C100410001C00130400FC13041C00C3
:10534000100000000804101C1064108413041C04D6
:10535000101800000000000000007FFE4002400224
:1053600040020000000030000C0003800060001CC0
:105370000003000000004002400240027FFE0000E7
:10538000000000000000000020004000400040003D
:1053900020000000000100010001000100010001E7
:1053A000000100010000400040002000000000005B
:1053B0000000000000000098012401440144014461
:1053C00000FC000410001FFC008801040104008898
:1053D0000070000000000070008801040104010456
:1053E000008800000000007000880104010411081A
:1053F0001FFC0004000000F8014401440144014482
:1054000000C800000000010401040FFC1104110495
:1054100011001800000000D601290129012901C945
:105420000106000010041FFC0084010001000104BB
:1054300000FC000400000104190419FC000400042D
:10544000000000000000000300010101190119FE25
:105450000000000010041FFC0024004001B4010CF7
:10546000010400000000100410041FFC00040004EC
:1054700000000000010401FC0104010001FC010422
:10548000010000FC010401FC008401000100010492
:1054900000FC0004000000F8010401040104010400
:1054A00000F80000010101FF0085010401040088EB
:1054B0000070000000000070008801040104010574
:1054C00001FF00010104010401FC0084010401004A
:1054D00001800000000000CC0124012401240124EB
:1054E0000198000000000100010007F80104010418
:1054F00000000000010001F800040004000401089D
:1055000001FC0004010001800170000C001001602A
:105510000180010001F0010C003001C00030010CDD
:1055200001F0010000000104018C00740170018C85
:1055300001040000010101810171000E00180160E9
:105540000180010000000184010C01340144018448
:10555000010C0000000000000000000001003EFC03
:10556000400240020000000000000000FFFF0000B9
:10557000000000000000400240023EFC010000006C
:10558000000000000000600080008000400040003B
:1055900020002000000004002402240225F42554E9
:1055A000FD58255027F02550FD50255825F424049A
:1055B000040200000004040404080C30146027C036
:1055C000C400040007F00408240814080C080608A6
:1055D0000038000010401080910073FF1500188201
:1055E00000043FF822002200220023FF4200460070
:1055F00002000000000000000001F0003F9C03FFDB
:10560000C03FF803FC01FFFC1FFFC0FFC003FC000C
:105610003FF03F9FC3FFDC0FFC0033C003FFC01F00
:10562000F800F00000000000000000000000000092
:105630001FF803FFFE3FFFE7FFE679FE679FE07F6D
:10564000FFE73FFE73FC63FF863FF80000000000A9
:1056500000000000000000000000000006000060E4
:10566000003E001FE07FEE7FF0E7FC0E67C047F8CA
:10567000007FC007FC007FC003FE003FE001FC008C
:105680003FC003F8007E00020000701B2FE1801F66
:105690009FE1E3FEBE3001FB002FB2AFF3FEF03E10
:1056A000601B6607B063F300FE3FEFDBFEFC378351
:1056B000FB7C0FBFE01BEE201421001003DA01EE8B
:1056C000F81DDF80FFFE7FECEE0FF3FFDDE7FFDF6D
:1056D000FF7CF9F87C7CDEFF3DFBFBF75FC7CF3931
:1056E000FEF7FFCE6EF787FF7E3CEFC079C8000063
:1056F000103C0E7FC3EFFC78FC3F8EC3F8FC3F8C60
:10570000C0FC4001E0000F3F87C7FDFC73FDE01FB8
:105710003F01F3701F3F01FFC0093C000000000083
:105720003C3F87C07EFFE1EFFE3FFFC7FFFC1FFF4E
:10573000E1FFF83FF83FFFFFFFFE01FFE01FFFA37F
:10574000FFE01FFF1FFFF8FFFFC3F7F03F7CFFF3F1
:10575000FFFC01F8007FF03FFF83FFFE7FFFE3FFC8
:10576000FE3FFFE7FFFE7FFFFFFFFFFFFFFFFFFEA4
:105770007FFFE7FFFE3FFFE3FFFE3FFFE3FFFE1F6C
:10578000FFC07B803FFF8FEFC6CF7BB87B7BB7B777
:105790009BBB7DBC73DBFF83FFFFFFFFFFEFFFFEC3
:1057A000FE01DFECFDFECFC02CFDFEDFDFF1F3FFDD
:1057B000FF7FFFF3FFFC00000FFDFFFFDFFFFFFF98
:1057C000CCFF3DDDFBFFDDF7781E0300C0000003CA
:1057D000C2E3FCFFFF1FCFE3F8FE3F83F1FC0F8322
:1057E000F0380E000000000039FF8FE7FEFFBFEF2A
:1057F000F83FFFBFFFF3FFF8FFFFF87FFF1BFFF746
:10580000DFFF39FFF03FFF9FFFE0FFFFE3FFFF3FB8
:10581000FFF3F7FE7F7E0FF3FFFC000000000000A7
:105820000000006006060063E007FE007C600600E2
:1058300000018003DC007EE006F60063E0073E0026
:105840003180000000000000000000003FFF8FFFDB
:10585000FEFFE00C723FC339F9BB87BBBE7B93E30D
:105860009C601DFFFFFFFFFFFFFFBFA019F38F80AC
:1058700078FBF7073F6337FE797FFFF3FFFC3FFFBD
:105880008FF7F8F0FFC83F3DF3CDDB3CC1B3DE3C02
:105890007FFFFFFFFFFFFF80E01FE7CFFF7CFFF7E9
:1058A000DFFF7DFF87DF81C017FFFF7FFFF3FFFC76
:1058B0001F03F7F8FEFFDFCF1FF0C7FF8CFCFECF02
:1058C000C3EC78E7031F7003FFFFFBEFFF9EDF18B9
:1058D0007FF0E7FF9F7FFDFF31DFF10DFF000CC080
:1058E000000000C6003FF007FF81FFFC3FFFC7FF3D
:1058F000FE7FFFEFFFFEFFFFE7FFFF7FFFFFFFFFE2
:10590000FFFFFFFFFE7FFFE3FFFE3FFFC1FFFC073E
:10591000FF800200300007F8787F8FC6F9FE6F1C09
:1059200067F1C6739C7039C601806000001E1F03BA
:10593000F9FF7F87E71878718FC7B9CE7F9CF3F1A5
:105940008E00006000000000003DAC01DFE00DFEB5
:1059500003C067F8067F0063FC067FC027ED806602
:10596000DC060CE060CFE00C7E7FCE07FDC000D8E7
:10597000000D0000C000000000000070000F0001DA
:10598000F8003F83E3FFBE7FFF63F9F07384063FB7
:10599000BC71FFE719F67F8E03FC787FFFC3FFEE33
:1059A0001F9860F800020000000000000000081CC2
:1059B00083E3E87C3EDF83EFF836DFC37C7E03C001
:1059C000E200002000E381FE3FDFC3FFB0301F8311
:1059D00001EE200C600002000000000001C0001E6B
:1059E0000F01E1E03F7E03FFC03FFC07FF81FFF8AE
:1059F0007FFF07FFF0FFFF07FFF01FFF807FFC0323
:105A0000FFE03FFE03F3F03E0F03806000003FFF26
:105A10008FF103C0349DF94DCF97DE037DFFFFFF6B
:105A2000FFFFFF1F9C01C3C1917DDB17DF987DFF46
:105A3000E1FE3FFE037FC9F7F5BF015BF7F3FE7C94
:105A4000000000000C0000E0003E003FE03FFE7F51
:105A5000F0EFFC0E7FE003FC003F8007F8007F8042
:105A600007FC003FC003FE003FE001FE001F0000F6
:105A7000000000000000040000E0000E001FE01F16
:105A8000FE7FFCEFF80E7FC063FC003FE003FE00EA
:105A90001FC001FC003F8007F8007FC007FC007CAE
:105AA00000000000000000000001F0003FDC03FFE8
:105AB000C07FF803FC01FFFC1FFFC0FFE803FC00F0
:105AC0003FF03F9FC3FFFC0FFE0037F803FFC01FEE
:105AD000FC01F8000000000000000000E0003F8032
