:020000040800F2
:10000000F0090020CD010008DD0C0008790300088C
:10001000D90C0008BF020008AD1000080000000065
:10002000000000000000000000000000E10C0008DB
:10003000C302000800000000DF0C0008E50D000806
:10004000E7010008E7010008E7010008E7010008F0
:10005000E7010008E7010008DD020008E7010008E9
:1000600059030008E7010008E7010008E70100085C
:10007000E7010008E7010008E7010008E7010008C0
:10008000E7010008E7010008E7010008E7010008B0
:10009000E7010008E7010008E7010008E7010008A0
:1000A000E7010008E7010008E7010008E701000890
:1000B000E7010008550E0008590E0008E701000886
:1000C000E7010008E7010008E7010008E701000870
:1000D000E7010008E7010008E7010008E701000860
:1000E000F1020008E7010008E7010008E701000845
:1000F000E7010008E7010008E7010008E701000840
:10010000E7010008E7010008E7010008E70100082F
:10011000E7010008E7010008E7010008E70100081F
:10012000E7010008E7010008E7010008E70100080F
:1001300000F002F800F03AF80AA090E8000C8244BF
:100140008344AAF10107DA4501D100F02FF8AFF29C
:10015000090EBAE80F0013F0010F18BFFB1A43F0A5
:10016000010318473037000050370000103A24BF11
:1001700078C878C1FAD8520724BF30C830C144BF0C
:1001800004680C607047000000230024002500264E
:10019000103A28BF78C1FBD8520728BF30C148BFEA
:1001A0000B6070471FB51FBD10B510BD00F050F8B3
:1001B0001146FFF7F7FF01F017FA00F06EF803B4ED
:1001C000FFF7F2FF03BC00F073F800000948804716
:1001D00009480047FEE7FEE7FEE7FEE7FEE7FEE729
:1001E000FEE7FEE7FEE7FEE704480549054A064B41
:1001F00070470000F50D000831010008F0030020F1
:10020000F0090020F0050020F005002010B5431C87
:1002100002E010F8011B71B18107FAD14FF00132F1
:1002200002C88C1A8C4314EAC211F9D0C01A0A060B
:1002300003D0C01E10BDC01A10BD0A0401D0801E1C
:1002400010BD0902FCD0401E10BD704770477047BA
:10025000754600F029F8AE4605006946534620F081
:100260000700854618B020B5FFF7BEFFBDE8204067
:100270004FF000064FF000074FF000084FF0000B62
:1002800021F00701AC46ACE8C009ACE8C009ACE815
:10029000C009ACE8C0098D4670470446AFF3008042
:1002A0002046FFF78CFF0000004870478C030020B9
:1002B00001491820ABBEFEE726000200704700BFD0
:1002C000FEE77047002100E0491C8142FCD37047E3
:1002D000002100E0491C8142FCD370470120024903
:1002E0000870024908607047D100002014040140E2
:1002F00010B515488468154800680B2807D10A20F6
:10030000FFF7E0FF4FF400601149086010BD04F4EE
:10031000806050B10D480068C0F10A01012088409A
:100320000C49096808430B49086008480068401CEC
:10033000064908600A20FFF7C5FF4FF40060044932
:10034000086000BFE2E7000000100140D800002074
:1003500014040140D400002000200449087001204A
:10036000034908700420034908607047D00000204A
:10037000D10000201404014000BFFEE7204880693E
:1003800040F010001E4988611E48406820F47F40FC
:100390001C4948600846406840F4084048600846E8
:1003A000C06840F40060C8601548806940F00100F2
:1003B000134988611448006920F4704112480161B2
:1003C000006940F40051104801611048006840F491
:1003D00000600E4908600D480C30006840F4006071
:1003E0000A490C3108606521094801700948006814
:1003F00040F480704FF0E021C1F804017047000024
:1004000000100240001001400000014000040140C3
:1004100028E400E004E100E01048806940F00800B2
:100420000E4988610846806940F0400088610C48A8
:10043000006820F470000A4908600846006840F42B
:10044000401008600748006820F470000549086003
:100450000846006840F440100860704700100240F1
:10046000000C014000180140014601F00702120291
:10047000054B18684FF6FF031840044B1843104310
:10048000014B1860704700000CED00E00000FA0519
:1004900010B503460C462A2000F014FA181200F09A
:1004A0000BFAD8B200F008FA591C081200F004FA4E
:1004B000591CC8B200F000FA2B2000F003FA2012F9
:1004C00000F0FAF9E0B200F0F7F9611C081200F050
:1004D000F3F9611CC8B200F0EFF92C2000F0F2F93A
:1004E000104600F0E9F910BDF0B507460C46059D31
:1004F00000262A2000F0E6F9201200F0DDF9E0B233
:1005000000F0DAF91119491EC1F30F2000F0D4F9F7
:100510001119491EC8B200F0CFF92B2000F0D2F912
:10052000181200F0C9F9D8B200F0C6F9E918491E4E
:10053000C1F30F2000F0C0F9E918491EC8B200F05D
:10054000BBF92C2000F0BEF900BF03E0384600F0F4
:10055000B3F9761C02FB05F0B042F7D8F0BD0000FD
:1005600000B55948406940F48070574948610846D1
:10057000806940F0080088610846806940F02000EA
:1005800088610846806940F04000886108468069BB
:1005900040F4807088614D48006820F00F004B499E
:1005A00008600846006840F003000860484800689A
:1005B00048490840464908600846006846490843DB
:1005C00043490860081F006800F0FF20091F086009
:1005D0000846006840F0BB100860404800680020F2
:1005E0003E4908600846006840F0BB300860081FBC
:1005F000006820F07040091F08600846006840F05D
:10060000304008603648406820F470203449486023
:100610000846406840F4302048600846006820F0F2
:100620000F0008600846006840F00B0008600020DA
:100630004FF020418861C8612A4908604FF020408E
:10064000806940F480504FF02041886108468069FD
:1006500040F4804088610846806940F0100088615D
:100660000846C069C8610846C06940F00100C86119
:100670000846C06940F47060C8611A480068C1F853
:100680001C0118480068C1F81C010846D0F81C017C
:1006900040F44070C1F81C010846806940F0010038
:1006A000886100F03EF80948006820F00F00074913
:1006B00008600846006840F0030008600120034914
:1006C0001031086000BD000000100240000C014025
:1006D0000414014000F0FF00BB0B00BB04180140F4
:1006E000002001401C0100A02DE9F04106460F4604
:1006F0001546984600240DE02A5D06EBC40188B239
:100700004346394600F02EF842F21070FFF7E0FD44
:10071000601CC4B22846FFF779FDA042ECD8BDE8C2
:10072000F08100B5012000F0CDF8112000F0CAF8EA
:100730003A2000F0C7F8552000F0BEF8292000F05C
:10074000C1F8362000F0BEF8AA2000F0B5F80B2062
:1007500000F0B8F8202000F0AFF8202000F0ACF84E
:1007600000BD00002DE9FF4F82B006468B461446BF
:10077000102508200190B246CDF800B0202C01DBF6
:100780007F2C02DD06B0BDE8F08FA4F12000C4B2DA
:10079000002736E04FF000092CE04FF0000822E07F
:1007A0001C4800EB0410012101EB4801C91B405C0F
:1007B00040FA09F000F0010020B15046059A009976
:1007C000FFF766FE0AF101001FFA80FA0198304433
:1007D000504504DCB2460098401C80B2009008F1FD
:1007E000010000F0FF0801988045D9DB09F1010004
:1007F00000F0FF0905EBD571B9EB610FCDDB781C7B
:10080000C7B2E91705EB5171B7EBE10FC2DB00BFCF
:10081000B8E70000602C00082DE9F84F82460C462E
:1008200015464FF0140814200090D34604EB08003E
:10083000401E1FFA80F9112D01DDBDE8F88F00265A
:100840002BE0082725E005EBC50000EB0510184953
:1008500001EB4000805D791E084100F0010038B1D5
:10086000144830F8250082B249465846FFF710FE7A
:10087000A9F101001FFA80F9A14508DA04EB08008C
:10088000401E1FFA80F90BF101001FFA80FB781E51
:10089000C7B2002FD7DC701CC6B2009908FB01F06C
:1008A000C11700EB5171B6EBE10FCADB00BFC4E723
:1008B000B032000804360008014908807047000083
:1008C0000008006C0149088070470000FE07006CBA
:1008D0002448806940F00800224988612248006865
:1008E00020F0F000204908600846006840F0100041
:1008F000086002201C49143108601B48001D006874
:1009000020F470201849091D08600846006840F46A
:1009100080300860881414491031086011488069DB
:1009200040F080000F498861104800686FF30B00A9
:100930000E4908600846006840F008000860084654
:10094000006840F0100008600846006840F400604D
:100950000860881505490C310860400008604000B7
:100960000860704700100240000C0140041C014068
:100970002DE9F05F05460E46300102F011F8814680
:10098000284905FB01F002F00BF88246494601F0C8
:1009900025FF0746384601F0E3FF84B2204601F008
:1009A000FFFF8346394602F0DBF882464FF0834171
:1009B00002F00AF8814601F0D3FF80464FF6FF703F
:1009C00000EA041404EB080084B21748806940F080
:1009D0000400154988610846806940F480408861B8
:1009E0001248006820F47F601049086008460068DB
:1009F00040F40B6008600C48C06840F480400A492D
:100A0000C8600846C06820F48040C8600848048078
:100A1000001D008842F2080108430549091D0880AD
:100A2000BDE8F09F40420F00001002400408014062
:100A3000083801402DE9F05F05460E46300101F00F
:100A4000AFFF8146284905FB01F001F0A9FF82466E
:100A5000494601F0C3FE0746384601F081FF84B2E3
:100A6000204601F09DFF8346394602F079F8824620
:100A70004FF0834101F0A8FF814601F071FF8046ED
:100A80004FF6FF7000EA041404EB080084B2174824
:100A9000806940F00400154988610846C06940F447
:100AA0000030C8611248006820F47F401049086097
:100AB0000846006840F40B4008600C48006940F4A8
:100AC00000300A4908610846006920F400300861D6
:100AD00008480480001D008842F2080108430549C7
:100AE000091D0880BDE8F09F40420F000010024041
:100AF000000801400844004007210020234A5268B2
:100B0000234B1A40214B5A601A461268214B1A4057
:100B10001E4B1A601A46126842F480321A6000BFF7
:100B20001A4A1268520C002AFAD04FF48062174B0E
:100B30005A601A46526842EA81425A601A4652681E
:100B400042F480325A60144A126842F03202124B68
:100B50001A600E4A126842F080720C4B1A6000BF95
:100B60000A4A1268520E002AFAD0084A526842F025
:100B70000202064B5A6005E0044A5268C2F387003D
:100B800000F003000228F7D1704700000010024077
:100B90000000FFF8FFFFF6FE0020024021488069B8
:100BA00040F040001F4988611F48006820F47060D1
:100BB0001D4908600846006840F4006008601A4853
:100BC0000C30006840F0040017490C3108601548EB
:100BD000806940F00100134988611448806820F45E
:100BE0007060124988600846806840F480608860C0
:100BF0000F48006840F004000D4908600C480C30B4
:100C0000006840F004000A490C3108606521094879
:100C100001700948006840F480704FF0E021C1F88D
:100C20000001704700100240001801400000014020
:100C30000004014008E400E000E100E02048806991
:100C400040F004001E4988611E48006820F00F0033
:100C50001C4908600846006840F008000860194810
:100C60000C30006820F0010016490C31086014486F
:100C7000806940F00100124988611348806820F0C3
:100C80000F00114988600846806888600F48006836
:100C900040F001000D4908600C480C30006840F03D
:100CA00001000A490C3108603521094801700948E2
:100CB000006840F040004FF0E021C1F800017047AB
:100CC0000010024000080140000001400004014003
:100CD00006E400E000E100E000BFFEE77047704777
:100CE000704700002020014908607047100C014047
:100CF00020200149086070471018014010B500F02D
:100D000001F810BD0CB50020019000903348006838
:100D100040F480303149086000BF3048006800F47A
:100D2000003000900198401C0190009818B901987B
:100D3000B0F5A06FF1D12948006800F4003010B17F
:100D40000120009001E0002000900098012843D18C
:100D50002348006840F010002149086008460068F8
:100D600020F0030008600846006840F002000860B8
:100D70001A48406819494860084640684860084673
:100D8000406840F4806048600846406820F47C1069
:100D900048600846406840F4E8104860084600682B
:100DA00040F08070086000BF0C48006800F00070E0
:100DB0000028F9D00948406820F00300074948603E
:100DC0000846406840F00200486000BF03484068A1
:100DD00000F00C000828F9D10CBD00000010024002
:100DE0000020024002480078401C0149087070470A
:100DF000C000002010B51348006840F00100114900
:100E0000086008464068104908400E494860084696
:100E100000680E4908400B4908600846006820F445
:100E2000802008600846406820F4FE0048604FF4C7
:100E30001F008860FFF762FF4FF000600449086000
:100E400010BD0000001002400000FFF8FFFFF6FE9A
:100E500008ED00E0704700000848008800F001003D
:100E600028B10748006880F0200005490860034861
:100E7000008820F0010001490880704710080040F8
:100E80000C180140012803D10103044A116004E059
:100E90004FF48051014A121D11607047100C01403F
:100EA000012803D14102044A116004E04FF40071AB
:100EB000014A121D11607047101C014010B5044614
:100EC00000230020FFF7DEFF0120FFF7E9FF00F01D
:100ED000D7F86A48006800F4806008B942F21073DD
:100EE000E21704EB9272901000EBD0725210A0EB5C
:100EF0004202012A03D10120FFF7D2FF02E00020C5
:100F0000FFF7CEFF00F0BCF804EBD472501000EBFA
:100F1000D0725210A0EB4202012A03D10120FFF748
:100F2000BFFF02E00020FFF7BBFF00F0A9F820465A
:100F300004EBD0714910A4EB4101012903D1012038
:100F4000FFF7AEFF02E00020FFF7AAFF00F098F8DD
:100F50000120FFF7A5FF00F093F80120FFF7A0FFA5
:100F600000F08EF80020FFF79BFF00F089F80020CA
:100F7000FFF796FF00F084F84048006800F48070A6
:100F800010B103F5006083B200F07AF83B480068C6
:100F900000F4807010B103F5806083B200F070F847
:100FA0003648006800F4807010B103F5007083B219
:100FB00000F066F83148006800F4807010B103F565
:100FC000807083B200F05CF82C48006800F48070F8
:100FD00010B103F1800083B200F052F82748006896
:100FE00000F4807010B103F1400083B200F048F8C3
:100FF0002248006800F4807010B103F1200083B231
:1010000000F03EF81D48006800F4807010B103F154
:10101000100083B200F034F81848006800F48070C3
:1010200010B103F1080083B200F02AF813480068F9
:1010300000F4807008B1181D83B200F021F80F4849
:10104000006800F4807008B1981C83B200F018F8B2
:101050000A48006800F4807008B1581C83B200F0A0
:101060000FF800F00DF800F00BF800F009F800F0B0
:1010700007F80120FFF706FF184610BD081C0140C5
:10108000022002490860091D08607047100C0140E9
:101090008021054A108000BF034A121F12880A40AF
:1010A000002AF9D0704700000438014000BFFEE775
:1010B0002DE9F843002484E000257DE0434800EB5F
:1010C0000410405D4138424951F82070002F2CDB5C
:1010D000404800EB0410405D38B30B2C01D10120D7
:1010E00004E0C4F10B0000EB8000800086B2012E0A
:1010F00001D1132000E01420804605EB85004FF657
:10110000FF7202EA8001334614220020CDF80080ED
:10111000FFF7EAF9FAB205EB85014FF6FF7303EA30
:1011200081003146FFF778FB21E02A4800EB0410EC
:10113000405DE0B10B2C01D1012004E0C4F10B00B3
:1011400000EB8000800086B2012E01D1132000E068
:101150001420804605EB85004FF6FF7202EA8001FD
:10116000334614220020CDF80080FFF7BDF91A485D
:1011700000EB0410405D4138154951F82070002FF4
:1011800018DB144800EB0410405D98B10B2C01D122
:10119000012004E0C4F10B0000EB8000800086B267
:1011A000FAB205EB85014FF6FF7303EA8100314681
:1011B000FFF732FB681C85B2102DFFF67FAF601C75
:1011C00084B20C2CFFF678AFBDE8F883E400002071
:1011D0004836000864020020A40100202DE9F041F7
:1011E0009AB04FF0000800240CE0002506E0002033
:1011F0005B4901EB04114855681C85B2102DF6DBE4
:10120000601C84B20C2CF0DB5648007810B91AB080
:10121000BDE8F08100240CE0534850F8240000F0B1
:10122000807020B1404608F101084DF82040601C54
:1012300084B21A2CF0DB00241BE0002515E0002608
:101240000FE05DF82610494800EB0410405D61385E
:10125000814204D104222946204600F043FD701C3F
:1012600086B24645EDDB681C85B2102DE7DB601CBD
:1012700084B20C2CE1DB00F093FC002437E0002565
:101280002FE0AC422BD03A48005D6138364951F826
:1012900020003749495D613901228A401040F0B190
:1012A00000261AE0002714E0304800EB0610C05D6D
:1012B0002F49095D88420AD12D48405D2B4901EB39
:1012C0000611C8550120264901EB0611C855781CA6
:1012D00087B2102FE8DB701C86B20C2EE2DB681C94
:1012E00085B2244800688542CBDB601C84B221486B
:1012F00000688442C3DBFFF7DBFE002413E0002517
:101300000DE01D4800EB0410405D5F2805D005206E
:1013100014490870012019490870681C85B2102D05
:10132000EFDB601C84B20C2CE9DB002413E00E48D8
:1013300050F8240000F4800058B10B4850F8240005
:1013400000F0807028B105200649087001200B4983
:101350000870601C84B21A2CE9DB00BF57E700005C
:1013600064020020D000002024030020E4000020BC
:10137000C2000020C8000020A4010020D1000020ED
:101380002DE9F0419AB04FF0000800240CE0002550
:1013900006E000205B4901EB04114855681C85B24A
:1013A000102DF6DB601C84B20C2CF0DB5648007864
:1013B00010B91AB0BDE8F08100240CE0534850F891
:1013C000240000F0807020B1404608F101084DF87B
:1013D0002040601C84B21A2CF0DB00251BE00024A6
:1013E00015E000260FE05DF82610494800EB0410D8
:1013F000405D6138814204D101222946204600F037
:1014000071FC701C86B24645EDDB601C84B20C2C6E
:10141000E7DB681C85B2102DE1DB00F0C1FB002486
:1014200037E000252FE0AC422BD03A48005D613810
:10143000364951F820003749495D613901228A4017
:101440001040F0B100261AE0002714E0304800EB0D
:101450000610C05D2F49095D88420AD12D48405DC4
:101460002B4901EB0611C8550120264901EB061155
:10147000C855781C87B2102FE8DB701C86B20C2E82
:10148000E2DB681C85B2244800688542CBDB601C27
:1014900084B2214800688442C3DBFFF709FE0024C0
:1014A00013E000250DE01D4800EB0410405D5F28AF
:1014B00005D0052014490870012019490870681CDE
:1014C00085B2102DEFDB601C84B20C2CE9DB00240C
:1014D00013E00E4850F8240000F4800058B10B4887
:1014E00050F8240000F0807028B1052006490870EB
:1014F00001200B490870601C84B21A2CE9DB00BF84
:1015000057E7000064020020D000002024030020E0
:10151000E4000020C2000020C8000020A401002038
:10152000D10000202DE9F8430646F02000234FF4B7
:10153000A072194600901846FEF7D6FF042E01DD72
:10154000BDE8F88300243BE0002535E006EB4600CB
:10155000204901EB001050F82400405D41381E493D
:1015600051F82070002F14DB0B2C01D1012004E076
:10157000C4F10B0000EB800080001FFA80F8FAB283
:1015800005EB85014FF6FF7303EA81004146FFF743
:1015900043F906EB46000F4901EB001050F8240018
:1015A000405D0E4901EB041148555F200C4901EBE9
:1015B00004114855681C85B2102DC7DB601C84B22D
:1015C0000C2CC1DB00200749086000F0E9FA00BFDD
:1015D000B6E700000000002048360008E4000020C4
:1015E000A4010020E000002008B5FFF785FAFEF70F
:1015F00013FF4FF416514820FFF7BAF94FF4165174
:101600002420FFF717FAFFF763F9FEF7A9FF05207B
:10161000FEF72AFFFFF7C2FAFFF710FBFEF7AEFE58
:10162000FE48FEF74FFEFFF75DFBFFF761FBF02082
:1016300000234FF4A072194600901846FEF754FF9D
:1016400042F21070FEF73EFE4FF6FF73F4A2C8217F
:101650004620FFF749F84FF47843F4A2C8219E20B2
:10166000FFF742F84FF6FF73F3A2A0214120FFF7E6
:101670003BF84FF6FF73F6A28C214120FFF734F8B8
:1016800040F2FF73F8A250214120FFF72DF800200F
:10169000FC49087010E0FB49097801EB81018900E1
:1016A00001F12800F7490A781421FFF7B5F8F54849
:1016B0000078401CF3490870F24800780C28EADBF7
:1016C000F148FEF7FFFD00BF0520FFF7F7FBEF49EC
:1016D00008800120FFF7F2FBED4908804FF47A7093
:1016E000FEF7F0FDE948008842F2107190FBF1F03E
:1016F00028B9E748008890FBF1F00028E4D0E548DD
:10170000FEF7E0FD41E2E44800680B2835D3E348EA
:10171000006820F40060E1490860FF20FFF7B8FC92
:101720000820D849087019E0D6480078C0F10A01AD
:1017300001208840DA490968084050B1D148007852
:10174000401E012101FA00F0D64909780843D54925
:101750000870CC480078401ECA490870C948007813
:101760000128E1DA0020CC490860CD490860CB4867
:10177000006840F40060C9490860CA4800786B28D6
:1017800025D0732804D0742840D075287DD15CE022
:10179000C248006820F40060C04908601120FFF7CB
:1017A00077FC00F0E7FEC0480068401CBE490860B6
:1017B0009A48FEF787FDB948006840F40060B749D1
:1017C00008600020B4490860B549086067E0B34884
:1017D000006820F40060B14908602120FFF758FC40
:1017E000FFF7CEFDB0480068401CAF4908608B4849
:1017F000FEF768FDA948006840F40060A74908604A
:101800000020A5490860A649086048E0A348006890
:1018100020F40060A14908603120FFF739FC00F096
:10182000D7FDA1480068401C9F4908607B48FEF72F
:1018300049FD9A48006840F400609849086000201B
:10184000954908609649086029E09448006820F4AA
:101850000060924908604120FFF71AFCFFF7BEFCC8
:1018600091480068401C904908606C48FEF72AFDCA
:101870008A48006840F40060884908600020864972
:101880000860874908600AE0FFE7834800680B2882
:1018900004D30020804908608149086000BF00BF70
:1018A0000020804908708148007800287CD1804859
:1018B000007870B3F02000234FF4A0721946009016
:1018C0001846FEF711FE4FF6FF737AA2B4214120AD
:1018D000FEF70AFF4AF6FF737CA278213220FEF75A
:1018E00003FF4FF6FF337AA278216E20FEF7FCFE4D
:1018F0004FF6CF7377A27821AA20FEF7F5FE4FF6B8
:10190000FD7375A27821E620FEF7EEFE00206849FF
:1019100008700520FFF7D2FA5C4908800846008865
:1019200042F6CC1188425EDB5848008842F694218A
:10193000884258DC42F21070FEF7C4FC0520FFF725
:10194000BDFA524908800846008842F6CC11884208
:1019500049DB4E48008842F69421884243DC01204E
:10196000FFF7ACFA4A4908800846008842F6285139
:10197000884209DB4648008842F6F051884203DC81
:1019800001204A4908702EE04148008842F698310B
:1019900088420ADB3E48008842F66041884204DC07
:1019A0000220424908701EE023E03948008842F6D0
:1019B0000821884209DB3648008842F6D021884257
:1019C00003DC0320394908700DE03148008842F6F5
:1019D0007801884207DB2E480088B0F5255F02DCDD
:1019E0000420324908703148007810B10120304994
:1019F00008702E480078012808D12D48007828B1B9
:101A00000020FFF78FFD0020294908702748007843
:101A100002286AD12648007860E066E040420F0064
:101A200057656C636F6D6520746F20004261626161
:101A300020697320596F75004C7569204B77616E72
:101A4000204B696E20313135353131303436390033
:101A5000576F6E672057616E204B692031313535E5
:101A60003132343834330000507265737320616E44
:101A700079776865726520746F20626567696E2189
:101A800000000000C1000020A0860100CC00002062
:101A9000CE000020A0252600D80000200004014030
:101AA000D4000020DC000020E0000020D000002056
:101AB000D1000020506C656173652063686F6F739F
:101AC0006520746865206C6576656C0031000000E7
:101AD00032000000330000003400000028B1012073
:101AE000FFF720FD002029490870294800780328C5
:101AF00016D12648007898B1F02000234FF4A07248
:101B0000194600901846FEF7EFFC4AF6FF73AFF255
:101B10003C0278213220FEF7E7FD00201B490870C7
:101B20001B480078042816D11848007898B1F02096
:101B300000234FF4A072194600901846FEF7D4FC1B
:101B40004AF6FF73AFF2700278213220FEF7CCFD27
:101B500000200E4908700E480078052815D10B4862
:101B6000007890B15020034664221146009043F261
:101B70008A20FEF7B9FC4FF6FF7306A291216E2072
:101B8000FEF7B2FD002001490870BCE5D10000203D
:101B9000D0000020596F752077696E210000000089
:101BA00010B5002005E000224C4B43F82020421CD9
:101BB00090B21A28F7DB00208BE0002184E0484A2D
:101BC00002EB0012525C412A7CDB454A02EB001218
:101BD000525C5A2A76DC424A02EB0012525C492AD5
:101BE00070D04A1C102A37DA3D4A02EB00134A1C17
:101BF0009A5C492A30D18A1C102A2DDA384A02EB25
:101C000000138A1C9A5C412A26DB354A02EB00133A
:101C10008A1C9A5C5A2A1FDC314A02EB00138A1C88
:101C20009A5C492A18D02E4A02EB0012525C413AC3
:101C30002A4B53F822202A4B03EB00148B1CE35C45
:101C4000413B01249C402243254B03EB00135B5C8A
:101C5000413B224C44F82320421C0C2A32DA204B10
:101C600003EB0212525C492A2CD1821C0C2A29DA7D
:101C700003EB0212525C412A24DB821C03EB0212AA
:101C8000525C5A2A1EDC821C03EB0212525C492A67
:101C900018D01A4602EB0012525C413A0F4B53F82F
:101CA00022200F4C831C04EB03135B5C413B01249B
:101CB0009C4022430A4B03EB00135B5C413B074C07
:101CC00044F823204A1C91B21029FFF678AF421C39
:101CD00090B20C28FFF671AF10BD00002403002065
:101CE000E400002070B504460D461646012E7DD155
:101CF00005B970BDFE4800EB0411681E085C5F2842
:101D000019D1FB4800EB0410415DF94800EB0412C7
:101D1000681E11545F20F64901EB0411485501215A
:101D2000F44800EB0412681E11540120F14901EB44
:101D300004114855DDE7EE4800EB0411681E085C0D
:101D4000412806DBEA4800EB0411681E085C5A28AB
:101D500012DDE74800EB0411681E085C612832DBE5
:101D6000E34800EB0411681E085C6138E24931F871
:101D7000200000F4004030B3681E81B201222046EA
:101D8000FFF7B0FFDA4800EB0411681E085C5F281B
:101D90007ED1D74800EB0410415DD54800EB04121A
:101DA000681E11545F20D24901EB041148550121EE
:101DB000D04800EB0412681E11540120CD4901EBFC
:101DC0000411485595E7CA4800EB0411681E085CE9
:101DD000612824DBC64800EB0411681E085C6138EA
:101DE000C54951F8200000F4002000E058E0B0B1EF
:101DF0005F20BF4901EB041148555F21BC4800EB4F
:101E00000412681E11540120BA4901EB041148550F
:101E10000121B84800EB0412681E115469E7B44868
:101E200000EB0411681E085C612838DBB04800EB49
:101E30000411681E085C6138AF4951F8200000F4B5
:101E4000800030B3AA4800EB0410405D612826DB17
:101E5000A74800EB0410405D613851F8200000F005
:101E60008070B0B1A24800EB0410415DA34800EBC4
:101E70000412681E11545F209D4901EB041148555E
:101E800001209C4901EB041148550121994801E0CA
:101E9000D8E004E000EB0412681E115429E728E79B
:101EA000022E7CD10F2D00D123E7914800EB0411C5
:101EB000681C085C5F2819D18D4800EB0410415D57
:101EC0008B4800EB0412681C11545F20884901EB19
:101ED000041148550121874800EB0412681C115475
:101EE0000120844901EB0411485502E7804800EBCA
:101EF0000411681C085C412806DB7D4800EB0411D6
:101F0000681C085C5A2812DD794800EB0411681C33
:101F1000085C612832DB764800EB0411681C085C21
:101F20006138754931F8200000F4004030B3681C76
:101F300081B202222046FFF7D5FE6D4800EB041166
:101F4000681C085C5F287DD1694800EB0410415D86
:101F5000674800EB0412681C11545F20644901EBD0
:101F6000041148550121634800EB0412681C115408
:101F70000120604901EB04114855BAE65C4800EBCA
:101F80000411681C085C612824DB594800EB04112B
:101F9000681C085C6138584951F8200000E059E09D
:101FA00000F40020B0B15F20514901EB0411485505
:101FB0005F214F4800EB0412681C115401214D4869
:101FC00000EB0412681C115401204A4901EB041172
:101FD00048558EE6464800EB0411681C085C6128F1
:101FE00037DB434800EB0411681C085C6138424948
:101FF00051F8200000F4800058B33D4800EB041075
:10200000405D612825DB3A4800EB0410405D6138F3
:1020100051F8200000F08070D8B1354800EB041072
:10202000415D364800EB0412681C11545F203049B2
:1020300001EB0411485501202E4901EB04114855CC
:10204000012100E0DFE02B4800EB0412681C115472
:102050004FE64EE6032E72D10B2C00D149E62449FF
:10206000601C01EB0010405D5F2819D1084600EBB1
:102070000410415D1E4A601C02EB001041555F20B8
:10208000114601EB0411485501211A4A601C02EB6C
:10209000001041550120114601EB0411485528E676
:1020A0001349601C01EB0010405D412805DB601CFA
:1020B00001EB0010405D5A2811DD0D49601C01EB59
:1020C0000010405D61283CDB601C01EB0010405DAE
:1020D0006138094931F8200000F4004080B3611CE8
:1020E00088B203222946FFF7FDFD0149601C07E085
:1020F000E40000206402002024030020A40100204A
:1021000001EB0010405D5F287DD1084600EB041014
:10211000415DAB4A601C02EB001041555F20114647
:1021200001EB041148550121A64A601C02EB001086
:1021300041550120114601EB04114855D9E569E0EC
:10214000FFE79F49601C01EB0010405D612821DB27
:10215000601C01EB0010405D61389B4951F8200084
:1021600000F40020B0B15F20954901EB04114855FF
:102170005F21934A601C02EB001041550121914AF6
:10218000601C02EB001041550120114601EB0411C7
:102190004855AEE58A49601C01EB0010405D61289E
:1021A00037DB601C01EB0010405D6138864951F857
:1021B000200000F4800038B3814800EB0410405D3B
:1021C000612826DB7E4800EB0410405D613851F841
:1021D000200000F08070B8B1794800EB0410415D38
:1021E0007A4A601C02EB001041555F20744901EBF4
:1021F000041148550120734901EB04114855012190
:10220000704A601C01E085E003E002EB00104155DC
:102210006FE56EE5042E7DD104B96AE5601E68495C
:1022200001EB0010405D5F2819D1084600EB041057
:10223000415D601E624A02EB001041555F2011466D
:1022400001EB041148550121601E5E4A02EB0010AB
:1022500041550120114601EB0411485549E5601E26
:10226000574901EB0010405D412805DB601E01EB82
:102270000010405D5A2811DD601E514901EB00102D
:10228000405D612831DB601E01EB0010405D61386C
:102290004D4931F8200000F4004030B3611E88B28F
:1022A00004222946FFF71EFD601E454901EB001080
:1022B000405D5F282ED1084600EB0410415D601E92
:1022C0003F4A02EB001041555F20114601EB04111B
:1022D00048550121601E3B4A02EB00104155012088
:1022E000114601EB0411485503E5601E344901EB2A
:1022F0000010405D612823DB601E01EB0010405D93
:102300006138314951F8200000F40020C0B15F204D
:102310002B4900E051E001EB041148555F21601E9C
:10232000274A02EB001041550121601E254A02EBAD
:10233000001041550120114601EB04114855D8E425
:10234000601E1F4901EB0010405D612834DB601EF8
:1023500001EB0010405D61381B4951F8200000F48A
:10236000800048B3164800EB0410405D612823DB71
:10237000134800EB0410405D613851F8200000F074
:102380008070C8B10E4800EB0410415D601E0F4A1A
:1023900002EB001041555F20094901EB041148553B
:1023A0000120084901EB041148550121601E054A2E
:1023B00002EB001041559CE49BE400BF99E400004F
:1023C000E40000206402002024030020A401002077
:1023D0002DE9F0419AB04FF0000800240CE00025F0
:1023E00006E000205B4901EB04114855681C85B2EA
:1023F000102DF6DB601C84B20C2CF0DB5648007804
:1024000010B91AB0BDE8F08100240CE0534850F830
:10241000240000F0807020B1404608F101084DF81A
:102420002040601C84B21A2CF0DB0F251BE0002436
:1024300015E000260FE05DF82610494800EB041077
:10244000405D6138814204D1022229462046FFF7CF
:1024500049FC701C86B24645EDDB601C84B20C2C36
:10246000E7DB681E85B2102DE1DDFFF799FB002444
:1024700037E000252FE0AC422BD03A48005D6138B0
:10248000364951F820003749495D613901228A40B7
:102490001040F0B100261AE0002714E0304800EBAD
:1024A0000610C05D2F49095D88420AD12D48405D64
:1024B0002B4901EB0611C8550120264901EB0611F5
:1024C000C855781C87B2102FE8DB701C86B20C2E22
:1024D000E2DB681C85B2244800688542CBDB601CC7
:1024E00084B2214800688442C3DBFEF7E1FD00248A
:1024F00013E000250DE01D4800EB0410405D5F284F
:1025000005D0052014490870012019490870681C7D
:1025100085B2102DEFDB601C84B20C2CE9DB0024AB
:1025200013E00E4850F8240000F4800058B10B4826
:1025300050F8240000F0807028B10520064908708A
:1025400001200B490870601C84B21A2CE9DB00BF23
:1025500057E7000064020020D00000202403002080
:10256000E4000020C2000020C8000020A4010020D8
:10257000D10000202DE9F0419AB04FF0000800246E
:102580000CE0002506E000205B4901EB04114855F2
:10259000681C85B2102DF6DB601C84B20C2CF0DBBD
:1025A0005648007810B91AB0BDE8F08100240CE05C
:1025B000534850F8240000F0807020B1404608F1E4
:1025C00001084DF82040601C84B21A2CF0DB0B246B
:1025D0001BE0002515E000260FE05DF826104948B5
:1025E00000EB0410405D6138814204D1032229468A
:1025F0002046FFF777FB701C86B24645EDDB681C72
:1026000085B2102DE7DB601E84B20C2CE1DDFFF7F4
:10261000C7FA002437E000252FE0AC422BD03A481F
:10262000005D6138364951F820003749495D61390C
:1026300001228A401040F0B100261AE0002714E081
:10264000304800EB0610C05D2F49095D88420AD171
:102650002D48405D2B4901EB0611C8550120264944
:1026600001EB0611C855781C87B2102FE8DB701CEF
:1026700086B20C2EE2DB681C85B2244800688542D5
:10268000CBDB601C84B2214800688442C3DBFEF7C8
:102690000FFD002413E000250DE01D4800EB0410A1
:1026A000405D5F2805D005201449087001201949B4
:1026B0000870681C85B2102DEFDB601C84B20C2CF6
:1026C000E9DB002413E00E4850F8240000F48000F9
:1026D00058B10B4850F8240000F0807028B1052054
:1026E0000649087001200B490870601C84B21A2C3E
:1026F000E9DB00BF57E7000064020020D0000020A3
:1027000024030020E4000020C2000020C8000020B4
:10271000A4010020D100002090EA010F48BF81F001
:10272000004100F12E82421A3CBF801A89184FEAFC
:10273000D0524FF07F4C1CEA410FA2EBD15318BF8F
:102740009CEA026F00F03B804FF0004C4CEA002006
:102750004CEA012121FA03FC10EB0C0C1ED202F111
:10276000FF325FEA1C2040EBC25038BF70471CF0BC
:102770007F0F4FEA400C18BFBCF17F4F38BF704746
:10278000C3F12003994008BF20F00100BCF17F4F46
:1027900038BF7047A0F1C04000F0DDB94FEA3C00FF
:1027A000000A40EBC25028BF1CF0FF0F4FEA400C5C
:1027B000E6D018BFBCF17F4F38BF7047EAE79CEA0C
:1027C000026F05D010EA5C0F08BF00F000407047B0
:1027D00010B500F07AF900BF64FBBE3E4FF47F0CE9
:1027E0001CEAD0121EBF1CEAD11392EA0C0F93EA26
:1027F0000C0F00F0858090EA010F48BF42F4807210
:1028000040F4000C41F400002CF07F4120F07F40A8
:1028100000B58142A2EB03020FF2081CACEB504E54
:10282000C0F100009EF800E04FEA4E0E00FB0EFCE7
:1028300038BF49004FEA2C1C02F5FA020CFB0EF3DC
:102840004FEACE1E4FEA112C4FEAC1210EEB635E18
:1028500042EB22420EFB0CFC4FEA1C5300FB03111F
:102860004FEA112C4FEA01310EFB0CFC4FEADC4C15
:1028700000FB0C11C14228BF09184CEB03335DF873
:1028800004EB10EB410143EBC250B2F57C0F38BFB3
:10289000704729D512F0F00F1CBF00F1C04000F0C6
:1028A00000407047008182838485868788898B8C6D
:1028B0008D8E8F919293959697999A9C9D9FA0A2A9
:1028C000A3A5A7A8AAACAEB0B2B3B5B7B9BCBEC0F9
:1028D000C2C5C7C9CCCED1D4D7D9DCDFE2E6E9EC9A
:1028E000F0F3F7FAFE0000004FEA400C0CF1807C98
:1028F000BCF17E4F28BF7047B0F1C04000F02BB94B
:1029000090EA010F0CEAD11348BF42F4807262458D
:1029100038BF634507D213F47F0F16D080EA010059
:1029200000F00040704710B500F0CFF8097EFC3E83
:1029300000F005B880EA010000F00040704780EA2E
:10294000010000F0004000F006B912F47F0F04BF50
:102950000248704780EA010000F0FDB80000C07F27
:10296000C10DD1F19E0206DB4FEA002343F0004384
:1029700023FA02F07047004207D54FEA4001B1F157
:10298000FE4F02D24FF00000704710B500F09DF8E6
:1029900049922480002070476FEA200070470000B1
:1029A000B0FA80F310FA03F2C3F19D030AD0D905FF
:1029B00001EB1220530638BF704700F1010008BF39
:1029C00020F00100704700004FF47F0C1CEAD01289
:1029D0001EBF1CEAD11392EA0C0F93EA0C0F00F011
:1029E000478090EA010F48BF42F480724FF0004CDC
:1029F0004CEA00204CEA012102EB0302A0FB011388
:102A0000A2F50002002918BF43F001035B0028BFB4
:102A10004FEA330342EB22425FEA132C4CEBC250E5
:102A20002EBFBCEB436FB2F57C0F70474FEA036CCF
:102A3000BCF1004F08BF20F00100B2F57C0F38BF99
:102A400070470BD582F0FF0212F5803FC8BF704778
:102A500000F1C040D8BF00F00040704700F5000C06
:102A60005FEA4C0C48BF7047B0F1C04000F073B84B
:102A700090EA010F0CEAD11348BF42F4807262451C
:102A800038BF634504D280EA010000F0004070477F
:102A900010B500F01AF800BF8900013E00F007B839
:102AA00000F009B85FEA410C5FEA1C6C08D080EACC
:102AB000010000F050B85FEA400C5FEA1C6CF6D1F0
:102AC0004FF00040A0F5800070470EF1020E2EF08E
:102AD000030E5EF8044B244204D44FEA4102B2F1E3
:102AE0007F4F11D84FEA4003B3F17F4F0CD80ED17E
:102AF0004FEAD07CB2F17F4F0CEB4C0C0CF1020C86
:102B000008BF4CEBD17C04E04FF0080C01E04FEA29
:102B1000D17C0CEB4C0324FA03F404F00704B4F169
:102B2000040C06D20EEB840CBDE810404CF0010CF6
:102B30006047DFE80CF0070802024FF00040A0F504
:102B4000800010BD0846420018BFD2F1807288BFD5
:102B500000F0004010BDFF2141EAD050C005704791
:102B600080F0004090EA010F7FF5DDAD81F000417B
:102B700000F007B890EA010F48BF81F000413FF52F
:102B8000D2AD421A04D882F00042A0EB02001144F8
:102B90004FEAD0524FF07F4C1CEA410FA2EBD153C9
:102BA00018BF9CEA026F4AD04FF0004C4CEA00205C
:102BB0004CEA012121FA03FCB0EB0C0C0FD412F00B
:102BC000FE0F36D05FEA4C001DD5001240EBC2501C
:102BD00038BF70471CF03F0F18BF70470BE0A2F1E1
:102BE00001025FEA1C2040EBC25038BF70471CF066
:102BF0007F0F18BF7047C3F12003994014BF401ED8
:102C000020F00100704780084FEA122308BF704788
:102C1000B0FA80FCA2EB0C02CCF1280C60FA0CF0AC
:102C200093EA122F04BF00EBC25070474FEAC37003
:102C30007047130A5FEADC1008BF7047F6E79CEAAA
:102C4000026F04D010EA5C0F08BF0020704710B577
:102C5000FFF73BFF40DFF63E81F000407047000089
:102C60000000000000000000000000000000000064
:102C70000000000000001FCC000C0000000000005D
:102C80000000080030006000080030006000000014
:102C9000022003FC1E20022003FC1E200220000054
:102CA00000000E1811043FFF10840C780000000093
:102CB0000F0010840F3800C00778188400780000D7
:102CC00000780F8410C411240E9800E400840008DA
:102CD0000800680070000000000000000000000014
:102CE00000000000000007E0181820044002000067
:102CF000000040022004181807E000000000000057
:102D00000240024001800FF00180024002400000BA
:102D10000080008000800FF80080008000800000AC
:102D20000001000D000E0000000000000000000087
:102D30000000008000800080008000800080008013
:102D40000000000C000C000000000000000000006B
:102D50000000000600180060018006001800200036
:102D6000000007F0080810041004080807F000002D
:102D70000000080408041FFC000400040000000018
:102D800000000E0C10141024104411840E0C0000CE
:102D900000000C1810041104110412880C700000BB
:102DA000000000E00320042408241FFC002400008D
:102DB00000001F9810841104110410881070000086
:102DC000000007F008881104110418880070000042
:102DD00000001C00100010FC13001C00100000007C
:102DE00000000E3811441084108411440E38000085
:102DF00000000700088C10441044088807F0000009
:102E0000000000000000030C030C000000000000A4
:102E100000000000000101060000000000000000AA
:102E20000000008001400220041008081004000087
:102E300002200220022002200220022002200000A4
:102E40000000100408080410022001400080000067
:102E500000000E001200100C106C10800F0000001B
:102E600003E00C1813E4142417C4082807D000004A
:102E70000004003C03C41C40074000E4001C0004A4
:102E800010041FFC1104110411040E8800700000CE
:102E900003E00C1810041004100410081C100000AB
:102EA00010041FFC100410041004080807F00000B0
:102EB00010041FFC1104110417C4100408180000AA
:102EC00010041FFC1104110017C0100008000000BE
:102ED00003E00C181004100410441C78004000009B
:102EE00010041FFC10840080008010841FFC10045C
:102EF0000000100410041FFC100410040000000067
:102F000000030001100110011FFE1000100000005E
:102F100010041FFC110403801464181C100400002A
:102F200010041FFC1004000400040004000C000046
:102F300010041FFC1F0000FC1F001FFC10040000F9
:102F400010041FFC0C04030000E010181FFC10000C
:102F500007F00808100410041004080807F0000027
:102F600010041FFC10841080108010800F000000DF
:102F700007F0081810241024101C080A07F200009B
:102F800010041FFC1104110011C011300E0C0004BC
:102F900000000E1C11041084108410441C38000022
:102FA0001800100010041FFC10041000180000008E
:102FB00010001FF810040004000410041FF8100093
:102FC00010001E0011E0001C007013801C00100097
:102FD0001FC0103C00E01F0000E0103C1FC00000BC
:102FE0001004180C163401C001C01634180C10045B
:102FF00010001C00130400FC13041C00100000004F
:103000000804101C1064108413041C041018000021
:103010000000000000007FFE40024002400200006D
:10302000000030000C0003800060001C0003000062
:1030300000004002400240027FFE0000000000004D
:103040000000000020004000400040002000000080
:103050000001000100010001000100010001000168
:1030600000004000400020000000000000000000C0
:1030700000000098012401440144014400FC0004C4
:1030800010001FFC0088010401040088007000008B
:1030900000000070008801040104010400880000A1
:1030A0000000007000880104010411081FFC0004E6
:1030B000000000F8014401440144014400C800003C
:1030C0000000010401040FFC110411041100180098
:1030D000000000D601290129012901C901060000CB
:1030E00010041FFC008401000100010400FC000426
:1030F00000000104190419FC000400040000000091
:103100000000000300010101190119FE0000000088
:1031100010041FFC0024004001B4010C0104000055
:103120000000100410041FFC000400040000000054
:10313000010401FC0104010001FC0104010000FC88
:10314000010401FC008401000100010400FC0004F2
:10315000000000F8010401040104010400F800006B
:10316000010101FF008501040104008800700000D6
:1031700000000070008801040104010501FF000146
:103180000104010401FC008401040100018000002D
:10319000000000CC01240124012401240198000036
:1031A00000000100010007F8010401040000000014
:1031B000010001F8000400040004010801FC0004FF
:1031C000010001800170000C00100160018001000D
:1031D00001F0010C003001C00030010C01F00100D1
:1031E00000000104018C00740170018C01040000D6
:1031F000010101810171000E0018016001800100D0
:1032000000000184010C013401440184010C000020
:10321000000000000000000001003EFC40024002EF
:103220000000000000000000FFFF000000000000A0
:103230000000400240023EFC0100000000000000CF
:10324000000060008000800040004000200020005E
:10325000000004002402240225F42554FD582550C2
:1032600027F02550FD50255825F4240404020000C1
:103270000004040404080C30146027C0C4000400D7
:1032800007F00408240814080C0806080038000099
:1032900010401080910073FF1500188200043FF861
:1032A00022002200220023FF42004600020000000C
:1032B000000000000001F0003F9C03FFC03FF80346
:1032C000FC01FFFC1FFFC0FFC003FC003FF03F9F5D
:1032D000C3FFDC0FFC0033C003FFC01FF800F00089
:1032E0000000000000000000000000001FF803FFC5
:1032F000FE3FFFE7FFE679FE679FE07FFFE73FFEC7
:1033000073FC63FF863FF80000000000000000002F
:10331000000000000000000006000060003E001FEA
:10332000E07FEE7FF0E7FC0E67C047F8007FC00744
:10333000FC007FC003FE003FE001FC003FC003F83B
:10334000007E00020000701B2FE1801F9FE1E3FE62
:10335000BE3001FB002FB2AFF3FEF03E601B6607EC
:10336000B063F300FE3FEFDBFEFC3783FB7C0FBF57
:10337000E01BEE201421001003DA01EEF81DDF80BF
:10338000FFFE7FECEE0FF3FFDDE7FFDFFF7CF9F8D8
:103390007C7CDEFF3DFBFBF75FC7CF39FEF7FFCE3E
:1033A0006EF787FF7E3CEFC079C80000103C0E7FAF
:1033B000C3EFFC78FC3F8EC3F8FC3F8CC0FC40019F
:1033C000E0000F3F87C7FDFC73FDE01F3F01F37076
:1033D0001F3F01FFC0093C00000000003C3F87C0C8
:1033E0007EFFE1EFFE3FFFC7FFFC1FFFE1FFF83F5D
:1033F000F83FFFFFFFFE01FFE01FFFA3FFE01FFFFD
:103400001FFFF8FFFFC3F7F03F7CFFF3FFFC01F85D
:10341000007FF03FFF83FFFE7FFFE3FFFE3FFFE7FC
:10342000FFFE7FFFFFFFFFFFFFFFFFFE7FFFE7FFC6
:10343000FE3FFFE3FFFE3FFFE3FFFE1FFFC07B8079
:103440003FFF8FEFC6CF7BB87B7BB7B79BBB7DBC05
:1034500073DBFF83FFFFFFFFFFEFFFFEFE01DFECEB
:10346000FDFECFC02CFDFEDFDFF1F3FFFF7FFFF39A
:10347000FFFC00000FFDFFFFDFFFFFFFCCFF3DDD86
:10348000FBFFDDF7781E0300C0000003C2E3FCFF72
:10349000FF1FCFE3F8FE3F83F1FC0F83F0380E00EF
:1034A0000000000039FF8FE7FEFFBFEFF83FFFBFCE
:1034B000FFF3FFF8FFFFF87FFF1BFFF7DFFF39FF88
:1034C000F03FFF9FFFE0FFFFE3FFFF3FFFF3F7FE4B
:1034D0007F7E0FF3FFFC0000000000000000006092
:1034E00006060063E007FE007C6006000001800322
:1034F000DC007EE006F60063E0073E00318000005D
:1035000000000000000000003FFF8FFFFEFFE00C06
:10351000723FC339F9BB87BBBE7B93E39C601DFF41
:10352000FFFFFFFFFFFFBFA019F38F8078FBF707B6
:103530003F6337FE797FFFF3FFFC3FFF8FF7F8F023
:10354000FFC83F3DF3CDDB3CC1B3DE3C7FFFFFFF57
:10355000FFFFFF80E01FE7CFFF7CFFF7DFFF7DFF6E
:1035600087DF81C017FFFF7FFFF3FFFC1F03F7F822
:10357000FEFFDFCF1FF0C7FF8CFCFECFC3EC78E768
:10358000031F7003FFFFFBEFFF9EDF187FF0E7FFD5
:103590009F7FFDFF31DFF10DFF000CC0000000C672
:1035A000003FF007FF81FFFC3FFFC7FFFE7FFFEFFB
:1035B000FFFEFFFFE7FFFF7FFFFFFFFFFFFFFFFFB4
:1035C000FE7FFFE3FFFE3FFFC1FFFC07FF8002001D
:1035D000300007F8787F8FC6F9FE6F1C67F1C6735D
:1035E0009C7039C601806000001E1F03F9FF7F87B1
:1035F000E71878718FC7B9CE7F9CF3F18E00006019
:1036000000000000FFFF000000FC000031F7000098
:10361000FA64000088AD000031F7000031F70000C7
:10362000FA640000E44A0000CDD90000CDD90000C2
:10363000FFFF0000FA6400004893000088AD00001E
:103640004893000048930000FFFFFFFF09000000BF
:10365000FFFFFFFFFFFFFFFFFFFFFFFF0500000071
:103660000E000000FFFFFFFF0B000000FFFFFFFF49
:10367000FFFFFFFFFFFFFFFFFFFFFFFFFFFFFFFF5A
:10368000FFFFFFFF0D000000FFFFFFFF1000000025
:10369000080000000C000000FFFFFFFF0300000017
:1036A00006000000FFFFFFFF0A000000FFFFFFFF12
:1036B000FFFFFFFFFFFFFFFFFFFFFFFFFFFFFFFF1A
:1036C000FFFFFFFFFFFFFFFFFFFFFFFF0000000006
:1036D000FFFFFFFFFFFFFFFFFFFFFFFF02000000F4
:1036E00004000000FFFFFFFFFFFFFFFFFFFFFFFFE2
:1036F000FFFFFFFFFFFFFFFFFFFFFFFFFFFFFFFFDA
:10370000FFFFFFFFFFFFFFFFFFFFFFFF0F000000B6
:10371000FFFFFFFFFFFFFFFFFFFFFFFF07000000AE
:10372000FFFFFFFFFFFFFFFFFFFFFFFFFFFFFFFFA9
:10373000FFFFFFFFFFFFFFFFFFFFFFFFFFFFFFFF99
:103740005F5F5F5F5F5F5F4649575F5F5F5F5F5FC0
:10375000000000005F5F5F5F5F5F5F4249595F5F2E
:103760005F5F5F5F000000005F5F5F5F5F5F5F5FE5
:103770005F5F5F5F5F5F5F5F000000005F5F5F5FD5
:10378000625F5F5F5F5F5F5F5F5F5F5F00000000C2
:103790005F5F5F676767676767675F5F5F5F5F5F01
:1037A000000000005F5F5F5F5F5F5F5F5F5F5F5FA5
:1037B000665F5F5F000000006767675F5F5F496784
:1037C0005F5F5F5F5F675F5F000000004949675FA1
:1037D0005F5F5F675F5F5F5F5F675F5F0000000065
:1037E0005F5F5F5F5F5F54675F5F5F725F675F5FD1
:1037F000000000005953675F5F5F56675F625F724A
:103800005F675F5F000000004247675F5F5F5F6761
:103810006767676767675F5F000000005F5F5F67FC
:103820007676765F5F5F5249505F675F0000000009
:103830005F5F5F676676765F5F5F4649575F675F8A
:10384000000000005F5F5F675F5F5F5F5F5F5F5FFC
:103850005F5F675F000000005F5F5F677676765F9F
:103860005F5F5F5F5F5F675F000000005F5F5F67D4
:1038700067676767676767676767675F000000007C
:103880005F5F5F6767676767767676767667675F9D
:1038900000000000B438000800000020E400000030
:1038A0006C01000898390008E40000200C090000B1
:1038B00088010008683700084037000868370008AA
:1038C000683700085437000868370008A437000834
:1038D000683700087C370008683700089037000810
:1038E0006837000808380008CC370008F4370008AB
:1038F000B8370008E037000880380008443800086E
:103900001C38000858380008303800086C380008A7
:103910006837000800000000000000000000000000
:103920000000000000000000000000000000000097
:103930000000000000000000000000000000000087
:103940000000000000000000000000000000000077
:103950000000000000000000000000000000000067
:103960000000000000000000000000000000000057
:10397000000000000000626667767200050000002B
:103980000000000000010000000000000000000036
:0839900000000000000000002F
:04000005080001CD21
:00000001FF
