:020000040800F2
:1000000030070020CD010008E10B000819030008AB
:10001000DD0B0008BF0200081510000800000000FA
:10002000000000000000000000000000E50B0008D8
:10003000C302000800000000E30B0008E90C000800
:10004000E7010008E7010008E7010008E7010008F0
:10005000E7010008E7010008DD020008E7010008E9
:10006000F9020008E7010008E7010008E7010008BD
:10007000E7010008E7010008E7010008E7010008C0
:10008000E7010008E7010008E7010008E7010008B0
:10009000E7010008E7010008E7010008E7010008A0
:1000A000E7010008E7010008E7010008E701000890
:1000B000E7010008590D0008DD0D0008E701000800
:1000C000E7010008E7010008E7010008E701000870
:1000D000E7010008E7010008E7010008E701000860
:1000E000F5020008E7010008E7010008E701000841
:1000F000E7010008E7010008E7010008E701000840
:10010000E7010008E7010008E7010008E70100082F
:10011000E7010008E7010008E7010008E70100081F
:10012000E7010008E7010008E7010008E70100080F
:1001300000F002F800F03AF80AA090E8000C8244BF
:100140008344AAF10107DA4501D100F02FF8AFF29C
:10015000090EBAE80F0013F0010F18BFFB1A43F0A5
:100160000103184788220000A8220000103A24BF8B
:1001700078C878C1FAD8520724BF30C830C144BF0C
:1001800004680C607047000000230024002500264E
:10019000103A28BF78C1FBD8520728BF30C148BFEA
:1001A0000B6070471FB51FBD10B510BD00F050F8B3
:1001B0001146FFF7F7FF00F06BFF00F06EF803B495
:1001C000FFF7F2FF03BC00F073F800000948804716
:1001D00009480047FEE7FEE7FEE7FEE7FEE7FEE729
:1001E000FEE7FEE7FEE7FEE704480549054A064B41
:1001F00070470000F90C00083101000830010020B0
:1002000030070020300300203003002010B5431CCD
:1002100002E010F8011B71B18107FAD14FF00132F1
:1002200002C88C1A8C4314EAC211F9D0C01A0A060B
:1002300003D0C01E10BDC01A10BD0A0401D0801E1C
:1002400010BD0902FCD0401E10BD704770477047BA
:10025000754600F029F8AE4605006946534620F081
:100260000700854618B020B5FFF7BEFFBDE8204067
:100270004FF000064FF000074FF000084FF0000B62
:1002800021F00701AC46ACE8C009ACE8C009ACE815
:10029000C009ACE8C0098D4670470446AFF3008042
:1002A0002046FFF78CFF000000487047D000002078
:1002B00001491820ABBEFEE726000200704700BFD0
:1002C000FEE77047002100E0491C8142FCD37047E3
:1002D000002100E0491C8142FCD370470120034902
:1002E000087004200249086070470000C700002021
:1002F00014040140704700000020044908700120E8
:10030000034908700420034908607047C6000020B4
:10031000C70000201404014000BFFEE710488069B8
:1003200040F008000E4988610846806940F04000AE
:1003300088610C48006820F470000A49086008468B
:10034000006840F4401008600748006820F470001E
:10035000054908600846006840F44010086070478E
:1003600000100240000C014000180140014601F05D
:1003700007021202054B18684FF6FF031840044BA2
:1003800018431043014B1860704700000CED00E06B
:100390000000FA0510B503460C462A2000F014FAB6
:1003A000181200F00BFAD8B200F008FA591C081223
:1003B00000F004FA591CC8B200F000FA2B2000F03B
:1003C00003FA201200F0FAF9E0B200F0F7F9611C2C
:1003D000081200F0F3F9611CC8B200F0EFF92C200C
:1003E00000F0F2F9104600F0E9F910BDF0B507464B
:1003F0000C46059D00262A2000F0E6F9201200F0A8
:10040000DDF9E0B200F0DAF91119491EC1F30F204D
:1004100000F0D4F91119491EC8B200F0CFF92B2011
:1004200000F0D2F9181200F0C9F9D8B200F0C6F9FC
:10043000E918491EC1F30F2000F0C0F9E918491E60
:10044000C8B200F0BBF92C2000F0BEF900BF03E0F9
:10045000384600F0B3F9761C02FB05F0B042F7D83D
:10046000F0BD000000B55948406940F4807057491C
:1004700048610846806940F0080088610846806944
:1004800040F0200088610846806940F040008861A3
:100490000846806940F4807088614D48006820F00B
:1004A0000F004B4908600846006840F003000860F0
:1004B00048480068484908404649086008460068BE
:1004C0004649084343490860081F006800F0FF20C0
:1004D000091F08600846006840F0BB1008604048EB
:1004E000006800203E4908600846006840F0BB30C4
:1004F0000860081F006820F07040091F0860084667
:10050000006840F0304008603648406820F47020B1
:10051000344948600846406840F430204860084646
:10052000006820F00F0008600846006840F00B00EB
:10053000086000204FF020418861C8612A490860A6
:100540004FF02040806940F480504FF02041886196
:100550000846806940F4804088610846806940F020
:10056000100088610846C069C8610846C06940F04B
:100570000100C8610846C06940F47060C8611A484B
:100580000068C1F81C0118480068C1F81C01084641
:10059000D0F81C0140F44070C1F81C010846806985
:1005A00040F00100886100F03EF80948006820F042
:1005B0000F00074908600846006840F00300086023
:1005C000012003491031086000BD00000010024006
:1005D000000C01400414014000F0FF00BB0B00BB05
:1005E00004180140002001401C0100A02DE9F04149
:1005F00006460F461546984600240DE02A5D06EB98
:10060000C40188B24346394600F02EF842F2107019
:10061000FFF75EFE601CC4B22846FFF7F7FDA0425C
:10062000ECD8BDE8F08100B5012000F0CDF8112034
:1006300000F0CAF83A2000F0C7F8552000F0BEF8E4
:10064000292000F0C1F8362000F0BEF8AA2000F002
:10065000B5F80B2000F0B8F8202000F0AFF820200B
:1006600000F0ACF800BD00002DE9FF4F82B0064657
:100670008B461446102508200190B246CDF800B0F4
:10068000202C01DB7F2C02DD06B0BDE8F08FA4F149
:100690002000C4B2002736E04FF000092CE04FF0F4
:1006A000000822E01C4800EB0410012101EB480186
:1006B000C91B405C40FA09F000F0010020B150462F
:1006C000059A0099FFF766FE0AF101001FFA80FA09
:1006D00001983044504504DCB2460098401C80B27A
:1006E000009008F1010000F0FF0801988045D9DB77
:1006F00009F1010000F0FF0905EBD571B9EB610FBD
:10070000CDDB781CC7B2E91705EB5171B7EBE10FF0
:10071000C2DB00BFB8E70000A01900082DE9F84FC0
:1007200082460C4615464FF0140814200090D3461C
:1007300004EB0800401E1FFA80F90C2D01DDBDE816
:10074000F88F00262BE0082725E005EBC50000EB1D
:100750000510184901EB4000805D791E084100F04A
:10076000010038B1144830F8250082B24946584695
:10077000FFF710FEA9F101001FFA80F9A14508DA80
:1007800004EB0800401E1FFA80F90BF101001FFA6C
:1007900080FB781EC7B2002FD7DC701CC6B2009950
:1007A00008FB01F0C11700EB5171B6EBE10FCADB9A
:1007B00000BFC4E7F01F0008482200080149088074
:1007C000704700000008006C014908807047000075
:1007D000FE07006C2448806940F0080022498861C7
:1007E0002248006820F0F0002049086008460068B0
:1007F00040F01000086002201C49143108601B48BA
:10080000001D006820F470201849091D0860084682
:10081000006840F480300860881414491031086082
:100820001148806940F080000F49886110480068D5
:100830006FF30B000E4908600846006840F008009E
:1008400008600846006840F010000860084600682C
:1008500040F400600860881505490C3108604000CC
:10086000086040000860704700100240000C014022
:10087000041C01402DE9F05F05460E46300100F0F2
:100880002FFF8146284905FB01F000F029FF824631
:10089000494600F043FE0746384600F001FF84B2A7
:1008A000204600F01DFF8346394600F0F9FF8246DE
:1008B0004FF0834100F028FF814600F0F1FE8046B2
:1008C0004FF6FF7000EA041404EB080084B21748E6
:1008D000806940F00400154988610846806940F449
:1008E000804088611248006820F47F6010490860E9
:1008F0000846006840F40B6008600C48C06840F48B
:1009000080400A49C8600846C06820F48040C8603A
:1009100008480480001D008842F208010843054988
:10092000091D0880BDE8F09F40420F000010024002
:1009300004080140083801402DE9F05F05460E46E5
:10094000300100F0CDFE8146284905FB01F000F0A2
:10095000C7FE8246494600F0E1FD0746384600F0F2
:100960009FFE84B2204600F0BBFE8346394600F06D
:1009700097FF82464FF0834100F0C6FE814600F0AB
:100980008FFE80464FF6FF7000EA041404EB080067
:1009900084B21748806940F0040015498861084610
:1009A000C06940F40030C8611248006820F47F40FC
:1009B000104908600846006840F40B4008600C4885
:1009C000006940F400300A4908610846006920F4D3
:1009D0000030086108480480001D008842F20801C8
:1009E00008430549091D0880BDE8F09F40420F00FB
:1009F0000010024000080140084400400721002088
:100A0000234A5268234B1A40214B5A601A461268F7
:100A1000214B1A401E4B1A601A46126842F480326B
:100A20001A6000BF1A4A1268520C002AFAD04FF41A
:100A30008062174B5A601A46526842EA81425A60F5
:100A40001A46526842F480325A60144A126842F0E0
:100A50003202124B1A600E4A126842F080720C4B3E
:100A60001A6000BF0A4A1268520E002AFAD0084AD9
:100A7000526842F00202064B5A6005E0044A52688E
:100A8000C2F3870000F003000228F7D1704700008E
:100A9000001002400000FFF8FFFFF6FE00200240B9
:100AA0002148806940F040001F4988611F48006864
:100AB00020F470601D4908600846006840F400603A
:100AC00008601A480C30006840F0040017490C31E7
:100AD00008601548806940F0010013498861144896
:100AE000806820F47060124988600846806840F48D
:100AF000806088600F48006840F004000D4908607D
:100B00000C480C30006840F004000A490C310860C1
:100B10006521094801700948006840F480704FF071
:100B2000E021C1F8000170470010024000180140A8
:100B3000000001400004014008E400E000E100E0A2
:100B40002048806940F004001E4988611E48006802
:100B500020F00F001C4908600846006840F00800BB
:100B6000086019480C30006820F0010016490C316B
:100B700008601448806940F00100124988611348F8
:100B8000806820F00F0011498860084680688860FE
:100B90000F48006840F001000D4908600C480C3017
:100BA000006840F001000A490C310860352109480D
:100BB00001700948006840F040004FF0E021C1F8A2
:100BC0000001704700100240000801400000014091
:100BD0000004014006E400E000E100E000BFFEE7A1
:100BE0007047704770470000202001490860704737
:100BF000100C014020200149086070471018014086
:100C000010B500F001F810BD0CB500200190009067
:100C10003348006840F480303149086000BF3048F4
:100C2000006800F4003000900198401C019000988A
:100C300018B90198B0F5A06FF1D12948006800F407
:100C4000003010B10120009001E0002000900098D9
:100C5000012843D12348006840F010002149086072
:100C60000846006820F0030008600846006840F06D
:100C7000020008601A484068194948600846406800
:100C800048600846406840F4806048600846406814
:100C900020F47C1048600846406840F4E810486042
:100CA0000846006840F08070086000BF0C4800688B
:100CB00000F000700028F9D00948406820F00300D7
:100CC000074948600846406840F00200486000BF9D
:100CD0000348406800F00C000828F9D10CBD000062
:100CE000001002400020024002480078401C0149E8
:100CF00008707047C000002010B51348006840F02D
:100D000001001149086008464068104908400E4932
:100D10004860084600680E4908400B4908600846CC
:100D2000006820F4802008600846406820F4FE0037
:100D300048604FF41F008860FFF762FF4FF00060CB
:100D40000449086010BD0000001002400000FFF8D8
:100D5000FFFFF6FE08ED00E020201E490860091F95
:100D60000860091D0860091F0860081F006880F0FE
:100D70002000091F08600846006880F02000086015
:100D80000846006880F0200008600846006880F08F
:100D9000200008600846006820F02000086008462F
:100DA000006840F0200008600846006820F020003D
:100DB00008600846006840F0200008600648008887
:100DC00020F00100044908800846008820F0010056
:100DD00008807047140C0140100400400848008847
:100DE00000F0010028B10748006880F020000549A4
:100DF00008600348008820F001000149088070471E
:100E0000100800400C180140012803D10103044AD6
:100E1000116004E04FF48051014A121D11607047C7
:100E2000100C0140012803D14102044A116004E082
:100E30004FF40071014A121D11607047101C0140EF
:100E400010B5044600230020FFF7DEFF0120FFF766
:100E5000E9FF00F0D7F86A48006800F4806008B93C
:100E600042F21073E21704EB9272901000EBD07212
:100E70005210A0EB4202012A03D10120FFF7D2FF5A
:100E800002E00020FFF7CEFF00F0BCF804EBD472C4
:100E9000501000EBD0725210A0EB4202012A03D195
:100EA0000120FFF7BFFF02E00020FFF7BBFF00F0CB
:100EB000A9F8204604EBD0714910A4EB41010129A7
:100EC00003D10120FFF7AEFF02E00020FFF7AAFFE9
:100ED00000F098F80120FFF7A5FF00F093F801203B
:100EE000FFF7A0FF00F08EF80020FFF79BFF00F057
:100EF00089F80020FFF796FF00F084F8404800686A
:100F000000F4807010B103F5006083B200F07AF84D
:100F10003B48006800F4807010B103F5806083B234
:100F200000F070F83648006800F4807010B103F5E6
:100F3000007083B200F066F83148006800F48070F9
:100F400010B103F5807083B200F05CF82C480068A3
:100F500000F4807010B103F1800083B200F052F809
:100F60002748006800F4807010B103F1400083B29C
:100F700000F048F82248006800F4807010B103F1D6
:100F8000200083B200F03EF81D48006800F4807035
:100F900010B103F1100083B200F034F81848006873
:100FA00000F4807010B103F1080083B200F02AF859
:100FB0001348006800F4807008B1181D83B200F077
:100FC00021F80F48006800F4807008B1981C83B2C3
:100FD00000F018F80A48006800F4807008B1581C46
:100FE00083B200F00FF800F00DF800F00BF800F0FD
:100FF00009F800F007F80120FFF706FF184610BDBA
:10100000081C0140022002490860091D0860704761
:10101000100C014000BFFEE7F8B50646F0200023A3
:101020004FF4A072194600901846FFF7DFF9042E1E
:1010300000DDF8BD002423E000251DE006EB46009E
:10104000114901EB001050F82400405D41380F4970
:1010500051F82070002F0DDBFAB2C4F10B0303EB43
:1010600083034FF6FF7C0CEA830105EB85039800B0
:10107000FFF754FB681CC5B2102DDFDB601CC4B247
:101080000C2CD9DB00BFD4E7000000207C22000834
:1010900008B5FFF7B3FCFFF741F94FF416514820AC
:1010A000FFF7E8FB4FF416512420FFF745FCFFF74C
:1010B00091FBFFF7D7F90520FFF758F9FFF7F0FC90
:1010C000FFF73EFDBA48FFF7FDF8FFF78DFDFFF78C
:1010D00091FDF02000234FF4A072194600901846AD
:1010E000FFF784F942F21070FFF7ECF84FF6FF7348
:1010F000B0A2C8214620FFF779FA4FF47843B0A296
:10110000C8219E20FFF772FA4FF6FF73AFA2A0210D
:101110004120FFF76BFA4FF6FF73B2A28C214120FA
:10112000FFF764FA40F2FF73B4A250214120FFF7A9
:101130005DFA0020B849087010E0B749097801EB62
:101140008101890001F12800B3490A781421FFF7D1
:10115000E5FAB1480078401CAF490870AE48007805
:101160000C28EADBAD48FFF7ADF800BF0520FFF71C
:1011700067FEAB4908800120FFF762FEA94908809D
:101180004FF47A70FFF79EF8A548008842F210717C
:1011900090FBF1F028B9A348008890FBF1F00028FB
:1011A000E4D08348FFF78EF800E19F4800780028DC
:1011B0007CD19E48007870B3F02000234FF4A072D9
:1011C000194600901846FFF711F94FF6FF7398A2E1
:1011D000B4214120FFF70AFA4AF6FF739AA2782158
:1011E0003220FFF703FA4FF6FF3398A278216E20E2
:1011F000FFF7FCF94FF6CF7395A27821AA20FFF7ED
:10120000F5F94FF6FD7393A27821E620FFF7EEF98A
:101210000020864908700520FFF712FE80490880EB
:101220000846008842F6CC1188425EDB7C48008884
:1012300042F69421884258DC42F21070FFF742F8DF
:101240000520FFF7FDFD764908800846008842F634
:10125000CC11884249DB7248008842F694218842CA
:1012600043DC0120FFF7ECFD6E490880084600884A
:1012700042F62851884209DB6A48008842F6F0515C
:10128000884203DC0120684908702EE06548008828
:1012900042F6983188420ADB6248008842F6604193
:1012A000884204DC0220604908701EE023E05D48AB
:1012B000008842F60821884209DB5A48008842F635
:1012C000D021884203DC0320574908700DE05548BF
:1012D000008842F67801884207DB52480088B0F562
:1012E000255F02DC0420504908704F48007810B197
:1012F00001204E4908704C480078012808D14B481D
:10130000007828B10020FFF787FE002047490870C9
:1013100045480078022815D14448007890B1F02063
:1013200000234FF4A072194600901846FFF75EF8AC
:101330004AF6FF7345A278213220FFF757F90020C3
:101340003A49087038480078032815D137480078A2
:1013500090B1F02000234FF4A07219460090184677
:10136000FFF744F84AF6FF7339A278213220FFF7DD
:101370003DF900202D4908702B480078042815D12C
:101380002A48007890B1F02000234FF4A07219464B
:1013900000901846FFF72AF84AF6FF732DA278212D
:1013A0003220FFF723F9002020490870FDE60000F5
:1013B00040420F0057656C636F6D6520746F2000AD
:1013C0004261626120697320596F75004C75692014
:1013D0004B77616E204B696E2031313535313130BC
:1013E00034363900576F6E672057616E204B692085
:1013F0003131353531323438343300005072657351
:101400007320616E79776865726520746F206265FC
:1014100067696E2100000000C1000020A086010065
:10142000C2000020C4000020C6000020C700002029
:10143000506C656173652063686F6F7365207468B5
:1014400065206C6576656C0031000000320000009C
:10145000330000003400000090EA010F48BF81F023
:10146000004100F12E82421A3CBF801A89184FEACF
:10147000D0524FF07F4C1CEA410FA2EBD15318BF62
:101480009CEA026F00F03B804FF0004C4CEA0020D9
:101490004CEA012121FA03FC10EB0C0C1ED202F1E4
:1014A000FF325FEA1C2040EBC25038BF70471CF08F
:1014B0007F0F4FEA400C18BFBCF17F4F38BF704719
:1014C000C3F12003994008BF20F00100BCF17F4F19
:1014D00038BF7047A0F1C04000F0DDB94FEA3C00D2
:1014E000000A40EBC25028BF1CF0FF0F4FEA400C2F
:1014F000E6D018BFBCF17F4F38BF7047EAE79CEADF
:10150000026F05D010EA5C0F08BF00F00040704782
:1015100010B500F07AF900BF64FBBE3E4FF47F0CBB
:101520001CEAD0121EBF1CEAD11392EA0C0F93EAF8
:101530000C0F00F0858090EA010F48BF42F48072E2
:1015400040F4000C41F400002CF07F4120F07F407B
:1015500000B58142A2EB03020FF2081CACEB504E27
:10156000C0F100009EF800E04FEA4E0E00FB0EFCBA
:1015700038BF49004FEA2C1C02F5FA020CFB0EF3AF
:101580004FEACE1E4FEA112C4FEAC1210EEB635EEB
:1015900042EB22420EFB0CFC4FEA1C5300FB0311F2
:1015A0004FEA112C4FEA01310EFB0CFC4FEADC4CE8
:1015B00000FB0C11C14228BF09184CEB03335DF846
:1015C00004EB10EB410143EBC250B2F57C0F38BF86
:1015D000704729D512F0F00F1CBF00F1C04000F099
:1015E00000407047008182838485868788898B8C40
:1015F0008D8E8F919293959697999A9C9D9FA0A27C
:10160000A3A5A7A8AAACAEB0B2B3B5B7B9BCBEC0CB
:10161000C2C5C7C9CCCED1D4D7D9DCDFE2E6E9EC6C
:10162000F0F3F7FAFE0000004FEA400C0CF1807C6A
:10163000BCF17E4F28BF7047B0F1C04000F02BB91D
:1016400090EA010F0CEAD11348BF42F48072624560
:1016500038BF634507D213F47F0F16D080EA01002C
:1016600000F00040704710B500F0CFF8097EFC3E56
:1016700000F005B880EA010000F00040704780EA01
:10168000010000F0004000F006B912F47F0F04BF23
:101690000248704780EA010000F0FDB80000C07FFA
:1016A000C10DD1F19E0206DB4FEA002343F0004357
:1016B00023FA02F07047004207D54FEA4001B1F12A
:1016C000FE4F02D24FF00000704710B500F09DF8B9
:1016D00049922480002070476FEA20007047000084
:1016E000B0FA80F310FA03F2C3F19D030AD0D905D2
:1016F00001EB1220530638BF704700F1010008BF0C
:1017000020F00100704700004FF47F0C1CEAD0125B
:101710001EBF1CEAD11392EA0C0F93EA0C0F00F0E3
:10172000478090EA010F48BF42F480724FF0004CAE
:101730004CEA00204CEA012102EB0302A0FB01135A
:10174000A2F50002002918BF43F001035B0028BF87
:101750004FEA330342EB22425FEA132C4CEBC250B8
:101760002EBFBCEB436FB2F57C0F70474FEA036CA2
:10177000BCF1004F08BF20F00100B2F57C0F38BF6C
:1017800070470BD582F0FF0212F5803FC8BF70474B
:1017900000F1C040D8BF00F00040704700F5000CD9
:1017A0005FEA4C0C48BF7047B0F1C04000F073B81E
:1017B00090EA010F0CEAD11348BF42F480726245EF
:1017C00038BF634504D280EA010000F00040704752
:1017D00010B500F01AF800BF8900013E00F007B80C
:1017E00000F009B85FEA410C5FEA1C6C08D080EA9F
:1017F000010000F050B85FEA400C5FEA1C6CF6D1C3
:101800004FF00040A0F5800070470EF1020E2EF060
:10181000030E5EF8044B244204D44FEA4102B2F1B5
:101820007F4F11D84FEA4003B3F17F4F0CD80ED150
:101830004FEAD07CB2F17F4F0CEB4C0C0CF1020C58
:1018400008BF4CEBD17C04E04FF0080C01E04FEAFC
:10185000D17C0CEB4C0324FA03F404F00704B4F13C
:10186000040C06D20EEB840CBDE810404CF0010CC9
:101870006047DFE80CF0070802024FF00040A0F5D7
:10188000800010BD0846420018BFD2F1807288BFA8
:1018900000F0004010BDFF2141EAD050C005704764
:1018A00080F0004090EA010F7FF5DDAD81F000414E
:1018B00000F007B890EA010F48BF81F000413FF502
:1018C000D2AD421A04D882F00042A0EB02001144CB
:1018D0004FEAD0524FF07F4C1CEA410FA2EBD1539C
:1018E00018BF9CEA026F4AD04FF0004C4CEA00202F
:1018F0004CEA012121FA03FCB0EB0C0C0FD412F0DE
:10190000FE0F36D05FEA4C001DD5001240EBC250EE
:1019100038BF70471CF03F0F18BF70470BE0A2F1B3
:1019200001025FEA1C2040EBC25038BF70471CF038
:101930007F0F18BF7047C3F12003994014BF401EAA
:1019400020F00100704780084FEA122308BF70475B
:10195000B0FA80FCA2EB0C02CCF1280C60FA0CF07F
:1019600093EA122F04BF00EBC25070474FEAC370D6
:101970007047130A5FEADC1008BF7047F6E79CEA7D
:10198000026F04D010EA5C0F08BF0020704710B54A
:10199000FFF73BFF40DFF63E81F00040704700005C
:1019A0000000000000000000000000000000000037
:1019B0000000000000001FCC000C00000000000030
:1019C00000000800300060000800300060000000E7
:1019D000022003FC1E20022003FC1E200220000027
:1019E00000000E1811043FFF10840C780000000066
:1019F0000F0010840F3800C00778188400780000AA
:101A000000780F8410C411240E9800E400840008AC
:101A100008006800700000000000000000000000E6
:101A200000000000000007E0181820044002000039
:101A3000000040022004181807E000000000000029
:101A40000240024001800FF001800240024000008D
:101A50000080008000800FF800800080008000007F
:101A60000001000D000E000000000000000000005A
:101A700000000080008000800080008000800080E6
:101A80000000000C000C000000000000000000003E
:101A90000000000600180060018006001800200009
:101AA000000007F0080810041004080807F0000000
:101AB0000000080408041FFC0004000400000000EB
:101AC00000000E0C10141024104411840E0C0000A1
:101AD00000000C1810041104110412880C7000008E
:101AE000000000E00320042408241FFC0024000060
:101AF00000001F9810841104110410881070000059
:101B0000000007F008881104110418880070000014
:101B100000001C00100010FC13001C00100000004E
:101B200000000E3811441084108411440E38000057
:101B300000000700088C10441044088807F00000DB
:101B4000000000000000030C030C00000000000077
:101B5000000000000001010600000000000000007D
:101B6000000000800140022004100808100400005A
:101B70000220022002200220022002200220000077
:101B8000000010040808041002200140008000003A
:101B900000000E001200100C106C10800F000000EE
:101BA00003E00C1813E4142417C4082807D000001D
:101BB0000004003C03C41C40074000E4001C000477
:101BC00010041FFC1104110411040E8800700000A1
:101BD00003E00C1810041004100410081C1000007E
:101BE00010041FFC100410041004080807F0000083
:101BF00010041FFC1104110417C41004081800007D
:101C000010041FFC1104110017C010000800000090
:101C100003E00C181004100410441C78004000006D
:101C200010041FFC10840080008010841FFC10042E
:101C30000000100410041FFC100410040000000039
:101C400000030001100110011FFE10001000000031
:101C500010041FFC110403801464181C10040000FD
:101C600010041FFC1004000400040004000C000019
:101C700010041FFC1F0000FC1F001FFC10040000CC
:101C800010041FFC0C04030000E010181FFC1000DF
:101C900007F00808100410041004080807F00000FA
:101CA00010041FFC10841080108010800F000000B2
:101CB00007F0081810241024101C080A07F200006E
:101CC00010041FFC1104110011C011300E0C00048F
:101CD00000000E1C11041084108410441C380000F5
:101CE0001800100010041FFC100410001800000061
:101CF00010001FF810040004000410041FF8100066
:101D000010001E0011E0001C007013801C00100069
:101D10001FC0103C00E01F0000E0103C1FC000008E
:101D20001004180C163401C001C01634180C10042D
:101D300010001C00130400FC13041C001000000021
:101D40000804101C1064108413041C0410180000F4
:101D50000000000000007FFE400240024002000040
:101D6000000030000C0003800060001C0003000035
:101D700000004002400240027FFE00000000000020
:101D80000000000020004000400040002000000053
:101D9000000100010001000100010001000100013B
:101DA0000000400040002000000000000000000093
:101DB00000000098012401440144014400FC000497
:101DC00010001FFC0088010401040088007000005E
:101DD0000000007000880104010401040088000074
:101DE0000000007000880104010411081FFC0004B9
:101DF000000000F8014401440144014400C800000F
:101E00000000010401040FFC11041104110018006A
:101E1000000000D601290129012901C9010600009D
:101E200010041FFC008401000100010400FC0004F8
:101E300000000104190419FC000400040000000063
:101E40000000000300010101190119FE000000005B
:101E500010041FFC0024004001B4010C0104000028
:101E60000000100410041FFC000400040000000027
:101E7000010401FC0104010001FC0104010000FC5B
:101E8000010401FC008401000100010400FC0004C5
:101E9000000000F8010401040104010400F800003E
:101EA000010101FF008501040104008800700000A9
:101EB00000000070008801040104010501FF000119
:101EC0000104010401FC0084010401000180000000
:101ED000000000CC01240124012401240198000009
:101EE00000000100010007F80104010400000000E7
:101EF000010001F8000400040004010801FC0004D2
:101F0000010001800170000C0010016001800100DF
:101F100001F0010C003001C00030010C01F00100A3
:101F200000000104018C00740170018C01040000A8
:101F3000010101810171000E0018016001800100A2
:101F400000000184010C013401440184010C0000F3
:101F5000000000000000000001003EFC40024002C2
:101F60000000000000000000FFFF00000000000073
:101F70000000400240023EFC0100000000000000A2
:101F80000000600080008000400040002000200031
:101F9000000004002402240225F42554FD58255095
:101FA00027F02550FD50255825F424040402000094
:101FB0000004040404080C30146027C0C4000400AA
:101FC00007F00408240814080C080608003800006C
:101FD00010401080910073FF1500188200043FF834
:101FE00022002200220023FF4200460002000000DF
:101FF000000000000001F0003F9C03FFC03FF80319
:10200000FC01FFFC1FFFC0FFC003FC003FF03F9F2F
:10201000C3FFDC0FFC0033C003FFC01FF800F0005B
:102020000000000000000000000000001FF803FF97
:10203000FE3FFFE7FFE679FE679FE07FFFE73FFE99
:1020400073FC63FF863FF800000000000000000002
:10205000000000000000000006000060003E001FBD
:10206000E07FEE7FF0E7FC0E67C047F8007FC00717
:10207000FC007FC003FE003FE001FC003FC003F80E
:10208000007E000200007FFFFFFFFFFFFFFFFFFF5A
:10209000FFFFFFFFFFFFFFFFFFFFFFFFFFFFFFFF50
:1020A000FFFFFFFFFFFFFFFFFFFFFFFFFFFFFFFF40
:1020B000FFFFFFFFFFF3FFFF03DA01EEF81DDF80F4
:1020C000FFFE7FECEE0FF3FFDDE7FFDFFF7CF9F8AB
:1020D0007C7CDEFF3DFBFBF75FC7CF39FEF7FFCE11
:1020E0006EF787FF7E3CEFC079C80000103C0E7F82
:1020F000C3EFFC78FC3F8EC3F8FC3F8CC0FC400172
:10210000E0000F3F87C7FDFC73FDE01F3F01F37048
:102110001F3F01FFC0093C00000000003C3F87C09A
:102120007EFFE1EFFE3FFFC7FFFC1FFFE1FFF83F2F
:10213000F83FFFFFFFFE01FFE01FFFA3FFE01FFFCF
:102140001FFFF8FFFFC3F7F03F7CFFF3FFFC000029
:1021500007FBFC3FBFE07BFE0F80E0F00C1F80C759
:10216000F80C7F80000000003E007BFE1F87E7E048
:102170000E7600C7E01C3F81807818000000000048
:102180003FFF8FEFC6CF7BB87B7BB7B79BBB7DBCD8
:1021900073DBFF83FFFFFFFFFFEFFFFEFE01DFECBE
:1021A000FDFECFC02CFDFEDFDFF1F3FFFF7FFFF36D
:1021B000FFFC00000FFDFFFFDFFFFFFFCCFF3DDD59
:1021C000FBFFDDF7781E0300C0000003C2E3FCFF45
:1021D000FF1FCFE3F8FE3F83F1FC0F83F0380E00C2
:1021E0000000000039FF8FE7FEFFBFEFF83FFFBFA1
:1021F000FFF3FFF8FFFFF87FFF1BFFF7DFFF39FF5B
:10220000F03FFF9FFFE0FFFFE3FFFF3FFFF3F7FE1D
:102210007F7E0FF3FFFC0000000000000000006064
:1022200006060063E007FE007C60060000018003F4
:10223000DC007EE006F60063E0073E00318000002F
:102240000000000000000000FFFF000000FC000094
:1022500031F70000AE73000088AD000031F70000D8
:1022600031F70000AE730000E44A0000CDD9000051
:10227000CDD90000FFFF000000000000FFFFFFFFBE
:1022800009000000FFFFFFFFFFFFFFFFFFFFFFFF51
:1022900005000000FFFFFFFFFFFFFFFF0B00000036
:1022A000FFFFFFFFFFFFFFFFFFFFFFFFFFFFFFFF3E
:1022B000FFFFFFFFFFFFFFFFFFFFFFFFFFFFFFFF2E
:1022C000FFFFFFFFFFFFFFFFFFFFFFFFFFFFFFFF1E
:1022D000FFFFFFFF06000000FFFFFFFF0A000000F6
:1022E000FFFFFFFFFFFFFFFFFFFFFFFFFFFFFFFFFE
:1022F000FFFFFFFFFFFFFFFFFFFFFFFFFFFFFFFFEE
:1023000000000000FFFFFFFFFFFFFFFFFFFFFFFFD9
:102310000200000004000000FFFFFFFFFFFFFFFFBF
:10232000FFFFFFFFFFFFFFFFFFFFFFFFFFFFFFFFBD
:10233000FFFFFFFFFFFFFFFFFFFFFFFFFFFFFFFFAD
:10234000FFFFFFFFFFFFFFFFFFFFFFFFFFFFFFFF9D
:10235000FFFFFFFFFFFFFFFFFFFFFFFFFFFFFFFF8D
:10236000FFFFFFFFFFFFFFFFFFFFFFFFFFFFFFFF7D
:10237000FFFFFFFF5F5F5F5F5F5F5F4649575F5F24
:102380005F5F5F5F000000005F5F5F5F5F5F5F42F6
:1023900049595F5F5F5F5F5F000000005F5F5F5FE5
:1023A0005F5F5F5F5F5F5F5F5F5F5F5F00000000B9
:1023B0005F5F5F5F625F5F5F5F5F5F5F5F5F5F5F2A
:1023C000000000005F5F5F5F5F5F5F6767675F5F81
:1023D0005F5F5F5F000000005F5F5F5F5F5F5F5F89
:1023E0005F5F5F5F665F5F5F000000000C240008B6
:1023F00000000020D00000006C010008DC24000870
:10240000D000002060060000880100089C2300081E
:1024100074230008D82300089C23000888230008A0
:102420009C2300089C2300089C230008B02300087C
:102430009C230008C42300089C230008000000001F
:10244000000000000000000000000000000000008C
:10245000000000000000000000000000000000007C
:10246000000000000000000000000000000000006C
:10247000000000000000000000000000000000005C
:10248000000000000000000000000000000000004C
:10249000000000000000000000000000000000003C
:1024A000000000000000000000000000000000002C
:1024B000000000000000000000000000000000001C
:1024C000000000000000000000000000000000000C
:0C24D000000000012D2D2D2D2D0000001E
:04000005080001CD21
:00000001FF
