:020000040800F2
:10000000A00F002015020008FD0E0008CD05000815
:10001000F90E000813050008511400080000000044
:10002000000000000000000000000000010F0008B8
:100030001705000800000000FF0E00089D100008D2
:100040002F0200082F0200082F0200082F020008CC
:100050002F0200082F020008310500082F020008B7
:10006000AD0500082F0200082F0200082F0200082B
:100070002F0200082F0200082F0200082F0200089C
:100080002F0200082F0200082F0200082F0200088C
:100090002F0200082F0200082F0200082F0200087C
:1000A0002F0200082F0200082F0200082F0200086C
:1000B0002F02000855110008B51100082F02000892
:1000C0002F0200082F0200082F0200082F0200084C
:1000D0002F020008ED1300082F0200082F0200086D
:1000E000450500082F0200082F0200082F02000813
:1000F0002F0200082F0200082F0200082F0200081C
:100100002F0200082F0200082F0200082F0200080B
:100110002F0200082F0200082F0200082F020008FB
:100120002F0200082F0200082F0200082F020008EB
:1001300000F002F800F05FF80AA090E8000C82449A
:100140008344AAF10107DA4501D100F054F8AFF277
:10015000090EBAE80F0013F0010F18BFFB1A43F0A5
:1001600001031847F8580000185900000A444FF0DE
:10017000000C10F8013B13F0070408BF10F8014B06
:100180001D1108BF10F8015B641E05D010F8016B4B
:10019000641E01F8016BF9D113F0080F1EBF10F8AF
:1001A000014BAD1C0C1B09D16D1E58BF01F801CBD2
:1001B000FAD505E014F8016B01F8016B6D1EF9D555
:1001C0009142D6D37047000000230024002500266A
:1001D000103A28BF78C1FBD8520728BF30C148BFAA
:1001E0000B607047642900F07D80002070471FB5C8
:1001F0001FBD10B510BD00F056F91146FFF7F7FF0F
:1002000001F050FE00F074F903B4FFF7F2FF03BCF5
:1002100000F078F90948804709480047FEE7FEE703
:10022000FEE7FEE7FEE7FEE7FEE7FEE7FEE7FEE7A6
:1002300004480549054A064B70470000F5100008C0
:1002400031010008A0090020A00F0020A00B002011
:10025000A00B00200FB41CB5074B06AA7B446946CF
:100260000090059800F007F90020694600F016F9A3
:100270001CBC5DF814FB00003D0200002DE9F041BC
:100280000E460446002020622046E168884730B3CD
:10029000252805D0D4E901219047206A401CF2E7C7
:1002A000E168204600278847050018D0A5F14100E5
:1002B000192802D820354FF40067324629462046D7
:1002C0002760FFF78FFF40B1012804D0F61D26F00C
:1002D00007060836D8E7361DD6E72846DAE7206A4B
:1002E000BDE8F0812DE9F04106460024106875292B
:1002F000314616A510D0AFF30080002802DA404244
:1003000013A507E031688A0701D512A502E0490765
:1003100004D511A5012401E0AFF3008000210A22D9
:1003200006F1240709E0B0FBF2FCB0FBF2F302FB9C
:100330001C00303078541846491C0028F3D123465D
:100340002A463046BDE8F04100F036B80000000013
:100350002D0000002B0000002000000010B5431C01
:1003600002E010F8011B71B18107FAD14FF00132A0
:1003700002C88C1A8C4314EAC211F9D0C01A0A06BA
:1003800003D0C01E10BDC01A10BD0A0401D0801ECB
:1003900010BD0902FCD0401E10BD421E12F8013FE4
:1003A000002BFBD111F8013B002B02F8013BF9D1E6
:1003B00070477047704770472DE9F0470D469946E2
:1003C0009246044600F124080168880604D5E069D5
:1003D00021F01001216000E00120A84201DD471B4F
:1003E00000E00027A1697A1902EB0900081AA06150
:1003F0002078C00602D42046AFF30080002608E033
:10040000D4E901211AF806009047206A401C761CA6
:1004100020624E45F4DB2078C0060AD52046AFF3B3
:10042000008006E0D4E9012130209047206A401C7A
:100430002062381EA7F10107F4DC07E0D4E90121AE
:1004400018F805009047206A401C2062281EA5F17C
:100450000105F3DC2046AFF300802078000602D5CA
:100460000220BDE8F0870120FBE7000001694A1C7B
:1004700002610878704700B58FB0CDE901310021E5
:10048000059105497944CDE9031011466846FFF707
:10049000F5FE0FB000BD0000E5FFFFFF0A6802F89F
:1004A000010B0A607047754600F028F8AE4605005B
:1004B0006946534620F00700854618B020B5FFF77F
:1004C000B7FEBDE820404FF000064FF000074FF0A8
:1004D00000084FF0000B21F00701AC46ACE8C00962
:1004E000ACE8C009ACE8C009ACE8C0098D4670476B
:1004F0000446AFF300802046FFF786FE00487047B1
:100500003C09002001491820ABBEFEE7260002008E
:10051000704700BFFEE77047002100E0491C8142A0
:10052000FCD37047002100E0491C8142FCD3704796
:100530000120024908700249086070473A01002012
:100540001404014010B515488468154800680B284C
:1005500007D10A20FFF7E0FF4FF40060114908605F
:1005600010BD04F4806050B10D480068C0F10A016C
:10057000012088400C49096808430B490860084875
:100580000068401C064908603220FFF7C5FF4FF4A1
:1005900000600449086000BFE2E70000001001406D
:1005A00040010020140401403C01002000200449C7
:1005B000087001200349087004200349086070474F
:1005C000390100203A0100201404014000BFFEE779
:1005D0002048806940F010001E4988611E4840682C
:1005E00020F47F401C4948600846406840F40840B9
:1005F00048600846C06840F40060C86015488069DB
:1006000040F00100134988611448006920F47041EA
:1006100012480161006940F400511048016110481E
:10062000006840F400600E4908600D480C30006816
:1006300040F400600A490C310860652109480170E6
:100640000948006840F480704FF0E021C1F80401CF
:1006500070470000001002400010014000000140FF
:100660000004014028E400E004E100E01048806953
:1006700040F008000E4988610846806940F040005B
:1006800088610C48006820F470000A490860084638
:10069000006840F4401008600748006820F47000CB
:1006A000054908600846006840F44010086070473B
:1006B00000100240000C014000180140014601F00A
:1006C00007021202054B18684FF6FF031840044B4F
:1006D00018431043014B1860704700000CED00E018
:1006E0000000FA0500204FF0E0210861034848614E
:1006F0000846006940F0030008617047FF340C00B1
:1007000010B503460C462A2000F014FA181200F027
:100710000BFAD8B200F008FA591C081200F004FADB
:10072000591CC8B200F000FA2B2000F003FA201286
:1007300000F0FAF9E0B200F0F7F9611C081200F0DD
:10074000F3F9611CC8B200F0EFF92C2000F0F2F9C7
:10075000104600F0E9F910BDF0B507460C46059DBE
:1007600000262A2000F0E6F9201200F0DDF9E0B2C0
:1007700000F0DAF91119491EC1F30F2000F0D4F985
:100780001119491EC8B200F0CFF92B2000F0D2F9A0
:10079000181200F0C9F9D8B200F0C6F9E918491EDC
:1007A000C1F30F2000F0C0F9E918491EC8B200F0EB
:1007B000BBF92C2000F0BEF900BF03E0384600F082
:1007C000B3F9761C02FB05F0B042F7D8F0BD00008B
:1007D00000B55948406940F480705749486108465F
:1007E000806940F0080088610846806940F0200078
:1007F00088610846806940F0400088610846806949
:1008000040F4807088614D48006820F00F004B492B
:1008100008600846006840F0030008604848006827
:100820004849084046490860084600684649084368
:1008300043490860081F006800F0FF20091F086096
:100840000846006840F0BB1008604048006800207F
:100850003E4908600846006840F0BB300860081F49
:10086000006820F07040091F08600846006840F0EA
:10087000304008603648406820F4702034494860B1
:100880000846406840F4302048600846006820F080
:100890000F0008600846006840F00B000860002068
:1008A0004FF020418861C8612A4908604FF020401C
:1008B000806940F480504FF020418861084680698B
:1008C00040F4804088610846806940F010008861EB
:1008D0000846C069C8610846C06940F00100C861A7
:1008E0000846C06940F47060C8611A480068C1F8E1
:1008F0001C0118480068C1F81C010846D0F81C010A
:1009000040F44070C1F81C010846806940F00100C5
:10091000886100F03EF80948006820F00F000749A0
:1009200008600846006840F00300086001200349A1
:100930001031086000BD000000100240000C0140B2
:100940000414014000F0FF00BB0B00BB0418014081
:10095000002001401C0100A02DE9F04106460F4691
:100960001546984600240DE02A5D06EBC40188B2C6
:100970004346394600F02EF842F21070FFF7D2FDE0
:10098000601CC4B22846FFF7E9FCA042ECD8BDE8E1
:10099000F08100B5012000F0CDF8112000F0CAF878
:1009A0003A2000F0C7F8552000F0BEF8292000F0EA
:1009B000C1F8362000F0BEF8AA2000F0B5F80B20F0
:1009C00000F0B8F8202000F0AFF8202000F0ACF8DC
:1009D00000BD00002DE9FF4F82B006468B4614464D
:1009E000102508200190B246CDF800B0202C01DB84
:1009F0007F2C02DD06B0BDE8F08FA4F12000C4B268
:100A0000002736E04FF000092CE04FF0000822E00C
:100A10001C4800EB0410012101EB4801C91B405C9C
:100A200040FA09F000F0010020B15046059A009903
:100A3000FFF766FE0AF101001FFA80FA01983044C0
:100A4000504504DCB2460098401C80B2009008F18A
:100A5000010000F0FF0801988045D9DB09F1010091
:100A600000F0FF0905EBD571B9EB610FCDDB781C08
:100A7000C7B2E91705EB5171B7EBE10FC2DB00BF5D
:100A8000B8E70000A84800082DE9F84F82460C4658
:100A900015464FF0140814200090D34604EB0800CC
:100AA000401E1FFA80F9642D01DDBDE8F88F002695
:100AB0002BE0082725E005EBC50000EB05101849E1
:100AC00001EB4000805D791E084100F0010038B163
:100AD000144830F8250082B249465846FFF710FE08
:100AE000A9F101001FFA80F9A14508DA04EB08001A
:100AF000401E1FFA80F90BF101001FFA80FB781EDF
:100B0000C7B2002FD7DC701CC6B2009908FB01F0F9
:100B1000C11700EB5171B6EBE10FCADB00BFC4E7B0
:100B2000F84E000838550008014908807047000059
:100B30000008006C0149088070470000FE07006C47
:100B4000124AD26942F00202104BDA61104A108058
:100B5000121F11800E4A203A128842F001020C4BFB
:100B6000203B1A800A4A2C3A128842F00102084BB4
:100B70002C3B1A804523074A1370074A126842F03B
:100B800000524FF0E023C3F80021704700100240EC
:100B90002C0400401DE400E000E100E024488069EE
:100BA00040F00800224988612248006820F0F000E7
:100BB000204908600846006840F0100008600220E4
:100BC0001C49143108601B48001D006820F4702087
:100BD0001849091D08600846006840F48030086024
:100BE00088141449103108601148806940F0800071
:100BF0000F498861104800686FF30B000E490860C8
:100C00000846006840F0080008600846006840F0A8
:100C1000100008600846006840F40060086088150D
:100C200005490C31086040000860400008607047CA
:100C300000100240000C0140041C01402DE9F05F4F
:100C400005460E46300103F0CFFC81462D4905FBD9
:100C500001F003F0C9FC8246494603F0E3FB074676
:100C6000384603F0A1FC84B2204603F0BDFC834665
:100C7000394603F099FD82464FF0834103F0C8FCEA
:100C8000814603F091FC80464FF6FF7000EA0414A1
:100C900004EB080084B21C48806940F004001A4943
:100CA00088610846806940F4804088611748006880
:100CB00020F47F60154908600846006840F40B6026
:100CC00008601148C06840F480400F49C860084679
:100CD000C06820F48040C8600D4804800D4800685A
:100CE00040F020004FF0E021C1F804010848001D49
:100CF000008842F22C0108430549091D0880BDE81F
:100D0000F09F000040420F00001002400408014024
:100D10000838014004E100E007210020234A52681E
:100D2000234B1A40214B5A601A461268214B1A4035
:100D30001E4B1A601A46126842F480321A6000BFD5
:100D40001A4A1268520C002AFAD04FF48062174BEC
:100D50005A601A46526842EA81425A601A465268FC
:100D600042F480325A60144A126842F03202124B46
:100D70001A600E4A126842F080720C4B1A6000BF73
:100D80000A4A1268520E002AFAD0084A526842F003
:100D90000202064B5A6005E0044A5268C2F387001B
:100DA00000F003000228F7D1704700000010024055
:100DB0000000FFF8FFFFF6FE002002402148806996
:100DC00040F040001F4988611F48006820F47060AF
:100DD0001D4908600846006840F4006008601A4831
:100DE0000C30006840F0040017490C3108601548C9
:100DF000806940F00100134988611448806820F43C
:100E00007060124988600846806840F4806088609D
:100E10000F48006840F004000D4908600C480C3091
:100E2000006840F004000A490C3108606521094857
:100E300001700948006840F480704FF0E021C1F86B
:100E400000017047001002400018014000000140FE
:100E50000004014008E400E000E100E0204880696F
:100E600040F004001E4988611E48006820F00F0011
:100E70001C4908600846006840F0080008601948EE
:100E80000C30006820F0010016490C31086014484D
:100E9000806940F00100124988611348806820F0A1
:100EA0000F00114988600846806888600F48006814
:100EB00040F001000D4908600C480C30006840F01B
:100EC00001000A490C3108603521094801700948C0
:100ED000006840F040004FF0E021C1F80001704789
:100EE00000100240000801400000014000040140E1
:100EF00006E400E000E100E000BFFEE77047704755
:100F00007047000010B5012420480078012800D166
:100F100002241F480078F12806D0F22810D0F328C8
:100F20001AD0F42830D123E0204600F091FC194873
:100F30000068401C174908601748FFF7EDFA23E0E6
:100F4000204600F0DFFD13480068401C114908608E
:100F50001148FFF7E1FA17E0204602F04DFF0D4877
:100F60000068401C0B4908600B48FFF7D5FA0BE0FE
:100F7000204603F09BF807480068401C05490860BC
:100F80000548FFF7C9FA00BF00BF10BD48010020A7
:100F9000450100204C010020A086010020200149CD
:100FA00008607047100C014020200149086070471C
:100FB0001018014010B500F001F810BD0CB500206C
:100FC000019000903348006840F480303149086057
:100FD00000BF3048006800F4003000900198401CC9
:100FE0000190009818B90198B0F5A06FF1D1294887
:100FF000006800F4003010B10120009001E00020F2
:1010000000900098012843D12348006840F0100068
:10101000214908600846006820F00300086008467F
:10102000006840F0020008601A48406819494860AA
:101030000846406848600846406840F48060486060
:101040000846406820F47C1048600846406840F438
:10105000E81048600846006840F08070086000BFF3
:101060000C48006800F000700028F9D0094840687A
:1010700020F00300074948600846406840F002003D
:10108000486000BF0348406800F00C000828F9D110
:101090000CBD000000100240002002400F48007804
:1010A000401C0E4908700E48007820B900200D49F8
:1010B00008600D490860094800780A280CD1002012
:1010C0000649087009480088401C084908800848FB
:1010D0000078401C0649087070470000F0000020AE
:1010E000380100203C010020400100200E010020BA
:1010F0001201002010B51348006840F001001149AA
:10110000086008464068104908400E494860084693
:1011100000680E4908400B4908600846006820F442
:10112000802008600846406820F4FE0048604FF4C4
:101130001F008860FFF73EFF4FF000600449086021
:1011400010BD0000001002400000FFF8FFFFF6FE97
:1011500008ED00E010B51248008800F00100C0B1B1
:1011600010480078A8B10F480078062811D00E4822
:10117000007870B10D480078401C032190FBF1F21B
:1011800001FB1200094908700948007808B900F00D
:1011900061F90348008820F001000149088010BD72
:1011A00010040040390100204701002011010020F7
:1011B0000C0100200848008800F0010028B1074811
:1011C000006880F02000054908600348008820F08E
:1011D0000100014908807047100800400C180140C8
:1011E000012803D10103044A116004E04FF4805147
:1011F000014A121D11607047100C0140012803D1F3
:101200004102044A116004E04FF40071014A121DCA
:1012100011607047101C014010B5044600230020E7
:10122000FFF7DEFF0120FFF7E9FF00F0D7F86A487B
:10123000006800F4806008B942F21073E21704EB12
:101240009272901000EBD0725210A0EB4202012A71
:1012500003D10120FFF7D2FF02E00020FFF7CEFF0D
:1012600000F0BCF804EBD472501000EBD0725210B6
:10127000A0EB4202012A03D10120FFF7BFFF02E0E9
:101280000020FFF7BBFF00F0A9F8204604EBD07167
:101290004910A4EB4101012903D10120FFF7AEFF62
:1012A00002E00020FFF7AAFF00F098F80120FFF706
:1012B000A5FF00F093F80120FFF7A0FF00F08EF8E3
:1012C0000020FFF79BFF00F089F80020FFF796FF52
:1012D00000F084F84048006800F4807010B103F515
:1012E000006083B200F07AF83B48006800F4807038
:1012F00010B103F5806083B200F070F836480068E2
:1013000000F4807010B103F5007083B200F066F84D
:101310003148006800F4807010B103F5807083B22A
:1013200000F05CF82C48006800F4807010B103F104
:10133000800083B200F052F82748006800F4807003
:1013400010B103F1400083B200F048F82248006871
:1013500000F4807010B103F1200083B200F03EF879
:101360001D48006800F4807010B103F1100083B2D2
:1013700000F034F81848006800F4807010B103F1F0
:10138000080083B200F02AF81348006800F4807067
:1013900008B1181D83B200F021F80F48006800F46E
:1013A000807008B1981C83B200F018F80A480068F1
:1013B00000F4807008B1581C83B200F00FF800F000
:1013C0000DF800F00BF800F009F800F007F8012024
:1013D000FFF706FF184610BD081C01400220024915
:1013E0000860091D08607047100C014010B50D48D9
:1013F000008800F0200098B10A48001D00880A49C2
:1014000008700A480078052801D1FFF77BFD01200C
:10141000074908700348008820F02000014908802F
:1014200010BD0000003801404501002039010020B6
:10143000460100208021054A108000BF034A121F88
:1014400012880A40002AF9D0704700000438014091
:1014500000BFFEE72DE9F843002504E10024FDE08C
:101460000026F1E0824800EBC51000EBC400001D2F
:10147000805D66286ED10B2D01D1012004E0C5F1FD
:101480000B0000EB8000800087B2012F01D11320F8
:1014900000E014208046764800EBC51050F8340078
:1014A000022842D104EB840081003B461422002034
:1014B000CDF80080FFF750F9DEB96E496E4B1B780E
:1014C00011F8232004EB840188003946FFF7DCFA89
:1014D000674901EBC51101EBC40149794139674BFB
:1014E00013F8212004EB840188003946FFF7CCFA79
:1014F00030E05F4901EBC51101EBC40109794139C5
:101500005E4B13F8212004EB840188003946FFF775
:10151000BBFA5849584B1B7811F8232004EB84017F
:1015200088003946FFF7B0FA14E004EB840081002C
:101530003B4614220020CDF80080FFF70DF94D49FD
:101540004D4B1B7811F8232004EB840188003946A9
:10155000FFF79AFA464800EBC51000EBC400001DE7
:10156000805D62286ED10B2D01D1012004E0C5F110
:101570000B0000EB8000800087B2012F01D1132007
:1015800000E0142080463A4800EBC51050F83400C3
:10159000022842D104EB840081003B461422002043
:1015A000CDF80080FFF7D8F8DEB93549324B1B780B
:1015B00011F8232004EB840188003946FFF764FA10
:1015C0002B4901EBC51101EBC401497941392B4B82
:1015D00013F8212004EB840188003946FFF754FA00
:1015E00030E0234901EBC51101EBC4010979413910
:1015F000224B13F8212004EB840188003946FFF7C1
:1016000043FA1F491C4B1B7811F8232004EB84017B
:1016100088003946FFF738FA14E004EB84008100B3
:101620003B4614220020CDF80080FFF795F81449BE
:10163000114B1B7811F8232004EB840188003946F4
:10164000FFF722FA701CC6B2094800EBC51050F82B
:101650003400B0423FF706AF601CC4B2102CFFF656
:10166000FFAE681CC5B20C2DFFF6F8AEBDE8F883DE
:1016700054010020F400002011010020B85500089A
:10168000000100202DE9F84F4FF0000AD346012059
:10169000644908700024A7E00025A0E0002694E03B
:1016A000614800EBC41000EBC500001D805D4138AF
:1016B0005E4951F820805C4800EBC41000EBC50087
:1016C000001D805D61280DDB574800EBC41000EB66
:1016D000C500001D805D6138554951F8200000F0BB
:1016E0008070B0B9504800EBC41000EBC500001D7D
:1016F000805D61280FDB4C4800EBC41000EBC50097
:10170000001D805D61384A4951F8200000F48010C6
:1017100008B14FF0010BB8F1000F30DB454800EB8A
:101720000410405D58B30B2C01D1012004E0C4F13A
:101730000B0000EB8000800087B2012F01D1132045
:1017400000E01420814666B905EB85004FF6FF7274
:1017500002EA80013B4614220020CDF80090FEF7FB
:10176000FBFF08F0FF0205EB85014FF6FF7303EA6C
:1017700081003946FFF788F94FF0010A23E02D4830
:1017800000EB0410405DF0B10B2C01D1012004E00E
:10179000C4F10B0000EB8000800087B2012F01D163
:1017A000132000E01420814605EB85004FF6FF7200
:1017B00002EA80013B4614220020CDF80090FEF79B
:1017C000CBFF4FF0010A701C86B2174800EBC41023
:1017D00050F83500B0423FF763AF681C85B2102D5A
:1017E000FFF65CAF601C84B20C2CFFF655AFBAF16B
:1017F000000F12D1BBF1000F0FD11420DC23C8223F
:101800003221009046F64D30FEF7A6FF4FF6FF73EB
:1018100009A2DE213720FFF79FF800200149087058
:10182000BDE8F88F0C01002054010020B8550008D5
:10183000D4080020140800205072657373204B45B3
:101840005920555020746F20726574727921000000
:101850002DE9F04F9BB080464FF0000A4FF0180B77
:10186000B8F1020F01D14FF0140B00240CE0002559
:1018700006E000209C4901EB04114855681C85B224
:10188000102DF6DB601C84B20C2CF0DB974800783E
:1018900010B91BB0BDE8F08F00241FE0944850F849
:1018A000240000F0807040B1B8F1010F05D150461E
:1018B0000AF1010A01A941F820408D4850F824009E
:1018C00000F4801040B1B8F1020F05D150460AF182
:1018D000010A01A941F82040601C84B21A2CDDDB0A
:1018E0000B2428E0002522E000261CE0814800EBC4
:1018F000C41000EBC500001D7E4901EBC41151F876
:101900003510491E405C613801A951F82610884203
:1019100007D10023032229462046CDF8008000F09D
:10192000EDFF701C86B25645E0DB681C85B2102DB9
:10193000DADB601E84B20C2CD4DD00F099FE0024AA
:101940004DE0002545E0AC4241D06B48005D613878
:10195000674951F820006849495D613901228A4090
:101960001040A0B3002630E000272AE04FF0000925
:101970001EE0604800EBC61000EBC700001D10F829
:1019800009005D49095D88420ED15B48415D5948B7
:1019900000EBC61000EBC700001D00F80910012085
:1019A000514901EB0611C85509F101001FFA80F9F0
:1019B000504800EBC61050F837004845D9DC781C79
:1019C00087B2102FD2DB701C86B20C2ECCDB681CC9
:1019D00085B24A4800688542B5DB601C84B247483E
:1019E00000688442ADDBFFF74DFE002460E0002577
:1019F0005AE0404800EBC41050F83500022821D1CD
:101A00003C4800EBC41000EBC50040796138384910
:101A100051F82000012101FA0BF1084090B135483E
:101A200000EBC41000EBC50000796138304951F873
:101A3000200000F4800028B106202C490870012005
:101A40002F4908702B4800EBC41050F835000228CD
:101A500028D1284800EBC41000EBC500407961385C
:101A6000234951F82000012101FA0BF10840C8B1C7
:101A7000204800EBC41000EBC500007961381C4918
:101A800011F8200000F0080060B11A4800EBC41003
:101A900050F83500401E174901EBC41141F83500DC
:101AA000FFF7F0FD681C85B2102DA2DB601C84B22C
:101AB0000C2C9CDB002413E00D4850F8240000F4AB
:101AC000800058B10A4850F8240000F0807028B116
:101AD000062006490870012009490870601C84B27C
:101AE0001A2CE9DB00BFD4E61408002039010020DD
:101AF000D408002054010020130100201C01002004
:101B00003A0100202DE9F04F9BB080464FF0180BB2
:101B10004FF0000AB8F1020F01D14FF0140B00246E
:101B20000CE0002506E000209C4901EB041148551B
:101B3000681C85B2102DF6DB601C84B20C2CF0DB27
:101B40009748007810B91BB0BDE8F08F00241FE063
:101B5000944850F8240000F0807040B1B8F1010FB3
:101B600005D150460AF1010A01A941F820408D48EB
:101B700050F8240000F4801040B1B8F1020F05D1F4
:101B800050460AF1010A01A941F82040601C84B2C4
:101B90001A2CDDDB002528E0002422E000261CE0D2
:101BA000814800EBC41000EBC500001D7E4901EB2D
:101BB000C41151F83510491E405C613801A951F833
:101BC0002610884207D10023012229462046CDF85D
:101BD000008000F093FE701C86B25645E0DB601C6E
:101BE00084B20C2CDADB681C85B2102DD4DB00F03B
:101BF0003FFD00244DE0002545E0AC4241D06B485C
:101C0000005D6138674951F820006849495D6139D4
:101C100001228A401040A0B3002630E000272AE0CD
:101C20004FF000091EE0604800EBC61000EBC70053
:101C3000001D10F809005D49095D88420ED15B481E
:101C4000415D594800EBC61000EBC700001D00F8CD
:101C500009100120514901EB0611C85509F1010095
:101C60001FFA80F9504800EBC61050F8370048457D
:101C7000D9DC781C87B2102FD2DB701C86B20C2EF8
:101C8000CCDB681C85B24A4800688542B5DB601C25
:101C900084B2474800688442ADDBFFF7F3FC0024C0
:101CA00060E000255AE0404800EBC41050F83500D1
:101CB000022821D13C4800EBC41000EBC50040795C
:101CC0006138384951F82000012101FA0BF1084030
:101CD00090B1354800EBC41000EBC50000796138C5
:101CE000304951F8200000F4800028B106202C492A
:101CF000087001202F4908702B4800EBC41050F8E1
:101D00003500022828D1284800EBC41000EBC5009C
:101D100040796138234951F82000012101FA0BF183
:101D20000840C8B1204800EBC41000EBC5000079A2
:101D300061381C4911F8200000F0080060B11A4811
:101D400000EBC41050F83500401E174901EBC411D8
:101D500041F83500FFF796FC681C85B2102DA2DB18
:101D6000601C84B20C2C9CDB002413E00D4850F85E
:101D7000240000F4800058B10A4850F8240000F014
:101D8000807028B1062006490870012009490870B2
:101D9000601C84B21A2CE9DB00BFD4E614080020D2
:101DA00039010020D4080020540100201301002034
:101DB0001C0100203A0100202DE9F84306460120CD
:101DC00031490870F02000234FF4A07219460090AA
:101DD0001846FEF7C1FC042E01DDBDE8F88300249F
:101DE00043E000253DE006EB4600284901EB0010EA
:101DF00050F82400405D4138254951F82070002FEB
:101E000014DB0B2C01D1012004E0C4F10B0000EB2A
:101E1000800080001FFA80F8FAB205EB85014FF6CA
:101E2000FF7303EA81004146FEF72EFE01201949A7
:101E300001EBC41141F8350006EB4600134901EBF4
:101E4000001050F82400405D124901EBC41101EB71
:101E5000C50108715F20104901EB04114855681C49
:101E600085B2102DBFDB601C84B20C2CB9DB0020C6
:101E70000A4908600A49088000F0FAFB002002497C
:101E8000087000BFA9E700000C010020000000203E
:101E9000B855000854010020540700204C010020D0
:101EA0000E01002008B5FEF737FF0520FEF706FCFF
:101EB000FEF718FCFEF7DAFB4FF416514820FEF748
:101EC000BDFEFEF76BFEFEF783FCFEF777FFFEF725
:101ED000C5FFFEF77DFB41F61F4140F2CF70FEF7D4
:101EE0002FFEFA48FEF718FBFFF758F8FFF75CF8EB
:101EF000F02000234FF4A072194600901846FEF718
:101F00002BFC42F21070FEF707FB4FF6FF73F0A2B6
:101F1000C8214620FEF720FD4FF47843EFA2C821E8
:101F20009E20FEF719FD4FF6FF73EFA2A02141207E
:101F3000FEF712FD4FF6FF73F1A28C214120FEF750
:101F40000BFD40F2FF73F4A250214120FEF704FD87
:101F50000020F849087016E0F6490C7804EBD471BB
:101F60004910A4EB4101CAB2F249097801EB8101A1
:101F7000890001F128001421FEF786FDED48007864
:101F8000401CEC490870EB4800780C28E4DBEA4878
:101F9000FEF7C2FA00BF0520FFF73EF9E7490880C7
:101FA0000120FFF739F9E64908804FF47A70FEF70F
:101FB000B3FAE248008842F2107190FBF1F028B9C0
:101FC000DF48008890FBF1F00028E4D0DD48FEF700
:101FD000A3FA19E3DC4800680B2837D3DB48006814
:101FE00020F40060D94908600120D9490870082010
:101FF000D049087019E0CF480078C0F10A010120EB
:102000008840D4490968084050B1CA480078401E49
:10201000012101FA00F0D04909780843CE4908703F
:10202000C4480078401EC3490870C248007801289F
:10203000E1DA0020C6490870C3490860C549086054
:10204000C248006840F40060C0490860C248007897
:102050006B282CD0732804D074284ED0752825D135
:1020600071E0BA48006820F40060B8490860BB48D5
:102070000078052802D1BA48007800E00120B9496B
:102080000860F120FFF7D6F9B6490878FFF7E0FBC2
:10209000B5480068401CB44908608C48FEF73CFA1B
:1020A000AA48006840F40060A849086071E0A748A9
:1020B000006820F40060A5490860A8480078052859
:1020C00002D1A748007800E00120A6490860F2206C
:1020D000FFF7B0F9A3490878FFF714FDA24800689C
:1020E000401CA14908607948FEF716FA9748006835
:1020F00040F40060954908604BE09448006820F483
:1021000000609249086095480078052802D19448FB
:10211000007800E0012093490860F320FFF78AF976
:102120009049087801F068FE8F480068401C8E498D
:1021300008606648FEF7F0F98448006840F40060E3
:102140008249086025E08148006820F400607F49EA
:10215000086082480078052802D18148007800E0B4
:10216000012080490860F420FFF764F97D49087870
:1021700001F09CFF7C480068401C7B490860534884
:10218000FEF7CAF97148006840F400606F490860C2
:1021900000BF00BF00207049087070480078002818
:1021A00073D172480078A8B3F02000234FF4A072D6
:1021B000194600901846FEF7CFFA4FF6FF736CA24F
:1021C000B4214120FEF7C8FB4AF6FF736EA27821C6
:1021D0003220FEF7C1FB4FF6FF336CA278216E2050
:1021E000FEF7BAFB4FF6CF7369A27821AA20FEF75B
:1021F000B3FB4FF6FD7367A27821E620FEF7ACFB38
:102200004FF6340364A228215020FEF7A5FB0020DE
:10221000564908700520FEF7FFFF48490880084628
:10222000008842F6CC1188422EDB4448008842F6F2
:102230009421884228DC42F21070FEF76DF90520E7
:10224000FEF7EAFF3D4908800846008842F6CC11B7
:10225000884219DB3948008842F69421884213DC11
:102260000120FEF7D9FF364908800846008842F66B
:10227000285188420ADB3248008842F6F0518842F1
:1022800004DC0120354908709DE0D7E02C48008827
:1022900042F69831884209DB2948008842F66041BD
:1022A000884203DC02202D4908708CE02448008815
:1022B00042F60821884278DB2148008842F6D02186
:1022C000884272DC0320254908707CE040420F0000
:1022D00057656C636F6D6520746F200042616261A9
:1022E00020697320596F75004C7569204B77616EBA
:1022F000204B696E2031313535313130343639007B
:10230000576F6E672057616E204B6920313135352C
:102310003132343834330000507265737320616E8B
:1023200079776865726520746F20626567696E21D0
:102330000000000010010020A086010034010020F0
:1023400036010020A02526004001002000040140A5
:10235000380100203C010020440100203901002008
:1023600048010020500100204C0100203A010020CB
:10237000506C656173652063686F6F736520746866
:1023800065206C6576656C0031000000320000004D
:1023900033000000340000004D756C7469706C618E
:1023A0007965723A20203500FFE79848008842F6A8
:1023B0007801884207DB95480088B0F5255F02DC8C
:1023C0000420934908709348008842F624418842CB
:1023D0002EDB9048008842F6EC41884228DC42F22D
:1023E0001070FEF799F80520FEF716FF894908805E
:1023F0000846008842F62441884219DB8548008857
:1024000042F6EC41884213DC0120FEF705FF7F49CC
:1024100008800846008842F6A001884208DB7B4815
:10242000008842F63021884202DC05207849087095
:102430007748007810B10120774908707448007817
:1024400001280AD1754908707348007828B1002026
:10245000FFF7B2FC0020704908706D480078022830
:102460000BD101206D4908706B48007828B101201C
:10247000FFF7A2FC0020684908706548007803282F
:102480000BD10120654908706348007828B102200B
:10249000FFF792FC0020604908705D48007804282E
:1024A0000BD101205D4908705B48007828B10320FA
:1024B000FFF782FC0020584908705548007805282D
:1024C0005BD155480078C0B1F02000234FF4A072D2
:1024D000194600901846FEF73FF94FF6FF7350A2D9
:1024E00078213220FEF738FA002054490870544908
:1024F000087049490870534908705048007878B30B
:102500004F48007860BB0420FFF756FC4E48007827
:1025100001280AD1414908704FF6F073AFF29812C2
:10252000DE210020FEF718FA14E047480078022860
:102530000AD13A4908704FF6F073AFF2B012DE21BB
:102540000020FEF709FA05E000203149087001205B
:102550003149087001203A49087000203749087055
:102560003748007848B9374800780F2805DD002043
:102570002749087001202849087025480078062856
:1025800042D125480078A8B3502003466422114662
:10259000009043F28A20FEF7DFF84FF6FF732BA27C
:1025A0008C217320FEF7D8F92B482CA102682C4807
:1025B000FDF750FE4FF6FF73294A921F78216E20D7
:1025C000FEF7CAF92748028824A12748FDF742FEF2
:1025D00026A12548401FFDF7E0FE4FF6FF73224A73
:1025E000521F64216E20FEF7B7F900200A490870D7
:1025F0001449087013480078032805DB00200449BB
:102600000870012004490870E4E40000360100204D
:1026100039010020340100203A0100204801002047
:1026200057616974696E6720666F7220436F6E6EC2
:10263000656374696F6E2E2E2E0000004601002027
:10264000470100201201002045010020596F75202C
:1026500077696E21000000004C0100202564000015
:10266000260100200E0100202F0100207300000031
:1026700030B5002005E000229E4B43F82020421C8C
:1026800090B21A28F7DB00202FE1002128E19A4AB6
:1026900002EBC01202EBC102121D974B03EBC013F9
:1026A00053F831305B1ED25C412A7DDB924A02EB4B
:1026B000C01202EBC102121D8F4B03EBC01353F883
:1026C00031305B1ED25C5A2A6EDC8B4A02EBC012A0
:1026D00002EBC102121D884B03EBC01353F83130DB
:1026E0005B1ED25C492A5FD04A1C102A7DDA824ADE
:1026F00002EBC0134A1C03EBC202121D7E4B03EB1C
:10270000C0144B1C54F833305B1ED25C492A6CD188
:102710008A1C102A69DA784A02EBC0138A1C03EB80
:10272000C202121D744B03EBC0148B1C54F83330DF
:102730005B1ED25C412A58DB6F4A02EBC0138A1C35
:1027400003EBC202121D6C4B03EBC0148B1C54F83C
:1027500033305B1ED25C5A2A47DC674A02EBC01357
:102760008A1C03EBC202121D634B03EBC0148B1CCB
:1027700054F833305B1ED25C492A36D05E4A02EBF5
:10278000C01202EBC102121D5B4B03EBC01353F8E6
:1027900031305B1ED25C413A564B53F82220564BE7
:1027A00003EBC0148B1C00E098E004EBC3031B1D7B
:1027B000514C04EBC0158C1C55F83440641E1B5D55
:1027C000413B01249C4022434B4B03EBC01303EBE2
:1027D000C1031B1D484C04EBC01454F83140641E67
:1027E0001B5D413B434C44F82320421C0C2A75DA04
:1027F000414B03EBC21202EBC102121D1C46431CEB
:1028000004EBC31353F831305B1ED25C492A65D107
:10281000821C0C2A62DA234603EBC21202EBC102CD
:10282000121D831C04EBC31353F831305B1ED25CC2
:10283000412A53DB2346821C03EBC21202EBC10286
:10284000121D831C04EBC31353F831305B1ED25CA2
:102850005A2A43DC2346821C03EBC21202EBC1025C
:10286000121D831C04EBC31353F831305B1ED25C82
:10287000492A33D0224602EBC01202EBC102121DDC
:10288000234603EBC01353F831305B1ED25C413A50
:10289000184B53F82220831C04EBC31303EBC10332
:1028A0001B1D04EBC0158C1C55F83440641E1B5DC9
:1028B000413B01249C4042EA04030F4A02EBC01250
:1028C00002EBC102121D0C4C04EBC01454F8314051
:1028D000641E125D413A074C44F822304A1C91B202
:1028E0001029FFF6D4AE421C90B20C28FFF6CDAEF4
:1028F00030BD0000D4080020540100202DE9F84329
:1029000004460D4691461E46089F4FF01808012FB9
:1029100000D101E04FF01408B9F1010F7ED10DB9DB
:10292000BDE8F883FE4800EBC411681E01EBC0004F
:1029300000795F2839D1FA4800EBC41000EBC500DC
:10294000001DF74901EBC41151F83510491E415CD7
:10295000F34800EBC412681E02EBC0000171F0489E
:1029600000EBC41050F83500012807D15F20EC4976
:1029700001EBC41101EBC50108710AE0E84800EB66
:10298000C41050F83500401EE54901EBC41141F870
:1029900035000121E34800EB0412681E11540120A8
:1029A000E04901EB04114855BAE7002E5AD1DC4842
:1029B00000EBC411681E01EBC000001DD84901EBFB
:1029C000C412691E52F83110491E405C412810DBC8
:1029D000D34800EBC411681E01EBC000001DD049B4
:1029E00001EBC412691E52F83110491E405C5A288E
:1029F00028DDCB4800EBC411681E01EBC000001DB0
:102A0000C74901EBC412691E52F83110491E405CDF
:102A1000612827DBC24800EBC41100E01EE2681EFB
:102A200001EBC000001DBE4901EBC412691E52F843
:102A30003110491E405C6138BB4931F8200000F478
:102A4000004078B1681E81B2002301222046009721
:102A5000FFF754FF01231A46294620460097FFF747
:102A60004DFF5DE7012E49D1AD4800EBC411681E52
:102A700001EBC000001DAA4901EBC412691E52F807
:102A80003110491E405C412810DBA54800EBC41101
:102A9000681E01EBC000001DA14901EBC412691EB4
:102AA00052F83110491E405C5A2826DD9C4800EB44
:102AB000C411681E01EBC000001D994901EBC4124E
:102AC000691E52F83110491E405C612816DB94489B
:102AD00000EBC411681E01EBC000001D904901EB22
:102AE000C412691E52F83110491E405C61388E498B
:102AF00031F8200000F4004000B111E7884800EBF5
:102B0000C411681E01EBC000007961280EDB844807
:102B100000EBC411681E01EBC000007961388249E6
:102B200051F8200000F4802000B1F9E67C4800EB69
:102B3000C411681E51F8300001285CD1784800EBC0
:102B4000C411681E01EBC0000079612853DB744892
:102B500000EBC411681E01EBC000007961387249B6
:102B600011F8200000F00800B8B36D4800EBC41065
:102B700000EBC500001D6A4901EBC41151F8351086
:102B8000491E405C612836DB654800EBC41000EB51
:102B9000C500001D624901EBC41151F83510491EF2
:102BA000405C6138604951F82000012101FA08F1C8
:102BB000084090B15A4800EBC41050F83500022884
:102BC0000CD1574800EBC41050F83500401E544952
:102BD00001EBC41141F8350007E00CE05F205049DB
:102BE00001EBC41101EBC501087101204D4901EB56
:102BF0000411485594E64A4800EBC411681E51F888
:102C00003000012844D1464800EBC411681E01EB96
:102C1000C000007961283BDB414800EBC411681E0D
:102C200001EBC000007961383F4951F8200000F401
:102C3000002068B33A4800EBC41050F83500022871
:102C40000BD1374800EBC41050F83500401E344912
:102C500001EBC41141F8350006E05F20304901EB7B
:102C6000C41101EBC50108715F212D4800EBC412AE
:102C7000681E02EBC000017101202A4901EB04111A
:102C800048550121274800EB0412681E115447E6FD
:102C9000234800EBC411681E51F83000012845D1CB
:102CA0001F4800EBC411681E01EBC00000796128C9
:102CB0003CDB1B4800EBC411681E01EBC00000792F
:102CC0006138194951F8200000F4800070B31448AD
:102CD00000EBC41000EBC500001D114901EBC4114D
:102CE00051F83510491E405C612864DB0C4800EB4C
:102CF000C41000EBC500001D094901EBC41151F8D7
:102D00003510491E405C6138074951F820100120F8
:102D100000FA08F0014049B1014800EBC41106E097
:102D20005401002014080020D408002043E0681E4D
:102D300051F83000401CFA4901EBC412691E42F8F8
:102D40003100F74800EBC41000EBC500001DF4494A
:102D500001EBC41151F83510491E415CF04800EBFD
:102D6000C412681E02EBC0004171ED4800EBC410B4
:102D700050F8350002280BD1E94800EBC41050F898
:102D80003500401EE64901EBC41141F8350006E06C
:102D90005F20E34901EBC41101EBC501087101207B
:102DA000E04901EB041148550121DE4800EB041213
:102DB000681E1154B4E50620FEF73CFBD84800EB32
:102DC000C411681E51F83000022800D1A8E5D4488B
:102DD00000EBC411681E51F83000401CD04901EBD3
:102DE000C412691E42F83100CD4800EBC41000EB5C
:102DF000C500001DCA4901EBC41151F83510491E28
:102E0000415CC74800EBC412681E02EBC000417170
:102E1000C34800EBC41050F8350002280BD1C0485D
:102E200000EBC41050F83500401EBD4901EBC41141
:102E300041F8350006E05F20B94901EBC41101EB10
:102E4000C50108710120B74901EB04114855012162
:102E5000B44800EB0412681E115461E5B9F1020F89
:102E60007ED10F2D00D15BE5AD4800EBC411681C8D
:102E700001EBC00000795F2839D1A94800EBC410EC
:102E800000EBC500001DA64901EBC41151F8351037
:102E9000491E415CA24800EBC412681C02EBC00052
:102EA00001719F4800EBC41050F83500012807D18C
:102EB0005F209B4901EBC41101EBC50108710AE0D9
:102EC000974800EBC41050F83500401E944901EBC0
:102ED000C41141F835000121924800EB0412681C2E
:102EE000115401208F4901EB0411485518E5C6BB68
:102EF0008B4800EBC411681C01EBC000001D884921
:102F000001EBC412691C52F83110491E405C412883
:102F100010DB834800EBC411681C01EBC000001DEE
:102F20007F4901EBC412691C52F83110491E405C04
:102F30005A2829DD7A4800EBC411681C01EBC00057
:102F4000001D774901EBC412691C52F83110491E6B
:102F5000405C612828DB724800EBC411681C01E06A
:102F60001BE221E001EBC000001D6D4901EBC41222
:102F7000691C52F83110491E405C61386A4931F8C9
:102F8000200000F4004078B1681C81B200230222C6
:102F900020460097FFF7B2FC012302222946204673
:102FA0000097FFF7ABFCBBE4012E49D15C4800EB76
:102FB000C411681C01EBC000001D594901EBC4128B
:102FC000691C52F83110491E405C412810DB5448FE
:102FD00000EBC411681C01EBC000001D504901EB5F
:102FE000C412691C52F83110491E405C5A2826DD73
:102FF0004B4800EBC411681C01EBC000001D4849A0
:1030000001EBC412691C52F83110491E405C612862
:1030100016DB434800EBC411681C01EBC000001D27
:103020003F4901EBC412691C52F83110491E405C43
:1030300061383D4931F8200000F4004000B16FE4F0
:10304000374800EBC411681C01EBC000007961280F
:103050000EDB334800EBC411681C01EBC0000079A3
:103060006138314951F8200000F4802000B157E464
:103070002B4800EBC411681C51F83000012862D1C4
:10308000274800EBC411681C01EBC00000796128DF
:1030900059DB234800EBC411681C01EBC000007928
:1030A0006138214911F8200000F00800B8B31C482D
:1030B00000EBC41000EBC500001D194901EBC41161
:1030C00051F83510491E405C61283CDB144800EB88
:1030D000C41000EBC500001D114901EBC41151F8EB
:1030E0003510491E405C61380F4951F8201001200D
:1030F00000FA08F0014091B1094800EBC41050F803
:103100003500022812D1064800EBC41050F83500F3
:10311000401E034901EBC41141F835000DE012E0F7
:103120005401002014080020D40800205F20FE492C
:1031300001EBC41101EBC50108710120FB4901EB52
:103140000411485530E4F84800EBC411681C51F8EC
:103150003000012844D1F44800EBC411681C01EB95
:10316000C000007961283BDBEF4800EBC411681C0C
:1031700001EBC00000796138ED4951F8200000F4FE
:10318000002068B3E84800EBC41050F8350002286E
:103190000BD1E54800EBC41050F83500401EE24961
:1031A00001EBC41141F8350006E05F20DE4901EB78
:1031B000C41101EBC50108715F21DB4800EBC412AB
:1031C000681C02EBC00001710120D84901EB041119
:1031D00048550121D54800EB0412681C115440E405
:1031E000D14800EBC411681C51F83000012855D1BA
:1031F000CD4800EBC411681C01EBC00000796128C8
:103200007BDBC94800EBC411681C01EBC0000079EE
:103210006138C74951F8200000F48000F0B3C2487B
:1032200000EBC41000EBC500001DBF4901EBC41149
:1032300051F83510491E405C61285EDBBA4800EB4E
:10324000C41000EBC500001DB74901EBC41151F8D3
:103250003510491E405C6138B54951F82000012104
:1032600001FA08F10840C8B1AF4800EBC411681C6E
:1032700051F83000401CAC4901EBC412691C42F803
:103280003100A94800EBC41000EBC500001DA649A1
:1032900001EBC41151F83510491E00E02DE0415CEE
:1032A000A14800EBC412681C02EBC00041719E48AB
:1032B00000EBC41050F8350002280BD19A4800EBFF
:1032C000C41050F83500401E974901EBC41141F875
:1032D000350006E05F20944901EBC41101EBC50104
:1032E00008710120914901EB0411485501218F48D3
:1032F00000EB0412681C115417E48B4800EBC41156
:10330000681C51F83000022800D10EE4864800EB1A
:10331000C411681C51F83000401C834901EBC412F1
:10332000691C42F83100804800EBC41000EBC50076
:10333000001D7D4901EBC41151F83510491E415C57
:10334000794800EBC412681C02EBC000417176485A
:1033500000EBC41050F8350002280BD1724800EB86
:10336000C41050F83500401E6F4901EBC41141F8FC
:10337000350006E05F206C4901EBC41101EBC5018B
:1033800008710120694901EB041148550121674882
:1033900000EB0412681C115490E2B9F1030F7CD1C8
:1033A0000B2C00D126E46049601C01EBC01000EB3F
:1033B000C50000795F2838D1084600EBC41000EB47
:1033C000C500001D01EBC41151F83510491E415CC8
:1033D000554A601C02EBC01000EBC500017110469D
:1033E00000EBC41050F83500012807D15F201146CA
:1033F00001EBC41101EBC50108710AE04A4800EB7A
:10340000C41050F83500401E474901EBC41141F883
:1034100035000121454A601C02EB00104155012096
:10342000114601EB0411485531E4BEBB3E49601C16
:1034300001EBC01000EBC500001D0A46611C02EB49
:10344000C11151F83510491E405C41280FDB11466F
:10345000601C01EBC01000EBC500001D611C02EBFD
:10346000C11151F83510491E405C5A2828DD2E49FB
:10347000601C01EBC01000EBC500001D0A46611C7A
:1034800002EBC11151F83510491E405C612827DB61
:103490001146601C01EBC01001E010E220E000EBDF
:1034A000C500001D611C02EBC11151F83510491E09
:1034B000405C61381E4931F8200000F4004078B1CA
:1034C000611C88B20023032229460097FFF716FAF1
:1034D00001230322294620460097FFF70FFA69E4EB
:1034E000012E4ED11049601C01EBC01000EBC5004D
:1034F000001D0A46611C02EBC11151F83510491E2E
:10350000405C41280FDB1146601C01EBC01000EB52
:10351000C500001D611C02EBC11151F83510491E98
:10352000405C5A282CDD05E05401002014080020DE
:10353000D4080020FA49601C01EBC01000EBC50064
:10354000001D0A46611C02EBC11151F83510491EDD
:10355000405C612815DB1146601C01EBC01000EBDC
:10356000C500001D611C02EBC11151F83510491E48
:10357000405C6138EB4931F8200000F4004000B1B4
:1035800018E4E749601C01EBC01000EBC5000079AE
:1035900061280DDB601C01EBC01000EBC500007959
:1035A0006138E04951F8200000F4802000B10DE4BA
:1035B000DB49601C01EBC01050F8350001285AD1DE
:1035C000601C01EBC01000EBC5000079612852DBE4
:1035D000601C01EBC01000EBC50000796138D149D7
:1035E00011F8200000F00800B8B3CD4800EBC4107B
:1035F00000EBC500001DCA4901EBC41151F835109C
:10360000491E405C612836DBC54800EBC41000EB66
:10361000C500001DC24901EBC41151F83510491E07
:10362000405C6138BF4951F82010012000FA08F0D1
:10363000014091B1BA4800EBC41050F8350002289F
:103640000CD1B74800EBC41050F83500401EB44907
:1036500001EBC41141F8350007E00CE05F20B049F0
:1036600001EBC41101EBC50108710120AE4901EB6A
:10367000041148553AE4AA49601C01EBC01050F807
:103680003500012842D1601C01EBC01000EBC500E1
:10369000007961283ADB601C01EBC01000EBC5002B
:1036A000007961389F4951F8200000F4002068B388
:1036B0009B4800EBC41050F8350002280BD1984805
:1036C00000EBC41050F83500401E954901EBC411C1
:1036D00041F8350006E05F20914901EBC41101EB90
:1036E000C50108715F218E4A601C02EBC01000EB1F
:1036F000C500017101218C4A601C02EB001041558C
:103700000120114601EB041148554CE48449601C2A
:1037100001EBC01050F83500012853D1601C01EBBB
:10372000C01000EBC5000079612879DB601C01EB5B
:10373000C01000EBC500007961387A4951F82000CB
:1037400000F48000F0B3764800EBC41000EBC50035
:10375000001D734901EBC41151F83510491E405C3E
:1037600061285DDB6E4800EBC41000EBC500001D56
:103770006B4901EBC41151F83510491E405C6138AA
:10378000684951F82000012101FA08F10840C8B148
:103790006349601C01EBC01050F83500401C0A461C
:1037A000611C02EBC11141F83500104600EBC4105A
:1037B00000EBC500001D114601EBC41151F8351096
:1037C000491E00E02CE0415C601C02EBC01000EBE5
:1037D000C5004171104600EBC41050F835000228B6
:1037E0000BD1104600EBC41050F83500401E1146B6
:1037F00001EBC41141F8350006E05F20484901EBB8
:10380000C41101EBC50108710121474A601C02EB9C
:10381000001041550120114601EB041148550EE4FA
:103820003F49601C01EBC01050F83500022800D160
:1038300005E43B49601C01EBC01050F83500401C0A
:103840000A46611C02EBC11141F83500104600EB3D
:10385000C41000EBC500001D114601EBC41151F866
:103860003510491E415C601C02EBC01000EBC50026
:103870004171104600EBC41050F8350002280BD1FE
:10388000104600EBC41050F83500401E114601EB05
:10389000C41141F8350006E05F20214901EBC41155
:1038A00001EBC501087101211F4A601C02EB0010E9
:1038B00041550120114601EB0411485595E2B9F13B
:1038C000040FFBD104B93DE4601E154901EBC010A3
:1038D00000EBC50000795F283FD1084600EBC4101B
:1038E00000EBC500001D01EBC41151F83510491E55
:1038F000415C601E0A4A02EBC01000EBC50001717A
:10390000104600EBC41050F8350001280ED15F209E
:10391000114601EBC41101EBC501087111E0000073
:1039200054010020D408002014080020FB4800EBBC
:10393000C41050F83500401EF84901EBC41141F89D
:1039400035000121601EF64A02EB001041550120AE
:10395000114601EB0411485541E4E6BB601EEF49F6
:1039600001EBC01000EBC500001D611EEB4A02EB2D
:10397000C11151F83510491E405C41280FDB601E13
:10398000114601EBC01000EBC500001D611E02EBEB
:10399000C11151F83510491E405C5A2827DD601EC0
:1039A000DE4901EBC01000EBC500001D611EDB4AC3
:1039B00002EBC11151F83510491E405C612826DB2D
:1039C000601E114601EBC01000EBC500001D611E1A
:1039D00002EBC11100E01AE051F83510491E405CBD
:1039E0006138D04931F8200000F4004078B1611E00
:1039F00088B20023042229460097FEF77FFF0123A7
:103A00000422294620460097FEF778FF74E4012E31
:103A100047D1601EC14901EBC01000EBC500001D7D
:103A2000611EBE4A02EBC11151F83510491E405CBF
:103A300041280FDB601E114601EBC01000EBC500F2
:103A4000001D611E02EBC11151F83510491E405C8A
:103A50005A2825DD601EB14901EBC01000EBC500FE
:103A6000001D611EAD4A02EBC11151F83510491E0F
:103A7000405C612815DB601E114601EBC01000EBB5
:103A8000C500001D611E02EBC11151F83510491E21
:103A9000405C6138A34931F8200000F4004000B1D7
:103AA0002AE4601E9D4901EBC01000EBC5000079BF
:103AB00061280DDB601E01EBC01000EBC500007932
:103AC0006138984951F8200000F4802000B113E4D7
:103AD000601E924901EBC01050F8350001285AD100
:103AE000601E01EBC01000EBC5000079612852DBBD
:103AF000601E01EBC01000EBC500007961388949F8
:103B000011F8200000F00800B8B3844800EBC4109E
:103B100000EBC500001D814901EBC41151F83510BF
:103B2000491E405C612836DB7C4800EBC41000EB8A
:103B3000C500001D794901EBC41151F83510491E2B
:103B4000405C6138774951F82000012101FA08F101
:103B5000084090B1714800EBC41050F835000228BD
:103B60000CD16E4800EBC41050F83500401E6B4974
:103B700001EBC41141F8350007E00CE05F20674914
:103B800001EBC41101EBC50108710120644901EB8F
:103B90000411485506E4601E604901EBC01050F85E
:103BA0003500012842D1601E01EBC01000EBC500BA
:103BB000007961283ADB601E01EBC01000EBC50004
:103BC00000796138574951F8200000F4002068B3AB
:103BD000524800EBC41050F8350002280BD14F4872
:103BE00000EBC41050F83500401E4C4901EBC411E5
:103BF00041F8350006E05F20484901EBC41101EBB4
:103C0000C50108715F21601E444A02EBC01000EB41
:103C1000C50001710121601E414A02EB00104155AF
:103C20000120114601EB0411485558E4601E3B4940
:103C300001EBC01050F83500012853D1601E01EB94
:103C4000C01000EBC500007961284BDB601E01EB62
:103C5000C01000EBC50000796138324951F82000EE
:103C600000F48000F0B32D4800EBC41000EBC50059
:103C7000001D2A4901EBC41151F83510491E405C62
:103C8000612864DB254800EBC41000EBC500001D73
:103C9000224901EBC41151F83510491E405C6138CE
:103CA000204951F82010012000FA08F00140C9B164
:103CB000601E1A4901EBC01050F83500401C611E0F
:103CC000164A02EBC11141F83500104600EBC41052
:103CD00000EBC500001D114601EBC41151F8351071
:103CE000491E00E033E0415C601E02EBC01000EBB7
:103CF000C5004171104600EBC41050F83500022891
:103D000012D1104600EBC41050F83500401E114689
:103D100001EBC41141F835000DE000005401002012
:103D200014080020D40800205F20314901EBC411A1
:103D300001EBC50108710121601E2E4A02EB001043
:103D400041550120114601EB0411485518E4601E4D
:103D5000274901EBC01050F83500022800D10FE4CC
:103D6000601E234901EBC01050F83500401C611E55
:103D70001F4A02EBC11141F83500104600EBC41098
:103D800000EBC500001D114601EBC41151F83510C0
:103D9000491E415C601E02EBC01000EBC500417182
:103DA000104600EBC41050F8350002280BD1104625
:103DB00000EBC41050F83500401E114601EBC41151
:103DC00041F8350006E05F20094901EBC41101EB21
:103DD000C50108710121601E064A02EB0010415521
:103DE0000120114601EB0411485500BF42E40000D8
:103DF00054010020140800202DE9F04F9BB08046AC
:103E00004FF0180B4FF0000AB8F1020F01D14FF03C
:103E1000140B00240CE0002506E000209C4901EB77
:103E200004114855681C85B2102DF6DB601C84B265
:103E30000C2CF0DB9748007810B91BB0BDE8F08F70
:103E400000241FE0944850F8240000F0807040B136
:103E5000B8F1010F05D150460AF1010A01A941F854
:103E600020408D4850F8240000F4801040B1B8F193
:103E7000020F05D150460AF1010A01A941F820407C
:103E8000601C84B21A2CDDDB0F2528E0002422E020
:103E900000261CE0814800EBC41000EBC500001DAB
:103EA0007E4901EBC41151F83510491E405C613860
:103EB00001A951F82610884207D100230222294681
:103EC0002046CDF80080FEF719FD701C86B25645DD
:103ED000E0DB601C84B20C2CDADB681E85B2102D8E
:103EE000D4DDFEF7C5FB00244DE0002545E0AC42E3
:103EF00041D06B48005D6138674951F8200068493E
:103F0000495D613901228A401040A0B3002630E0AB
:103F100000272AE04FF000091EE0604800EBC610C1
:103F200000EBC700001D10F809005D49095D8842DB
:103F30000ED15B48415D594800EBC61000EBC7004D
:103F4000001D00F809100120514901EB0611C85568
:103F500009F101001FFA80F9504800EBC61050F833
:103F600037004845D9DC781C87B2102FD2DB701C93
:103F700086B20C2ECCDB681C85B24A4800688542AC
:103F8000B5DB601C84B2474800688442ADDBFDF7B6
:103F900079FB002460E000255AE0404800EBC410A3
:103FA00050F83500022821D13C4800EBC41000EB4A
:103FB000C50040796138384951F82000012101FAE3
:103FC0000BF1084090B1354800EBC41000EBC50080
:103FD00000796138304951F8200000F4800028B1A0
:103FE00006202C49087001202F4908702B4800EB4F
:103FF000C41050F83500022828D1284800EBC4101E
:1040000000EBC50040796138234951F820000121B7
:1040100001FA0BF10840C8B1204800EBC41000EBD6
:10402000C500007961381C4911F8200000F0080033
:1040300060B11A4800EBC41050F83500401E174913
:1040400001EBC41141F83500FDF71CFB681C85B27B
:10405000102DA2DB601C84B20C2C9CDB002413E02E
:104060000D4850F8240000F4800058B10A4850F878
:10407000240000F0807028B1062006490870012055
:1040800009490870601C84B21A2CE9DB00BFD4E631
:104090001408002039010020D40800205401002019
:1040A000130100201C0100203A0100202DE9F04FEF
:1040B0009BB080464FF0000A4FF0180BB8F1020F8A
:1040C00001D14FF0140B00240CE0002506E0002085
:1040D0009C4901EB04114855681C85B2102DF6DB94
:1040E000601C84B20C2CF0DB9748007810B91BB030
:1040F000BDE8F08F00241FE0944850F8240000F041
:10410000807040B1B8F1010F05D150460AF1010AA3
:1041100001A941F820408D4850F8240000F4801097
:1041200040B1B8F1020F05D150460AF1010A01A9C8
:1041300041F82040601C84B21A2CDDDB002428E00A
:10414000002522E000261CE0814800EBC41000EBB3
:10415000C500001D7E4901EBC41151F83510491E00
:10416000405C613801A951F82610884207D100232C
:10417000042229462046CDF80080FEF7BFFB701CC4
:1041800086B25645E0DB681C85B2102DDADB601C78
:1041900084B20C2CD4DBFEF76BFA00244DE0002532
:1041A00045E0AC4241D06B48005D6138674951F849
:1041B00020006849495D613901228A401040A0B35E
:1041C000002630E000272AE04FF000091EE060489A
:1041D00000EBC61000EBC700001D10F809005D4998
:1041E000095D88420ED15B48415D594800EBC6101D
:1041F00000EBC700001D00F809100120514901EB38
:104200000611C85509F101001FFA80F9504800EB6A
:10421000C61050F837004845D9DC781C87B2102FFB
:10422000D2DB701C86B20C2ECCDB681C85B24A48EF
:1042300000688542B5DB601C84B247480068844250
:10424000ADDBFDF71FFA002460E000255AE040488E
:1042500000EBC41050F83500022821D13C4800EB97
:10426000C41000EBC50040796138384951F820008E
:10427000012101FA0BF1084090B1354800EBC41060
:1042800000EBC50000796138304951F8200000F496
:10429000800028B106202C49087001202F490870A1
:1042A0002B4800EBC41050F83500022828D12848CC
:1042B00000EBC41000EBC50040796138234951F888
:1042C0002000012101FA0BF10840C8B1204800EBA1
:1042D000C41000EBC500007961381C4911F82000BA
:1042E00000F0080060B11A4800EBC41050F8350027
:1042F000401E174901EBC41141F83500FDF7C2F922
:10430000681C85B2102DA2DB601C84B20C2C9CDBD7
:10431000002413E00D4850F8240000F4800058B148
:104320000A4850F8240000F0807028B106200649A1
:104330000870012009490870601C84B21A2CE9DB5E
:1043400000BFD4E61408002039010020D408002062
:1043500054010020130100201C0100203A0100201C
:1043600090EA010F48BF81F0004100F12E82421A0D
:104370003CBF801A89184FEAD0524FF07F4C1CEA9C
:10438000410FA2EBD15318BF9CEA026F00F03B80B3
:104390004FF0004C4CEA00204CEA012121FA03FCCA
:1043A00010EB0C0C1ED202F1FF325FEA1C2040EB36
:1043B000C25038BF70471CF07F0F4FEA400C18BF47
:1043C000BCF17F4F38BF7047C3F12003994008BF4D
:1043D00020F00100BCF17F4F38BF7047A0F1C04012
:1043E00000F0DDB94FEA3C00000A40EBC25028BFA4
:1043F0001CF0FF0F4FEA400CE6D018BFBCF17F4F16
:1044000038BF7047EAE79CEA026F05D010EA5C0FFC
:1044100008BF00F00040704710B500F07AF900BF07
:1044200064FBBE3E4FF47F0C1CEAD0121EBF1CEA98
:10443000D11392EA0C0F93EA0C0F00F0858090EAFA
:10444000010F48BF42F4807240F4000C41F40000B8
:104450002CF07F4120F07F4000B58142A2EB0302A7
:104460000FF2081CACEB504EC0F100009EF800E0CB
:104470004FEA4E0E00FB0EFC38BF49004FEA2C1CE1
:1044800002F5FA020CFB0EF34FEACE1E4FEA112C96
:104490004FEAC1210EEB635E42EB22420EFB0CFCA5
:1044A0004FEA1C5300FB03114FEA112C4FEA013174
:1044B0000EFB0CFC4FEADC4C00FB0C11C14228BF88
:1044C00009184CEB03335DF804EB10EB410143EBAF
:1044D000C250B2F57C0F38BF704729D512F0F00FEB
:1044E0001CBF00F1C04000F0004070470081828393
:1044F0008485868788898B8C8D8E8F9192939596F3
:1045000097999A9C9D9FA0A2A3A5A7A8AAACAEB07C
:10451000B2B3B5B7B9BCBEC0C2C5C7C9CCCED1D481
:10452000D7D9DCDFE2E6E9ECF0F3F7FAFE000000B1
:104530004FEA400C0CF1807CBCF17E4F28BF7047E5
:10454000B0F1C04000F02BB990EA010F0CEAD11392
:1045500048BF42F48072624538BF634507D213F406
:104560007F0F16D080EA010000F00040704710B5C0
:1045700000F0CFF8097EFC3E00F005B880EA0100AB
:1045800000F00040704780EA010000F0004000F0B9
:1045900006B912F47F0F04BF0248704780EA010099
:1045A00000F0FDB80000C07FC10DD1F19E0206DB16
:1045B0004FEA002343F0004323FA02F07047004221
:1045C00007D54FEA4001B1F1FE4F02D24FF0000093
:1045D000704710B500F09DF8499224800020704784
:1045E0006FEA200070470000B0FA80F310FA03F27F
:1045F000C3F19D030AD0D90501EB1220530638BF41
:10460000704700F1010008BF20F001007047000072
:104610004FF47F0C1CEAD0121EBF1CEAD11392EAA1
:104620000C0F93EA0C0F00F0478090EA010F48BF8F
:1046300042F480724FF0004C4CEA00204CEA012119
:1046400002EB0302A0FB0113A2F50002002918BF30
:1046500043F001035B0028BF4FEA330342EB2242E1
:104660005FEA132C4CEBC2502EBFBCEB436FB2F58C
:104670007C0F70474FEA036CBCF1004F08BF20F07D
:104680000100B2F57C0F38BF70470BD582F0FF02F6
:1046900012F5803FC8BF704700F1C040D8BF00F09E
:1046A0000040704700F5000C5FEA4C0C48BF7047B3
:1046B000B0F1C04000F073B890EA010F0CEAD113DA
:1046C00048BF42F48072624538BF634504D280EA35
:1046D000010000F00040704710B500F01AF800BF6C
:1046E0008900013E00F007B800F009B85FEA410C0C
:1046F0005FEA1C6C08D080EA010000F050B85FEA65
:10470000400C5FEA1C6CF6D14FF00040A0F5800031
:1047100070470EF1020E2EF0030E5EF8044B244299
:1047200004D44FEA4102B2F17F4F11D84FEA40035F
:10473000B3F17F4F0CD80ED14FEAD07CB2F17F4F4E
:104740000CEB4C0C0CF1020C08BF4CEBD17C04E0E0
:104750004FF0080C01E04FEAD17C0CEB4C0324FA3B
:1047600003F404F00704B4F1040C06D20EEB840C3D
:10477000BDE810404CF0010C6047DFE80CF0070882
:1047800002024FF00040A0F5800010BD0846420034
:1047900018BFD2F1807288BF00F0004010BDFF2129
:1047A00041EAD050C005704780F0004090EA010F08
:1047B0007FF5DDAD81F0004100F007B890EA010F10
:1047C00048BF81F000413FF5D2AD421A04D882F0D3
:1047D0000042A0EB020011444FEAD0524FF07F4C50
:1047E0001CEA410FA2EBD15318BF9CEA026F4AD0DA
:1047F0004FF0004C4CEA00204CEA012121FA03FC66
:10480000B0EB0C0C0FD412F0FE0F36D05FEA4C0068
:104810001DD5001240EBC25038BF70471CF03F0F4F
:1048200018BF70470BE0A2F101025FEA1C2040EBC9
:10483000C25038BF70471CF07F0F18BF7047C3F1DC
:104840002003994014BF401E20F0010070478008EB
:104850004FEA122308BF7047B0FA80FCA2EB0C02AB
:10486000CCF1280C60FA0CF093EA122F04BF00EB95
:10487000C25070474FEAC3707047130A5FEADC10FA
:1048800008BF7047F6E79CEA026F04D010EA5C0F9D
:1048900008BF0020704710B5FFF73BFF40DFF63E32
:1048A00081F00040704700000000000000000000A0
:1048B00000000000000000000000000000001FCC0D
:1048C000000C000000000000000008003000600044
:1048D0000800300060000000022003FC1E200220BF
:1048E00003FC1E200220000000000E1811043FFFF0
:1048F00010840C78000000000F0010840F3800C0F6
:10490000077818840078000000780F8410C4112400
:104910000E9800E4008400080800680070000000A1
:10492000000000000000000000000000000007E0A0
:10493000181820044002000000004002200418184B
:1049400007E00000000000000240024001800FF07C
:1049500001800240024000000080008000800FF8CB
:1049600000800080008000000001000D000E0000AB
:1049700000000000000000000000008000800080B7
:1049800000800080008000800000000C000C00000F
:104990000000000000000000000000060018006099
:1049A0000180060018002000000007F0080810042D
:1049B0001004080807F000000000080408041FFCA9
:1049C000000400040000000000000E0C101410246D
:1049D000104411840E0C000000000C181004110487
:1049E000110412880C700000000000E00320042471
:1049F00008241FFC0024000000001F9810841104EC
:104A00001104108810700000000007F008881104DD
:104A1000110418880070000000001C00100010FC39
:104A200013001C001000000000000E381144108418
:104A3000108411440E38000000000700088C104458
:104A40001044088807F00000000000000000030C7C
:104A5000030C00000000000000000000000101063F
:104A60000000000000000000000000800140022063
:104A70000410080810040000022002200220022076
:104A80000220022002200000000010040808041088
:104A9000022001400080000000000E001200100CF7
:104AA000106C10800F00000003E00C1813E41424B5
:104AB00017C4082807D000000004003C03C41C40B1
:104AC000074000E4001C000410041FFC1104110442
:104AD00011040E880070000003E00C18100410048C
:104AE000100410081C10000010041FFC1004100417
:104AF0001004080807F0000010041FFC1104110442
:104B000017C410040818000010041FFC1104110041
:104B100017C010000800000003E00C181004100477
:104B200010441C780040000010041FFC108400801A
:104B3000008010841FFC10040000100410041FFCEF
:104B40001004100400000000000300011001100117
:104B50001FFE10001000000010041FFC1104038051
:104B60001464181C1004000010041FFC100400043E
:104B700000040004000C000010041FFC1F0000FCD7
:104B80001F001FFC1004000010041FFC0C04030095
:104B900000E010181FFC100007F0080810041004B3
:104BA0001004080807F0000010041FFC1084108097
:104BB000108010800F00000007F008181024102447
:104BC000101C080A07F2000010041FFC1104110059
:104BD00011C011300E0C000400000E1C11041084D2
:104BE000108410441C3800001800100010041FFC32
:104BF000100410001800000010001FF8100400043A
:104C0000000410041FF8100010001E0011E0001C2A
:104C1000007013801C0010001FC0103C00E01F003B
:104C200000E0103C1FC000001004180C163401C036
:104C300001C01634180C100410001C00130400FCF2
:104C400013041C00100000000804101C10641084E1
:104C500013041C04101800000000000000007FFE78
:104C60004002400240020000000030000C000380BF
:104C70000060001C000300000000400240024002EF
:104C80007FFE000000000000000000002000400047
:104C90004000400020000000000100010001000170
:104CA0000001000100010001000040004000200060
:104CB00000000000000000000000009801240144F2
:104CC0000144014400FC000410001FFC00880104A2
:104CD00001040088007000000000007000880104DA
:104CE0000104010400880000000000700088010435
:104CF000010411081FFC0004000000F801440144F5
:104D00000144014400C800000000010401040FFC3C
:104D10001104110411001800000000D60129012916
:104D2000012901C90106000010041FFC00840100D4
:104D30000100010400FC000400000104190419FC36
:104D40000004000400000000000000030001010155
:104D5000190119FE0000000010041FFC002400408F
:104D600001B4010C010400000000100410041FFC39
:104D70000004000400000000010401FC0104010023
:104D800001FC0104010000FC010401FC008401009D
:104D90000100010400FC0004000000F8010401040B
:104DA0000104010400F80000010101FF0085010475
:104DB00001040088007000000000007000880104F9
:104DC0000104010501FF00010104010401FC00844C
:104DD0000104010001800000000000CC0124012436
:104DE000012401240198000000000100010007F8DF
:104DF0000104010400000000010001F800040004A7
:104E00000004010801FC0004010001800170000C95
:104E1000001001600180010001F0010C003001C0B0
:104E20000030010C01F0010000000104018C00744D
:104E30000170018C01040000010101810171000E6B
:104E4000001801600180010000000184010C0134A0
:104E500001440184010C000000000000000000007B
:104E600001003EFC40024002000000000000000083
:104E7000FFFF0000000000000000400240023EFC76
:104E800001000000000000000000600080008000C1
:104E90004000400020002000000004002402240202
:104EA00025F42554FD58255027F02550FD50255850
:104EB00025F42404040200000004040404080C3057
:104EC000146027C0C400040007F004082408140874
:104ED0000C0806080038000010401080910073FF95
:104EE0001500188200043FF822002200220023FF50
:104EF0004200460002000000000000000001F00037
:104F00003F9C03FFC03FF803FC01FFFC1FFFC0FFF5
:104F1000C003FC003FF03F9FC3FFDC0FFC0033C029
:104F200003FFC01FF800F0000000000000000000B8
:104F3000000000001FF803FFFE3FFFE7FFE679FED9
:104F4000679FE07FFFE73FFE73FC63FF863FF8004B
:104F50000000000000000000000000000000000051
:104F600006000060003E001FE07FEE7FF0E7FC0ED1
:104F700067C047F8007FC007FC007FC003FE003F0A
:104F8000E001FC003FC003F8007E00020000701B3F
:104F90002FE1801F9FE1E3FEBE3001FB002FB2AF87
:104FA000F3FEF03E601B6607B063F300FE3FEFDBED
:104FB000FEFC3783FB7C0FBFE01BEE2014210010AA
:104FC00003DA01EEF81DDF80FFFE7FECEE0FF3FF4A
:104FD000DDE7FFDFFF7CF9F87C7CDEFF3DFBFBF7C4
:104FE0005FC7CF39FEF7FFCE6EF787FF7E3CEFC07D
:104FF00079C80000103C0E7FC3EFFC78FC3F8EC3E5
:10500000F8FC3F8CC0FC4001E0000F3F87C7FDFC6F
:1050100073FDE01F3F01F3701F3F01FFC0093C001B
:10502000000000003C3F87C07EFFE1EFFE3FFFC76E
:10503000FFFC1FFFE1FFF83FF83FFFFFFFFE01FF0E
:10504000E01FFFA3FFE01FFF1FFFF8FFFFC3F7F004
:105050003F7CFFF3FFFC01F8007FF03FFF83FFFE82
:105060007FFFE3FFFE3FFFE7FFFE7FFFFFFFFFFF46
:10507000FFFFFFFE7FFFE7FFFE3FFFE3FFFE3FFF77
:10508000E3FFFE1FFFC07B803FFF8FEFC6CF7BB8E3
:105090007B7BB7B79BBB7DBC73DBFF83FFFFFFFF51
:1050A000FFEFFFFEFE01DFECFDFECFC02CFDFEDFBB
:1050B000DFF1F3FFFF7FFFF3FFFC00000FFDFFFFB9
:1050C000DFFFFFFFCCFF3DDDFBFFDDF7781E0300B8
:1050D000C0000003C2E3FCFFFF1FCFE3F8FE3F83E5
:1050E000F1FC0F83F0380E000000000039FF8FE75D
:1050F000FEFFBFEFF83FFFBFFFF3FFF8FFFFF87FB2
:10510000FF1BFFF7DFFF39FFF03FFF9FFFE0FFFFCF
:10511000E3FFFF3FFFF3F7FE7F7E0FF3FFFC00008E
:10512000000000000000006006060063E007FE00CB
:105130007C60060000018003DC007EE006F6006370
:10514000E0073E0031800000000000000000000089
:105150003FFF8FFFFEFFE00C723FC339F9BB87BBF7
:10516000BE7B93E39C601DFFFFFFFFFFFFFFBFA01F
:1051700019F38F8078FBF7073F6337FE797FFFF3E2
:10518000FFFC3FFF8FF7F8F0FFC83F3DF3CDDB3C5E
:10519000C1B3DE3C7FFFFFFFFFFFFF80E01FE7CFD3
:1051A000FF7CFFF7DFFF7DFF87DF81C017FFFF7FF9
:1051B000FFF3FFFC1F03F7F8FEFFDFCF1FF0C7FF71
:1051C0008CFCFECFC3EC78E7031F7003FFFFFBEFFF
:1051D000FF9EDF187FF0E7FF9F7FFDFF31DFF10DBE
:1051E000FF000CC0000000C6003FF007FF81FFFC7D
:1051F0003FFFC7FFFE7FFFEFFFFEFFFFE7FFFF7FE1
:10520000FFFFFFFFFFFFFFFFFE7FFFE3FFFE3FFF0C
:10521000C1FFFC07FF800200300007F8787F8FC6CF
:10522000F9FE6F1C67F1C6739C7039C6018060007F
:10523000001E1F03F9FF7F87E71878718FC7B9CE6B
:105240007F9CF3F18E00006000000000003DAC0187
:10525000DFE00DFE03C067F8067F0063FC067FC039
:1052600027ED8066DC060CE060CFE00C7E7FCE0789
:10527000FDC000D8000D0000C0000000000000705C
:10528000000F0001F8003F83E3FFBE7FFF63F9F0EA
:105290007384063FBC71FFE719F67F8E03FC787FAD
:1052A000FFC3FFEE1F9860F800020000000000003E
:1052B0000000081C83E3E87C3EDF83EFF836DFC3A1
:1052C0007C7E03C0E200002000E381FE3FDFC3FFDD
:1052D000B0301F8301EE200C6000020000000000CF
:1052E00001C0001E0F01E1E03F7E03FFC03FFC074D
:1052F000FF81FFF87FFF07FFF0FFFF07FFF01FFFB1
:10530000807FFC03FFE03FFE03F3F03E0F0380606D
:1053100000003FFF8FF103C0349DF94DCF97DE03AE
:105320007DFFFFFFFFFFFF1F9C01C3C1917DDB17C6
:10533000DF987DFFE1FE3FFE037FC9F7F5BF015B0C
:10534000F7F3FE7C000000000C0000E0003E003F90
:10535000E03FFE7FF0EFFC0E7FE003FC003F8007A4
:10536000F8007F8007FC003FC003FE003FE001FE25
:10537000001F0000000000000000040000E0000E1C
:10538000001FE01FFE7FFCEFF80E7FC063FC003FB4
:10539000E003FE001FC001FC003F8007F8007FC053
:1053A00007FC007C00000000000000000001F0008D
:1053B0003FDC03FFC07FF803FC01FFFC1FFFC0FFC1
:1053C000E803FC003FF03F9FC3FFFC0FFE0037F8EF
:1053D00003FFC01FFC01F8000000000000000000F7
:1053E000E0003F8007FFC07FFC07FDC03FFC1FFFC0
:1053F000C1FFE00FFC003FFC039FC1FFFC1F7C00CE
:1054000037F803FFC01FDC000000000000000000B0
:105410000001F0003F9C03FFC07FF007FFC03FFC8E
:105420003FFFC3FFE00FFE003FF01FDFE1FFFE0F75
:10543000FEC03BE003FFC01FFC007C0000001FFF1C
:10544000073FFC73FFE707FEF01FFE01FFE3FC7E52
:105450007F81FFF3CFFF3C7073C7839C7F8C8FE00D
:10546000E2FE3FFFF0FF7F3FF3C7FE1CFF8000001E
:1054700000000FFDFFFFDFFFC0F8FE0FC3F0FE7F4F
:105480009FF73DC371C83708007FDFFFFDFFCDDF09
:10549000BCCD9BCCD9BC0D8BC0D8740C06000000D1
:1054A0000000013FC339FE7BC0FFCC07ECC0FECC3F
:1054B0007FEEDFEEFDF877DFE23BFF7FC07FFC078A
:1054C0007FC071E1C21F3FF3F8FF73C07E1C0F6005
:1054D000C0E0000001C000FF001FF803FFC07FFC18
:1054E00007FFC07FFE0FFFE0FFFC0FFFF8FFFF8FFD
:1054F000FFFCFFBFEFF9FC7F9FF7F9FF7FBFC3FF02
:10550000F01FFC0000000000000000000000000090
:10551000000000000000000000000000000000008B
:10552000000000000000000000000000000000007B
:105530000000000000000000FFFF000000FC000071
:1055400031F70000FA64000088AD000031F7000078
:1055500031F70000FA640000E44A0000CDD90000F1
:10556000CDD90000FFFF0000FA640000489300005E
:1055700088AD00004893000048930000FA640000E2
:10558000FA64000031F70000CAEC0000448100001A
:1055900031F7000031F70000FFFF0000FFFF0000BF
:1055A000FFFF0000D53E000000FC00004481000029
:1055B0004481000000000000FFFFFFFF0900000021
:1055C000FFFFFFFF15000000FFFFFFFF05000000C9
:1055D0000E000000FFFFFFFF0B00000011000000A5
:1055E0001C0000001D000000FFFFFFFFFFFFFFFF8A
:1055F000FFFFFFFF0D00000013000000100000007F
:10560000080000000C0000001B0000000300000068
:1056100006000000FFFFFFFF0A000000FFFFFFFF82
:10562000FFFFFFFFFFFFFFFFFFFFFFFFFFFFFFFF8A
:10563000FFFFFFFFFFFFFFFFFFFFFFFF0000000076
:10564000FFFFFFFFFFFFFFFFFFFFFFFF0200000064
:1056500004000000FFFFFFFFFFFFFFFF120000003C
:10566000010000001E000000FFFFFFFFFFFFFFFF23
:10567000FFFFFFFFFFFFFFFF140000000F0000000F
:10568000FFFFFFFFFFFFFFFFFFFFFFFF070000001F
:10569000FFFFFFFFFFFFFFFFFFFFFFFFFFFFFFFF1A
:1056A000FFFFFFFFFFFFFFFFFFFFFFFFFFFFFFFF0A
:1056B0005F5F5F5F575F5F5F5F5F5F5F6C4C4B4239
:1056C000000000005F5F5F5F5F5F5F5F5F5F5F5F66
:1056D0005F514944000000005F5F5F5F5F5F5F5F95
:1056E0005F5F5F5F6C494949000000005F625F5F78
:1056F0005F5F675F5F5F715F5F4749530000000056
:10570000665F5F5F5F5F5F5F5F5F5F5F6C535559B1
:10571000000000005F5F5F5F5F5F5F5F5F5F4A4940
:10572000505F5F5F000000005F5F5F5F5F5F5F462D
:1057300049575F5F5F5F5F5F000000005F5F5F5F13
:105740005F5F5F4249595F5F5F5F5F5F000000001E
:105750004649575F5F5F5F5F5F5F5F5F5F5F5F5F90
:10576000000000005F5F5F5F5F5F5F5F5F5F5F5FC5
:105770005F5F5F5F000000005F5F6A5F5F5F5F5FAA
:105780005F5F5F5F5F5F5F5F000000005F5F5F5FA5
:10579000625F5F5F5F5F5F5F5F5F5F5F0000000092
:1057A000676767676767675F5F5F5F5F5F5F5F5FD1
:1057B000000000005F5F5F676767676767675F5F3D
:1057C0005F5F5F5F000000005F5F5F5F5F5F675F5D
:1057D0005F5F715F5F5F5F5F000000005F5F5F5F43
:1057E0005F5F6A5F5F5F5F6A5F5F5F5F000000002F
:1057F0005F5F5F5F5F5F5F6A5F5F5F6A5F5F5F5FA3
:10580000000000005F5F5F5F5F5F5F5F5F5F5F5F24
:10581000665F5F5F000000005F5F4249595F5F5F46
:105820005F5F5F5F6A5F5F5F000000006767675FE1
:105830005F5F49675F5F5F5F5F675F5F00000000FA
:105840004949675F5F5F5F675F5F5F5F5F675F5F7C
:10585000000000005F5F5F5F5F5F54675F5F5F72C4
:105860005F675F5F000000005953675F5F5F5667C7
:105870005F625F725F675F5F000000004247675FC3
:105880005F5F5F676767676767675F5F000000006C
:10589000676767676767675F5F5F715F5F6B5F5FC2
:1058A0000000000047675F5F5F675F5F5F715F5F7A
:1058B0005F715F5F0000000053675F5F5F675F5F5E
:1058C0005F715F5F5F715F5F0000000049675F624B
:1058D0005F6A5F5F5F715F665F715F5F000000001E
:1058E0005F67676767675F5F5F71717171715F5F46
:1058F000000000005F5F5F677676765F5F5F52490A
:10590000505F675F000000005F5F5F676676765FED
:105910005F5F4649575F675F000000005F5F5F673A
:105920005F5F5F5F5F5F5F5F5F5F675F00000000FB
:105930005F5F5F677676765F5F5F5F5F5F5F675F22
:10594000000000005F5F5F6767676767676767679B
:105950006767675F000000005F5F5F676767676793
:10596000767676767667675F000000005F5F424973
:10597000595F5F5F675F5F674949676700000000C5
:105980005F5F5F5F5F5F5F5F675F5F67445767672A
:10599000000000005F5F5F625F5F5F5F715F5F4A93
:1059A000465F6767000000005F5F5F5F6A6A665F6F
:1059B000675F5149505F6767000000005F5F5F5F8E
:1059C000675F5F5F675F5F5F5F5F67670000000043
:1059D00047495367675F5F5F675F5F5F5F5F6767E9
:1059E000000000005F5F5F5F67676767675F5F6713
:1059F00067676767000000005F5F5F5F5F5F5F5F13
:105A000067676767676767670000000067676767C2
:105A100067676767676767676767676700000000B2
:105A20005F5F5F5F5F5F5F5F5F5F5F5F6C6C6C6C52
:105A3000000000005F5F5F5F5F5F5F5F5F5F7171CE
:105A400071717171000000005F5F5F514944675FD1
:105A50005F5F717171717171000000007C5A000804
:105A600000000020540100006C010008445B0008A5
:105A7000540100204C0E0000C80100081364571B9D
:105A8000082804290829045A3C084B0458085A8C51
:105A9000105AB4081A7C181A40041A68041A2C0404
:105AA0001A54041358591B081C041AF40C1A300811
:105AB0001A08041A440429301A50041A14041AF05B
:105AC000041AE0201AA4041ACC041AB80429101AE3
:105AD00078181ADC041A180C13C4564C080C5A0413
